{
  "contractName": "ERC721Metadata",
  "abi": [
    {
      "inputs": [
        {
          "internalType": "uint256",
          "name": "_tokenId",
          "type": "uint256"
        },
        {
          "internalType": "string",
          "name": "",
          "type": "string"
        }
      ],
      "name": "getMetadata",
      "outputs": [
        {
          "internalType": "bytes32[4]",
          "name": "buffer",
          "type": "bytes32[4]"
        },
        {
          "internalType": "uint256",
          "name": "count",
          "type": "uint256"
        }
      ],
      "stateMutability": "pure",
      "type": "function"
    }
  ],
  "bytecode": "0x608060405234801561001057600080fd5b5061030c806100206000396000f3fe608060405234801561001057600080fd5b506004361061002b5760003560e01c8063cb4799f214610030575b600080fd5b61004361003e3660046101b9565b61005a565b60405161005192919061026f565b60405180910390f35b61006261019b565b6000836001141561009857507f48656c6c6f20576f726c6421203a4400000000000000000000000000000000008152600f610194565b83600214156100f257507f4920776f756c6420646566696e6974656c792063686f6f73652061206d65646981527f756d206c656e67746820737472696e672e00000000000000000000000000000060208201526031610194565b836003141561019457507f4c6f72656d20697073756d20646f6c6f722073697420616d65742c206d69206581527f737420616363756d73616e2064617069627573206175677565206c6f72656d2c60208201527f2074726973746971756520766573746962756c756d2069642c206c696265726f60408201527f207375736369706974207661726975732073617069656e20616c697175616d2e606082015260805b9250929050565b60405180608001604052806004906020820280368337509192915050565b600080604083850312156101cb578182fd5b82359150602083013567ffffffffffffffff808211156101e9578283fd5b818501915085601f8301126101fc578283fd5b81358181111561020e5761020e6102a7565b604051601f8201601f19908116603f01168101908382118183101715610236576102366102a7565b8160405282815288602084870101111561024e578586fd5b82602086016020830137856020848301015280955050505050509250929050565b60a08101818460005b6004811015610297578151835260209283019290910190600101610278565b5050508260808301529392505050565b7f4e487b7100000000000000000000000000000000000000000000000000000000600052604160045260246000fdfea2646970667358221220665146530fbd97d33b2ed5532c40f8f58420fa209dd7b92f3a661757ae2202fb64736f6c63430008030033",
  "immutableReferences": {},
  "source": "// SPDX-License-Identifier: UNLICENSED\npragma solidity ^0.8.0;\n\n/// @title The external contract that is responsible for generating metadata for the kitties,\n///  it has one function that will return the data as bytes.\ncontract ERC721Metadata {\n    /// @dev Given a token Id, returns a byte array that is supposed to be converted into string.\n    function getMetadata(uint256 _tokenId, string memory) public pure returns (bytes32[4] memory buffer, uint256 count) {\n        if (_tokenId == 1) {\n            buffer[0] = \"Hello World! :D\";\n            count = 15;\n        } else if (_tokenId == 2) {\n            buffer[0] = \"I would definitely choose a medi\";\n            buffer[1] = \"um length string.\";\n            count = 49;\n        } else if (_tokenId == 3) {\n            buffer[0] = \"Lorem ipsum dolor sit amet, mi e\";\n            buffer[1] = \"st accumsan dapibus augue lorem,\";\n            buffer[2] = \" tristique vestibulum id, libero\";\n            buffer[3] = \" suscipit varius sapien aliquam.\";\n            count = 128;\n        }\n    }\n}",
  "sourcePath": "/Users/ivanmontiel/Desktop/workspace/nft-tutorial/nft/packages/nfts/contracts/ERC721Metadata.sol",
  "compiler": {
    "name": "solc",
    "version": "0.8.3+commit.8d00100c.Emscripten.clang"
  },
  "schemaVersion": "3.4.3",
  "updatedAt": "2021-09-03T21:45:46.819Z",
  "devdoc": {
    "kind": "dev",
    "methods": {
      "getMetadata(uint256,string)": {
        "details": "Given a token Id, returns a byte array that is supposed to be converted into string."
      }
    },
    "title": "The external contract that is responsible for generating metadata for the kitties,  it has one function that will return the data as bytes.",
    "version": 1
  },
  "userdoc": {
    "kind": "user",
    "methods": {},
    "version": 1
  }
}