{
  "contractName": "KittyCore",
  "abi": [
    {
      "inputs": [],
      "stateMutability": "nonpayable",
      "type": "constructor"
    },
    {
      "anonymous": false,
      "inputs": [
        {
          "indexed": true,
          "internalType": "address",
          "name": "owner",
          "type": "address"
        },
        {
          "indexed": true,
          "internalType": "address",
          "name": "approved",
          "type": "address"
        },
        {
          "indexed": true,
          "internalType": "uint256",
          "name": "tokenId",
          "type": "uint256"
        }
      ],
      "name": "Approval",
      "type": "event"
    },
    {
      "anonymous": false,
      "inputs": [
        {
          "indexed": true,
          "internalType": "address",
          "name": "owner",
          "type": "address"
        },
        {
          "indexed": true,
          "internalType": "address",
          "name": "operator",
          "type": "address"
        },
        {
          "indexed": false,
          "internalType": "bool",
          "name": "approved",
          "type": "bool"
        }
      ],
      "name": "ApprovalForAll",
      "type": "event"
    },
    {
      "anonymous": false,
      "inputs": [
        {
          "indexed": false,
          "internalType": "address",
          "name": "owner",
          "type": "address"
        },
        {
          "indexed": false,
          "internalType": "uint256",
          "name": "kittyId",
          "type": "uint256"
        },
        {
          "indexed": false,
          "internalType": "uint256",
          "name": "matronId",
          "type": "uint256"
        },
        {
          "indexed": false,
          "internalType": "uint256",
          "name": "sireId",
          "type": "uint256"
        },
        {
          "indexed": false,
          "internalType": "uint256",
          "name": "genes",
          "type": "uint256"
        }
      ],
      "name": "Birth",
      "type": "event"
    },
    {
      "anonymous": false,
      "inputs": [
        {
          "indexed": false,
          "internalType": "address",
          "name": "newContract",
          "type": "address"
        }
      ],
      "name": "ContractUpgrade",
      "type": "event"
    },
    {
      "anonymous": false,
      "inputs": [
        {
          "indexed": false,
          "internalType": "address",
          "name": "owner",
          "type": "address"
        },
        {
          "indexed": false,
          "internalType": "uint256",
          "name": "matronId",
          "type": "uint256"
        },
        {
          "indexed": false,
          "internalType": "uint256",
          "name": "sireId",
          "type": "uint256"
        },
        {
          "indexed": false,
          "internalType": "uint256",
          "name": "cooldownEndBlock",
          "type": "uint256"
        }
      ],
      "name": "Pregnant",
      "type": "event"
    },
    {
      "anonymous": false,
      "inputs": [
        {
          "indexed": true,
          "internalType": "address",
          "name": "from",
          "type": "address"
        },
        {
          "indexed": true,
          "internalType": "address",
          "name": "to",
          "type": "address"
        },
        {
          "indexed": true,
          "internalType": "uint256",
          "name": "tokenId",
          "type": "uint256"
        }
      ],
      "name": "Transfer",
      "type": "event"
    },
    {
      "inputs": [],
      "name": "GEN0_AUCTION_DURATION",
      "outputs": [
        {
          "internalType": "uint256",
          "name": "",
          "type": "uint256"
        }
      ],
      "stateMutability": "view",
      "type": "function",
      "constant": true
    },
    {
      "inputs": [],
      "name": "GEN0_CREATION_LIMIT",
      "outputs": [
        {
          "internalType": "uint256",
          "name": "",
          "type": "uint256"
        }
      ],
      "stateMutability": "view",
      "type": "function",
      "constant": true
    },
    {
      "inputs": [],
      "name": "GEN0_STARTING_PRICE",
      "outputs": [
        {
          "internalType": "uint256",
          "name": "",
          "type": "uint256"
        }
      ],
      "stateMutability": "view",
      "type": "function",
      "constant": true
    },
    {
      "inputs": [],
      "name": "PROMO_CREATION_LIMIT",
      "outputs": [
        {
          "internalType": "uint256",
          "name": "",
          "type": "uint256"
        }
      ],
      "stateMutability": "view",
      "type": "function",
      "constant": true
    },
    {
      "inputs": [
        {
          "internalType": "address",
          "name": "_to",
          "type": "address"
        },
        {
          "internalType": "uint256",
          "name": "_tokenId",
          "type": "uint256"
        }
      ],
      "name": "approve",
      "outputs": [],
      "stateMutability": "nonpayable",
      "type": "function"
    },
    {
      "inputs": [
        {
          "internalType": "address",
          "name": "_addr",
          "type": "address"
        },
        {
          "internalType": "uint256",
          "name": "_sireId",
          "type": "uint256"
        }
      ],
      "name": "approveSiring",
      "outputs": [],
      "stateMutability": "nonpayable",
      "type": "function"
    },
    {
      "inputs": [],
      "name": "autoBirthFee",
      "outputs": [
        {
          "internalType": "uint256",
          "name": "",
          "type": "uint256"
        }
      ],
      "stateMutability": "view",
      "type": "function",
      "constant": true
    },
    {
      "inputs": [
        {
          "internalType": "address",
          "name": "_owner",
          "type": "address"
        }
      ],
      "name": "balanceOf",
      "outputs": [
        {
          "internalType": "uint256",
          "name": "count",
          "type": "uint256"
        }
      ],
      "stateMutability": "view",
      "type": "function",
      "constant": true
    },
    {
      "inputs": [
        {
          "internalType": "uint256",
          "name": "_sireId",
          "type": "uint256"
        },
        {
          "internalType": "uint256",
          "name": "_matronId",
          "type": "uint256"
        }
      ],
      "name": "bidOnSiringAuction",
      "outputs": [],
      "stateMutability": "payable",
      "type": "function",
      "payable": true
    },
    {
      "inputs": [
        {
          "internalType": "uint256",
          "name": "_matronId",
          "type": "uint256"
        },
        {
          "internalType": "uint256",
          "name": "_sireId",
          "type": "uint256"
        }
      ],
      "name": "breedWithAuto",
      "outputs": [],
      "stateMutability": "payable",
      "type": "function",
      "payable": true
    },
    {
      "inputs": [
        {
          "internalType": "uint256",
          "name": "_matronId",
          "type": "uint256"
        },
        {
          "internalType": "uint256",
          "name": "_sireId",
          "type": "uint256"
        }
      ],
      "name": "canBreedWith",
      "outputs": [
        {
          "internalType": "bool",
          "name": "",
          "type": "bool"
        }
      ],
      "stateMutability": "view",
      "type": "function",
      "constant": true
    },
    {
      "inputs": [],
      "name": "ceoAddress",
      "outputs": [
        {
          "internalType": "address payable",
          "name": "",
          "type": "address"
        }
      ],
      "stateMutability": "view",
      "type": "function",
      "constant": true
    },
    {
      "inputs": [],
      "name": "cfoAddress",
      "outputs": [
        {
          "internalType": "address payable",
          "name": "",
          "type": "address"
        }
      ],
      "stateMutability": "view",
      "type": "function",
      "constant": true
    },
    {
      "inputs": [],
      "name": "cooAddress",
      "outputs": [
        {
          "internalType": "address payable",
          "name": "",
          "type": "address"
        }
      ],
      "stateMutability": "view",
      "type": "function",
      "constant": true
    },
    {
      "inputs": [
        {
          "internalType": "uint256",
          "name": "",
          "type": "uint256"
        }
      ],
      "name": "cooldowns",
      "outputs": [
        {
          "internalType": "uint32",
          "name": "",
          "type": "uint32"
        }
      ],
      "stateMutability": "view",
      "type": "function",
      "constant": true
    },
    {
      "inputs": [
        {
          "internalType": "uint256",
          "name": "_genes",
          "type": "uint256"
        }
      ],
      "name": "createGen0Auction",
      "outputs": [],
      "stateMutability": "nonpayable",
      "type": "function"
    },
    {
      "inputs": [
        {
          "internalType": "uint256",
          "name": "_genes",
          "type": "uint256"
        },
        {
          "internalType": "address",
          "name": "_owner",
          "type": "address"
        }
      ],
      "name": "createPromoKitty",
      "outputs": [],
      "stateMutability": "nonpayable",
      "type": "function"
    },
    {
      "inputs": [
        {
          "internalType": "uint256",
          "name": "_kittyId",
          "type": "uint256"
        },
        {
          "internalType": "uint256",
          "name": "_startingPrice",
          "type": "uint256"
        },
        {
          "internalType": "uint256",
          "name": "_endingPrice",
          "type": "uint256"
        },
        {
          "internalType": "uint256",
          "name": "_duration",
          "type": "uint256"
        }
      ],
      "name": "createSaleAuction",
      "outputs": [],
      "stateMutability": "nonpayable",
      "type": "function"
    },
    {
      "inputs": [
        {
          "internalType": "uint256",
          "name": "_kittyId",
          "type": "uint256"
        },
        {
          "internalType": "uint256",
          "name": "_startingPrice",
          "type": "uint256"
        },
        {
          "internalType": "uint256",
          "name": "_endingPrice",
          "type": "uint256"
        },
        {
          "internalType": "uint256",
          "name": "_duration",
          "type": "uint256"
        }
      ],
      "name": "createSiringAuction",
      "outputs": [],
      "stateMutability": "nonpayable",
      "type": "function"
    },
    {
      "inputs": [],
      "name": "erc721Metadata",
      "outputs": [
        {
          "internalType": "contract ERC721Metadata",
          "name": "",
          "type": "address"
        }
      ],
      "stateMutability": "view",
      "type": "function",
      "constant": true
    },
    {
      "inputs": [],
      "name": "gen0CreatedCount",
      "outputs": [
        {
          "internalType": "uint256",
          "name": "",
          "type": "uint256"
        }
      ],
      "stateMutability": "view",
      "type": "function",
      "constant": true
    },
    {
      "inputs": [],
      "name": "geneScience",
      "outputs": [
        {
          "internalType": "contract GeneScienceInterface",
          "name": "",
          "type": "address"
        }
      ],
      "stateMutability": "view",
      "type": "function",
      "constant": true
    },
    {
      "inputs": [
        {
          "internalType": "uint256",
          "name": "tokenId",
          "type": "uint256"
        }
      ],
      "name": "getApproved",
      "outputs": [
        {
          "internalType": "address",
          "name": "",
          "type": "address"
        }
      ],
      "stateMutability": "view",
      "type": "function",
      "constant": true
    },
    {
      "inputs": [
        {
          "internalType": "uint256",
          "name": "_matronId",
          "type": "uint256"
        }
      ],
      "name": "giveBirth",
      "outputs": [
        {
          "internalType": "uint256",
          "name": "",
          "type": "uint256"
        }
      ],
      "stateMutability": "nonpayable",
      "type": "function"
    },
    {
      "inputs": [
        {
          "internalType": "address",
          "name": "owner",
          "type": "address"
        },
        {
          "internalType": "address",
          "name": "operator",
          "type": "address"
        }
      ],
      "name": "isApprovedForAll",
      "outputs": [
        {
          "internalType": "bool",
          "name": "",
          "type": "bool"
        }
      ],
      "stateMutability": "view",
      "type": "function",
      "constant": true
    },
    {
      "inputs": [
        {
          "internalType": "uint256",
          "name": "_kittyId",
          "type": "uint256"
        }
      ],
      "name": "isPregnant",
      "outputs": [
        {
          "internalType": "bool",
          "name": "",
          "type": "bool"
        }
      ],
      "stateMutability": "view",
      "type": "function",
      "constant": true
    },
    {
      "inputs": [
        {
          "internalType": "uint256",
          "name": "_kittyId",
          "type": "uint256"
        }
      ],
      "name": "isReadyToBreed",
      "outputs": [
        {
          "internalType": "bool",
          "name": "",
          "type": "bool"
        }
      ],
      "stateMutability": "view",
      "type": "function",
      "constant": true
    },
    {
      "inputs": [
        {
          "internalType": "uint256",
          "name": "",
          "type": "uint256"
        }
      ],
      "name": "kittyIndexToApproved",
      "outputs": [
        {
          "internalType": "address",
          "name": "",
          "type": "address"
        }
      ],
      "stateMutability": "view",
      "type": "function",
      "constant": true
    },
    {
      "inputs": [
        {
          "internalType": "uint256",
          "name": "",
          "type": "uint256"
        }
      ],
      "name": "kittyIndexToOwner",
      "outputs": [
        {
          "internalType": "address",
          "name": "",
          "type": "address"
        }
      ],
      "stateMutability": "view",
      "type": "function",
      "constant": true
    },
    {
      "inputs": [],
      "name": "name",
      "outputs": [
        {
          "internalType": "string",
          "name": "",
          "type": "string"
        }
      ],
      "stateMutability": "view",
      "type": "function",
      "constant": true
    },
    {
      "inputs": [],
      "name": "newContractAddress",
      "outputs": [
        {
          "internalType": "address",
          "name": "",
          "type": "address"
        }
      ],
      "stateMutability": "view",
      "type": "function",
      "constant": true
    },
    {
      "inputs": [
        {
          "internalType": "uint256",
          "name": "_tokenId",
          "type": "uint256"
        }
      ],
      "name": "ownerOf",
      "outputs": [
        {
          "internalType": "address",
          "name": "owner",
          "type": "address"
        }
      ],
      "stateMutability": "view",
      "type": "function",
      "constant": true
    },
    {
      "inputs": [],
      "name": "pause",
      "outputs": [],
      "stateMutability": "nonpayable",
      "type": "function"
    },
    {
      "inputs": [],
      "name": "paused",
      "outputs": [
        {
          "internalType": "bool",
          "name": "",
          "type": "bool"
        }
      ],
      "stateMutability": "view",
      "type": "function",
      "constant": true
    },
    {
      "inputs": [],
      "name": "pregnantKitties",
      "outputs": [
        {
          "internalType": "uint256",
          "name": "",
          "type": "uint256"
        }
      ],
      "stateMutability": "view",
      "type": "function",
      "constant": true
    },
    {
      "inputs": [],
      "name": "promoCreatedCount",
      "outputs": [
        {
          "internalType": "uint256",
          "name": "",
          "type": "uint256"
        }
      ],
      "stateMutability": "view",
      "type": "function",
      "constant": true
    },
    {
      "inputs": [
        {
          "internalType": "address",
          "name": "from",
          "type": "address"
        },
        {
          "internalType": "address",
          "name": "to",
          "type": "address"
        },
        {
          "internalType": "uint256",
          "name": "tokenId",
          "type": "uint256"
        }
      ],
      "name": "safeTransferFrom",
      "outputs": [],
      "stateMutability": "nonpayable",
      "type": "function"
    },
    {
      "inputs": [
        {
          "internalType": "address",
          "name": "from",
          "type": "address"
        },
        {
          "internalType": "address",
          "name": "to",
          "type": "address"
        },
        {
          "internalType": "uint256",
          "name": "tokenId",
          "type": "uint256"
        },
        {
          "internalType": "bytes",
          "name": "_data",
          "type": "bytes"
        }
      ],
      "name": "safeTransferFrom",
      "outputs": [],
      "stateMutability": "nonpayable",
      "type": "function"
    },
    {
      "inputs": [],
      "name": "saleAuction",
      "outputs": [
        {
          "internalType": "contract SaleClockAuction",
          "name": "",
          "type": "address"
        }
      ],
      "stateMutability": "view",
      "type": "function",
      "constant": true
    },
    {
      "inputs": [],
      "name": "secondsPerBlock",
      "outputs": [
        {
          "internalType": "uint256",
          "name": "",
          "type": "uint256"
        }
      ],
      "stateMutability": "view",
      "type": "function",
      "constant": true
    },
    {
      "inputs": [
        {
          "internalType": "address",
          "name": "operator",
          "type": "address"
        },
        {
          "internalType": "bool",
          "name": "approved",
          "type": "bool"
        }
      ],
      "name": "setApprovalForAll",
      "outputs": [],
      "stateMutability": "nonpayable",
      "type": "function"
    },
    {
      "inputs": [
        {
          "internalType": "uint256",
          "name": "val",
          "type": "uint256"
        }
      ],
      "name": "setAutoBirthFee",
      "outputs": [],
      "stateMutability": "nonpayable",
      "type": "function"
    },
    {
      "inputs": [
        {
          "internalType": "address payable",
          "name": "_newCEO",
          "type": "address"
        }
      ],
      "name": "setCEO",
      "outputs": [],
      "stateMutability": "nonpayable",
      "type": "function"
    },
    {
      "inputs": [
        {
          "internalType": "address payable",
          "name": "_newCFO",
          "type": "address"
        }
      ],
      "name": "setCFO",
      "outputs": [],
      "stateMutability": "nonpayable",
      "type": "function"
    },
    {
      "inputs": [
        {
          "internalType": "address payable",
          "name": "_newCOO",
          "type": "address"
        }
      ],
      "name": "setCOO",
      "outputs": [],
      "stateMutability": "nonpayable",
      "type": "function"
    },
    {
      "inputs": [
        {
          "internalType": "address",
          "name": "_address",
          "type": "address"
        }
      ],
      "name": "setGeneScienceAddress",
      "outputs": [],
      "stateMutability": "nonpayable",
      "type": "function"
    },
    {
      "inputs": [
        {
          "internalType": "address",
          "name": "_contractAddress",
          "type": "address"
        }
      ],
      "name": "setMetadataAddress",
      "outputs": [],
      "stateMutability": "nonpayable",
      "type": "function"
    },
    {
      "inputs": [
        {
          "internalType": "address",
          "name": "_address",
          "type": "address"
        }
      ],
      "name": "setSaleAuctionAddress",
      "outputs": [],
      "stateMutability": "nonpayable",
      "type": "function"
    },
    {
      "inputs": [
        {
          "internalType": "uint256",
          "name": "secs",
          "type": "uint256"
        }
      ],
      "name": "setSecondsPerBlock",
      "outputs": [],
      "stateMutability": "nonpayable",
      "type": "function"
    },
    {
      "inputs": [
        {
          "internalType": "address",
          "name": "_address",
          "type": "address"
        }
      ],
      "name": "setSiringAuctionAddress",
      "outputs": [],
      "stateMutability": "nonpayable",
      "type": "function"
    },
    {
      "inputs": [
        {
          "internalType": "uint256",
          "name": "",
          "type": "uint256"
        }
      ],
      "name": "sireAllowedToAddress",
      "outputs": [
        {
          "internalType": "address",
          "name": "",
          "type": "address"
        }
      ],
      "stateMutability": "view",
      "type": "function",
      "constant": true
    },
    {
      "inputs": [],
      "name": "siringAuction",
      "outputs": [
        {
          "internalType": "contract SiringClockAuction",
          "name": "",
          "type": "address"
        }
      ],
      "stateMutability": "view",
      "type": "function",
      "constant": true
    },
    {
      "inputs": [
        {
          "internalType": "bytes4",
          "name": "_interfaceID",
          "type": "bytes4"
        }
      ],
      "name": "supportsInterface",
      "outputs": [
        {
          "internalType": "bool",
          "name": "",
          "type": "bool"
        }
      ],
      "stateMutability": "pure",
      "type": "function",
      "constant": true
    },
    {
      "inputs": [],
      "name": "symbol",
      "outputs": [
        {
          "internalType": "string",
          "name": "",
          "type": "string"
        }
      ],
      "stateMutability": "view",
      "type": "function",
      "constant": true
    },
    {
      "inputs": [
        {
          "internalType": "uint256",
          "name": "_tokenId",
          "type": "uint256"
        },
        {
          "internalType": "string",
          "name": "_preferredTransport",
          "type": "string"
        }
      ],
      "name": "tokenMetadata",
      "outputs": [
        {
          "internalType": "string",
          "name": "infoUrl",
          "type": "string"
        }
      ],
      "stateMutability": "view",
      "type": "function",
      "constant": true
    },
    {
      "inputs": [
        {
          "internalType": "uint256",
          "name": "tokenId",
          "type": "uint256"
        }
      ],
      "name": "tokenURI",
      "outputs": [
        {
          "internalType": "string",
          "name": "",
          "type": "string"
        }
      ],
      "stateMutability": "view",
      "type": "function",
      "constant": true
    },
    {
      "inputs": [
        {
          "internalType": "address",
          "name": "_owner",
          "type": "address"
        }
      ],
      "name": "tokensOfOwner",
      "outputs": [
        {
          "internalType": "uint256[]",
          "name": "ownerTokens",
          "type": "uint256[]"
        }
      ],
      "stateMutability": "view",
      "type": "function",
      "constant": true
    },
    {
      "inputs": [],
      "name": "totalSupply",
      "outputs": [
        {
          "internalType": "uint256",
          "name": "",
          "type": "uint256"
        }
      ],
      "stateMutability": "view",
      "type": "function",
      "constant": true
    },
    {
      "inputs": [
        {
          "internalType": "address",
          "name": "_to",
          "type": "address"
        },
        {
          "internalType": "uint256",
          "name": "_tokenId",
          "type": "uint256"
        }
      ],
      "name": "transfer",
      "outputs": [],
      "stateMutability": "nonpayable",
      "type": "function"
    },
    {
      "inputs": [
        {
          "internalType": "address",
          "name": "_from",
          "type": "address"
        },
        {
          "internalType": "address",
          "name": "_to",
          "type": "address"
        },
        {
          "internalType": "uint256",
          "name": "_tokenId",
          "type": "uint256"
        }
      ],
      "name": "transferFrom",
      "outputs": [],
      "stateMutability": "nonpayable",
      "type": "function"
    },
    {
      "inputs": [],
      "name": "withdrawAuctionBalances",
      "outputs": [],
      "stateMutability": "nonpayable",
      "type": "function"
    },
    {
      "stateMutability": "payable",
      "type": "receive",
      "payable": true
    },
    {
      "inputs": [
        {
          "internalType": "address",
          "name": "_v2Address",
          "type": "address"
        }
      ],
      "name": "setNewAddress",
      "outputs": [],
      "stateMutability": "nonpayable",
      "type": "function"
    },
    {
      "inputs": [
        {
          "internalType": "uint256",
          "name": "_id",
          "type": "uint256"
        }
      ],
      "name": "getKitty",
      "outputs": [
        {
          "internalType": "bool",
          "name": "isGestating",
          "type": "bool"
        },
        {
          "internalType": "bool",
          "name": "isReady",
          "type": "bool"
        },
        {
          "internalType": "uint256",
          "name": "cooldownIndex",
          "type": "uint256"
        },
        {
          "internalType": "uint256",
          "name": "nextActionAt",
          "type": "uint256"
        },
        {
          "internalType": "uint256",
          "name": "siringWithId",
          "type": "uint256"
        },
        {
          "internalType": "uint256",
          "name": "birthTime",
          "type": "uint256"
        },
        {
          "internalType": "uint256",
          "name": "matronId",
          "type": "uint256"
        },
        {
          "internalType": "uint256",
          "name": "sireId",
          "type": "uint256"
        },
        {
          "internalType": "uint256",
          "name": "generation",
          "type": "uint256"
        },
        {
          "internalType": "uint256",
          "name": "genes",
          "type": "uint256"
        }
      ],
      "stateMutability": "view",
      "type": "function",
      "constant": true
    },
    {
      "inputs": [],
      "name": "unpause",
      "outputs": [],
      "stateMutability": "nonpayable",
      "type": "function"
    },
    {
      "inputs": [],
      "name": "withdrawBalance",
      "outputs": [],
      "stateMutability": "nonpayable",
      "type": "function"
    }
  ],
  "bytecode": "0x6002805460ff60a01b19169055610240604052603c6080908152607860a05261012c60c05261025860e05261070861010052610e1061012052611c2061014052613840610160526170806101805261e1006101a052620151806101c0526202a3006101e052620546006102005262093a80610220526200008490600990600e6200051b565b50600f600b5566071afd498d0000601555348015620000a257600080fd5b50604080518082018252600d81526c43727970746f4b69747469657360981b602080830191825283518085019094526002845261434b60f01b908401528151919291620000f291600391620005be565b50805162000108906004906020840190620005be565b505060028054600080546001600160a01b0319163390811782556001600160a81b0319909216909117600160a01b179091556200014c915080806000198162000153565b5062000718565b60008563ffffffff1686146200016857600080fd5b8463ffffffff1685146200017b57600080fd5b8361ffff1684146200018c57600080fd5b60006200019b60028662000652565b9050600d8161ffff161115620001af5750600d5b60408051610100810182528581526001600160401b034216602080830191909152600082840181905263ffffffff808c1660608501528a16608084015260a0830181905261ffff80861660c0850152891660e08401528781526011909152919091205460ff16156200022057600080fd5b805160009081526011602090815260408083208054600160ff199091168117909155600c8054808301825581865286517fdf6966c971051c3d54ec59162606531493a51404a002842f56009d7e5cf4a8c7600290920291820155938601517fdf6966c971051c3d54ec59162606531493a51404a002842f56009d7e5cf4a8c89094018054938701516060880151608089015160a08a015160c08b015160e08c01516001600160401b039a8b166001600160801b0319909a1699909917680100000000000000009a9095169990990293909317600160801b600160c01b031916600160801b63ffffffff9384160263ffffffff60a01b191617600160a01b918316919091021765ffffffffffff60c01b1916600160c01b919092160261ffff60e01b191617600160e01b61ffff96871602176001600160f01b0316600160f01b959094169490940292909217909255546200037b919062000673565b90508063ffffffff1681146200039057600080fd5b6060808301516080808501518551604080516001600160a01b038c1681526020810188905263ffffffff9586169181019190915291909316938101939093528201527f0a5311bd2a6608f08a180df2ee7c5946819a649b204b554bb8e39825b2c50ad59060a00160405180910390a16200040d6000868362000419565b98975050505050505050565b6001600160a01b0382166000908152600e602052604081208054916200043f83620006e4565b90915550506000818152600d6020526040902080546001600160a01b0319166001600160a01b0384811691909117909155831615620004d5576001600160a01b0383166000908152600e602052604081208054916200049e836200068d565b9091555050600081815260106020908152604080832080546001600160a01b0319908116909155600f909252909120805490911690555b80826001600160a01b0316846001600160a01b03167fddf252ad1be2c89b69c2b068fc378daa952ba7f163c4a11628f55a4df523b3ef60405160405180910390a4505050565b600283019183908215620005ac5791602002820160005b838211156200057857835183826101000a81548163ffffffff021916908363ffffffff160217905550926020019260040160208160030104928301926001030262000532565b8015620005aa5782816101000a81549063ffffffff021916905560040160208160030104928301926001030262000578565b505b50620005ba9291506200063b565b5090565b828054620005cc90620006a7565b90600052602060002090601f016020900481019282620005f05760008555620005ac565b82601f106200060b57805160ff1916838001178555620005ac565b82800160010185558215620005ac579182015b82811115620005ac5782518255916020019190600101906200061e565b5b80821115620005ba57600081556001016200063c565b6000826200066e57634e487b7160e01b81526012600452602481fd5b500490565b60008282101562000688576200068862000702565b500390565b6000816200069f576200069f62000702565b506000190190565b600181811c90821680620006bc57607f821691505b60208210811415620006de57634e487b7160e01b600052602260045260246000fd5b50919050565b6000600019821415620006fb57620006fb62000702565b5060010190565b634e487b7160e01b600052601160045260246000fd5b61414d80620007286000396000f3fe6080604052600436106103e25760003560e01c80635fd8c7101161020d578063a9059cbb11610128578063defb9584116100bb578063e98b7f4d1161008a578063f1ca94101161006f578063f1ca941014610c6e578063f2b47d5214610c84578063f7d8c88314610ca457610415565b8063e98b7f4d14610bef578063ed60ade614610c5b57610415565b8063defb958414610b50578063e17b25af14610b66578063e6cbe35114610b86578063e985e9c514610ba657610415565b8063bc4006f5116100f7578063bc4006f514610ad0578063c3bea9af14610af0578063c87b56dd14610b10578063d3e6f49f14610b3057610415565b8063a9059cbb14610a5a578063b047fb5014610a7a578063b0c35c0514610a9a578063b88d4fde14610ab057610415565b80638456cb59116101a057806395d89b411161016f57806395d89b41146109ba5780639d6fac6f146109cf578063a22cb46514610a04578063a45f4bfc14610a2457610415565b80638456cb59146109435780638462151c1461095857806388c2a0bf1461098557806391876e57146109a557610415565b80636fbde40d116101dc5780636fbde40d146108b757806370a08231146108d7578063715879881461090d5780637a7d49371461092d57610415565b80635fd8c7101461084c5780636352211e14610861578063680eba27146108815780636af04a571461089757610415565b806324e7a38a116102fd578063481af3d3116102905780634e0a33791161025f5780634e0a3379146107cb57806356129134146107eb5780635663896e1461080b5780635c975abb1461082b57610415565b8063481af3d3146107355780634ad8c9381461076b5780634b85fd551461078b5780634dfff04f146107ab57610415565b80633f4ba83a116102cc5780633f4ba83a146106aa57806342842e0e146106bf57806346116e6f146106df57806346d22c701461071557610415565b806324e7a38a1461062a57806327d7874c1461064a5780632ba73c151461066a5780633d7d3f5a1461068a57610415565b80630e583df0116103755780631940a936116103445780631940a936146105b357806319c2f201146105d357806321717ebf146105ea57806323b872dd1461060a57610415565b80630e583df01461054d57806314001f4c1461056857806318160ddd14610588578063183a79471461059d57610415565b806306fdde03116103b157806306fdde03146104d8578063081812fc146104ed578063095ea7b31461050d5780630a0f81681461052d57610415565b806301ffc9a71461041a5780630519ce791461044f5780630560ff441461048757806305e45546146104b457610415565b36610415576012546001600160a01b031633148061040a57506013546001600160a01b031633145b61041357600080fd5b005b600080fd5b34801561042657600080fd5b5061043a610435366004613bcb565b610cb7565b60405190151581526020015b60405180910390f35b34801561045b57600080fd5b5060015461046f906001600160a01b031681565b6040516001600160a01b039091168152602001610446565b34801561049357600080fd5b506104a76104a2366004613c57565b610d22565b6040516104469190613ddc565b3480156104c057600080fd5b506104ca60185481565b604051908152602001610446565b3480156104e457600080fd5b506104a7610df6565b3480156104f957600080fd5b5061046f610508366004613c03565b610e88565b34801561051957600080fd5b50610413610528366004613b17565b610f22565b34801561053957600080fd5b5060005461046f906001600160a01b031681565b34801561055957600080fd5b506104ca662386f26fc1000081565b34801561057457600080fd5b506104136105833660046139d9565b610fbf565b34801561059457600080fd5b506104ca611078565b3480156105a957600080fd5b506104ca60165481565b3480156105bf57600080fd5b5061043a6105ce366004613c03565b61108f565b3480156105df57600080fd5b506104ca6201518081565b3480156105f657600080fd5b5060135461046f906001600160a01b031681565b34801561061657600080fd5b50610413610625366004613a2d565b6110e7565b34801561063657600080fd5b506104136106453660046139d9565b611180565b34801561065657600080fd5b506104136106653660046139d9565b611239565b34801561067657600080fd5b506104136106853660046139d9565b611285565b34801561069657600080fd5b506104136106a5366004613cd0565b6112d1565b3480156106b657600080fd5b506104136113cc565b3480156106cb57600080fd5b506104136106da366004613a2d565b611458565b3480156106eb57600080fd5b5061046f6106fa366004613c03565b6010602052600090815260409020546001600160a01b031681565b34801561072157600080fd5b5061043a610730366004613caf565b611473565b34801561074157600080fd5b5061046f610750366004613c03565b600f602052600090815260409020546001600160a01b031681565b34801561077757600080fd5b50610413610786366004613cd0565b611511565b34801561079757600080fd5b506104136107a6366004613c03565b6115d7565b3480156107b757600080fd5b506104136107c6366004613b17565b6115f3565b3480156107d757600080fd5b506104136107e63660046139d9565b61165b565b3480156107f757600080fd5b50610413610806366004613c33565b6116a7565b34801561081757600080fd5b50610413610826366004613c03565b611715565b34801561083757600080fd5b5060025461043a90600160a01b900460ff1681565b34801561085857600080fd5b5061041361176f565b34801561086d57600080fd5b5061046f61087c366004613c03565b6117f5565b34801561088d57600080fd5b506104ca61afc881565b3480156108a357600080fd5b50601a5461046f906001600160a01b031681565b3480156108c357600080fd5b506104136108d23660046139d9565b611817565b3480156108e357600080fd5b506104ca6108f23660046139d9565b6001600160a01b03166000908152600e602052604090205490565b34801561091957600080fd5b506104136109283660046139d9565b6118d0565b34801561093957600080fd5b506104ca600b5481565b34801561094f57600080fd5b50610413611951565b34801561096457600080fd5b506109786109733660046139d9565b6119be565b6040516104469190613d98565b34801561099157600080fd5b506104ca6109a0366004613c03565b611aec565b3480156109b157600080fd5b50610413611de7565b3480156109c657600080fd5b506104a7611ef4565b3480156109db57600080fd5b506109ef6109ea366004613c03565b611f03565b60405163ffffffff9091168152602001610446565b348015610a1057600080fd5b50610413610a1f366004613aea565b611f33565b348015610a3057600080fd5b5061046f610a3f366004613c03565b600d602052600090815260409020546001600160a01b031681565b348015610a6657600080fd5b50610413610a75366004613b17565b612005565b348015610a8657600080fd5b5060025461046f906001600160a01b031681565b348015610aa657600080fd5b506104ca60155481565b348015610abc57600080fd5b50610413610acb366004613a6d565b6120a9565b348015610adc57600080fd5b5060145461046f906001600160a01b031681565b348015610afc57600080fd5b50610413610b0b366004613c03565b612131565b348015610b1c57600080fd5b506104a7610b2b366004613c03565b612239565b348015610b3c57600080fd5b5061043a610b4b366004613c03565b61232f565b348015610b5c57600080fd5b506104ca61138881565b348015610b7257600080fd5b50610413610b813660046139d9565b612406565b348015610b9257600080fd5b5060125461046f906001600160a01b031681565b348015610bb257600080fd5b5061043a610bc13660046139f5565b6001600160a01b03918216600090815260086020908152604080832093909416825291909152205460ff1690565b348015610bfb57600080fd5b50610c0f610c0a366004613c03565b61243f565b604080519a15158b5298151560208b0152978901969096526060880194909452608087019290925260a086015260c085015260e084015261010083015261012082015261014001610446565b610413610c69366004613caf565b6125b2565b348015610c7a57600080fd5b506104ca60195481565b348015610c9057600080fd5b5060175461046f906001600160a01b031681565b610413610cb2366004613caf565b61274c565b60006001600160e01b031982167f01ffc9a7000000000000000000000000000000000000000000000000000000001480610d1a57506001600160e01b031982167f9a20483d00000000000000000000000000000000000000000000000000000000145b90505b919050565b6014546060906001600160a01b0316610d3a57600080fd5b610d42613963565b6014546040517fcb4799f20000000000000000000000000000000000000000000000000000000081526000916001600160a01b03169063cb4799f290610d8e9088908890600401613def565b60a06040518083038186803b158015610da657600080fd5b505afa158015610dba573d6000803e3d6000fd5b505050506040513d601f19601f82011682018060405250810190610dde9190613b42565b9092509050610ded828261296b565b95945050505050565b606060038054610e0590614038565b80601f0160208091040260200160405190810160405280929190818152602001828054610e3190614038565b8015610e7e5780601f10610e5357610100808354040283529160200191610e7e565b820191906000526020600020905b815481529060010190602001808311610e6157829003601f168201915b5050505050905090565b6000818152600560205260408120546001600160a01b0316610f065760405162461bcd60e51b815260206004820152602c60248201527f4552433732313a20617070726f76656420717565727920666f72206e6f6e657860448201526b34b9ba32b73a103a37b5b2b760a11b60648201526084015b60405180910390fd5b506000908152600760205260409020546001600160a01b031690565b600254600160a01b900460ff1615610f3957600080fd5b6000818152600d60205260409020546001600160a01b03163314610f5c57600080fd5b6000818152600f6020526040902080546001600160a01b0319166001600160a01b03841617905560405181906001600160a01b0384169033907f8c5be1e5ebec7d5bd14f71427d1e84f3dd0314c0f7b2291e5b200ac8c7c3b92590600090a45050565b6000546001600160a01b03163314610fd657600080fd5b6000819050806001600160a01b03166376190f8f6040518163ffffffff1660e01b815260040160206040518083038186803b15801561101457600080fd5b505afa158015611028573d6000803e3d6000fd5b505050506040513d601f19601f8201168201806040525081019061104c9190613baf565b61105557600080fd5b601380546001600160a01b0319166001600160a01b039290921691909117905550565b600c5460009061108a90600190613fb5565b905090565b600080821161109d57600080fd5b600c82815481106110be57634e487b7160e01b600052603260045260246000fd5b6000918252602090912060029091020160010154600160c01b900463ffffffff16151592915050565b600254600160a01b900460ff16156110fe57600080fd5b6001600160a01b03821661111157600080fd5b6001600160a01b03821630141561112757600080fd5b6000818152600f60205260409020546001600160a01b0316331461114a57600080fd5b6000818152600d60205260409020546001600160a01b0384811691161461117057600080fd5b61117b8383836129dd565b505050565b6000546001600160a01b0316331461119757600080fd5b6000819050806001600160a01b03166354c15b826040518163ffffffff1660e01b815260040160206040518083038186803b1580156111d557600080fd5b505afa1580156111e9573d6000803e3d6000fd5b505050506040513d601f19601f8201168201806040525081019061120d9190613baf565b61121657600080fd5b601780546001600160a01b0319166001600160a01b039290921691909117905550565b6000546001600160a01b0316331461125057600080fd5b6001600160a01b03811661126357600080fd5b600080546001600160a01b0319166001600160a01b0392909216919091179055565b6000546001600160a01b0316331461129c57600080fd5b6001600160a01b0381166112af57600080fd5b600280546001600160a01b0319166001600160a01b0392909216919091179055565b600254600160a01b900460ff16156112e857600080fd5b6000848152600d60205260409020546001600160a01b0316331461130b57600080fd5b6113148461108f565b1561131e57600080fd5b6012546000858152600f6020526040902080546001600160a01b0319166001600160a01b039092169190911790556012546040516313f5f20560e11b8152600481018690526024810185905260448101849052606481018390523360848201526001600160a01b03909116906327ebe40a9060a4015b600060405180830381600087803b1580156113ae57600080fd5b505af11580156113c2573d6000803e3d6000fd5b5050505050505050565b6000546001600160a01b031633146113e357600080fd5b600254600160a01b900460ff166113f957600080fd5b6012546001600160a01b031661140e57600080fd5b6013546001600160a01b031661142357600080fd5b6017546001600160a01b031661143857600080fd5b601a546001600160a01b03161561144e57600080fd5b611456612ada565b565b61117b838383604051806020016040528060008152506120a9565b600080831161148157600080fd5b6000821161148e57600080fd5b6000600c84815481106114b157634e487b7160e01b600052603260045260246000fd5b906000526020600020906002020190506000600c84815481106114e457634e487b7160e01b600052603260045260246000fd5b9060005260206000209060020201905061150082868387612b16565b8015610ded5750610ded8486612c96565b600254600160a01b900460ff161561152857600080fd5b6000848152600d60205260409020546001600160a01b0316331461154b57600080fd5b6115548461232f565b61155d57600080fd5b6013546000858152600f6020526040902080546001600160a01b0319166001600160a01b039092169190911790556013546040516313f5f20560e11b8152600481018690526024810185905260448101849052606481018390523360848201526001600160a01b03909116906327ebe40a9060a401611394565b6002546001600160a01b031633146115ee57600080fd5b601555565b600254600160a01b900460ff161561160a57600080fd5b6000818152600d60205260409020546001600160a01b0316331461162d57600080fd5b600090815260106020526040902080546001600160a01b0319166001600160a01b0392909216919091179055565b6000546001600160a01b0316331461167257600080fd5b6001600160a01b03811661168557600080fd5b600180546001600160a01b0319166001600160a01b0392909216919091179055565b6002546001600160a01b031633146116be57600080fd5b806001600160a01b0381166116db57506002546001600160a01b03165b611388601854106116eb57600080fd5b601880549060006116fb8361406d565b919050555061170f60008060008685612ceb565b50505050565b6002546001600160a01b031633148061173857506000546001600160a01b031633145b8061174d57506001546001600160a01b031633145b61175657600080fd5b60095463ffffffff16811061176a57600080fd5b600b55565b6001546001600160a01b0316331461178657600080fd5b601554601654479160009161179c906001613e56565b6117a69190613f96565b9050808211156117f1576001546001600160a01b03166108fc6117c98385613fb5565b6040518115909202916000818181858888f1935050505015801561117b573d6000803e3d6000fd5b5050565b6000818152600d60205260409020546001600160a01b031680610d1d57600080fd5b6000546001600160a01b0316331461182e57600080fd5b6000819050806001600160a01b03166385b861886040518163ffffffff1660e01b815260040160206040518083038186803b15801561186c57600080fd5b505afa158015611880573d6000803e3d6000fd5b505050506040513d601f19601f820116820180604052508101906118a49190613baf565b6118ad57600080fd5b601280546001600160a01b0319166001600160a01b039290921691909117905550565b6000546001600160a01b031633146118e757600080fd5b600254600160a01b900460ff166118fd57600080fd5b601a80546001600160a01b0319166001600160a01b0383169081179091556040519081527f450db8da6efbe9c22f2347f7c2021231df1fc58d3ae9a2fa75d39fa4461993059060200160405180910390a150565b6002546001600160a01b031633148061197457506000546001600160a01b031633145b8061198957506001546001600160a01b031633145b61199257600080fd5b600254600160a01b900460ff16156119a957600080fd5b6002805460ff60a01b1916600160a01b179055565b606060006119e1836001600160a01b03166000908152600e602052604090205490565b9050806119fe575050604080516000815260208101909152610d1d565b60008167ffffffffffffffff811115611a2757634e487b7160e01b600052604160045260246000fd5b604051908082528060200260200182016040528015611a50578160200160208202803683370190505b5090506000611a5d611078565b9050600060015b828111611ad9576000818152600d60205260409020546001600160a01b0388811691161415611ac75780848381518110611aae57634e487b7160e01b600052603260045260246000fd5b602090810291909101015281611ac38161406d565b9250505b80611ad18161406d565b915050611a64565b8395505050505050610d1d565b50919050565b600254600090600160a01b900460ff1615611b0657600080fd5b6000600c8381548110611b2957634e487b7160e01b600052603260045260246000fd5b60009182526020909120600290910201600181015490915067ffffffffffffffff16611b5457600080fd5b604080516101008101825282548152600183015467ffffffffffffffff8082166020840152600160401b8204169282019290925263ffffffff600160801b830481166060830152600160a01b830481166080830152600160c01b83041660a082015261ffff600160e01b8304811660c0830152600160f01b90920490911660e0820152611be09061302e565b611be957600080fd5b6001810154600c8054600160c01b90920463ffffffff16916000919083908110611c2357634e487b7160e01b600052603260045260246000fd5b6000918252602090912060018086015460029093029091019081015490925061ffff600160f01b9283900481169290910416811015611c6e57506001810154600160f01b900461ffff165b601754845483546001808801546000946001600160a01b031693630d9f5aed9390929091611cad9190600160401b900467ffffffffffffffff16613fcc565b6040516001600160e01b031960e086901b1681526004810193909352602483019190915267ffffffffffffffff166044820152606401602060405180830381600087803b158015611cfd57600080fd5b505af1158015611d11573d6000803e3d6000fd5b505050506040513d601f19601f82011682018060405250810190611d359190613c1b565b6000888152600d60205260408120546001888101549394506001600160a01b0390911692611d83918b91600160c01b900463ffffffff1690611d78908890613e39565b61ffff168686612ceb565b60018801805463ffffffff60c01b19169055601680549192506000611da783614021565b9091555050601554604051339180156108fc02916000818181858888f19350505050158015611dda573d6000803e3d6000fd5b5098975050505050505050565b6002546001600160a01b0316331480611e0a57506000546001600160a01b031633145b80611e1f57506001546001600160a01b031633145b611e2857600080fd5b601260009054906101000a90046001600160a01b03166001600160a01b0316635fd8c7106040518163ffffffff1660e01b8152600401600060405180830381600087803b158015611e7857600080fd5b505af1158015611e8c573d6000803e3d6000fd5b50505050601360009054906101000a90046001600160a01b03166001600160a01b0316635fd8c7106040518163ffffffff1660e01b8152600401600060405180830381600087803b158015611ee057600080fd5b505af115801561170f573d6000803e3d6000fd5b606060048054610e0590614038565b600981600e8110611f1357600080fd5b60089182820401919006600402915054906101000a900463ffffffff1681565b6001600160a01b038216331415611f8c5760405162461bcd60e51b815260206004820152601960248201527f4552433732313a20617070726f766520746f2063616c6c6572000000000000006044820152606401610efd565b3360008181526008602090815260408083206001600160a01b0387168085529252909120805460ff1916841515179055906001600160a01b03167f17307eab39ab6107e8899845ad3d59bd9653f200f220920489ca2b5937696c3183604051611ff9911515815260200190565b60405180910390a35050565b600254600160a01b900460ff161561201c57600080fd5b6001600160a01b03821661202f57600080fd5b6001600160a01b03821630141561204557600080fd5b6012546001600160a01b038381169116141561206057600080fd5b6013546001600160a01b038381169116141561207b57600080fd5b6000818152600d60205260409020546001600160a01b0316331461209e57600080fd5b6117f13383836129dd565b6120b3338361305e565b6121255760405162461bcd60e51b815260206004820152603160248201527f4552433732313a207472616e736665722063616c6c6572206973206e6f74206f60448201527f776e6572206e6f7220617070726f7665640000000000000000000000000000006064820152608401610efd565b61170f84848484613151565b6002546001600160a01b0316331461214857600080fd5b61afc86019541061215857600080fd5b600061216960008060008530612ceb565b6012546000828152600f6020526040902080546001600160a01b0319166001600160a01b0390921691909117905590506012546001600160a01b03166327ebe40a826121b36131da565b6040516001600160e01b031960e085901b168152600481019290925260248201526000604482015262015180606482015230608482015260a401600060405180830381600087803b15801561220757600080fd5b505af115801561221b573d6000803e3d6000fd5b5050601980549250905060006122308361406d565b91905055505050565b6000818152600560205260409020546060906001600160a01b03166122c65760405162461bcd60e51b815260206004820152602f60248201527f4552433732314d657461646174613a2055524920717565727920666f72206e6f60448201527f6e6578697374656e7420746f6b656e00000000000000000000000000000000006064820152608401610efd565b60006122dd60408051602081019091526000815290565b905060008151116122fd5760405180602001604052806000815250612328565b80612307846132bb565b604051602001612318929190613d2d565b6040516020818303038152906040525b9392505050565b600080821161233d57600080fd5b6000600c838154811061236057634e487b7160e01b600052603260045260246000fd5b60009182526020918290206040805161010081018252600290930290910180548352600181015467ffffffffffffffff80821695850195909552600160401b81049094169183019190915263ffffffff600160801b840481166060840152600160a01b840481166080840152600160c01b84041660a083015261ffff600160e01b8404811660c0840152600160f01b90930490921660e08201529091506123289061340a565b6000546001600160a01b0316331461241d57600080fd5b601480546001600160a01b0319166001600160a01b0392909216919091179055565b6000806000806000806000806000806000600c8c8154811061247157634e487b7160e01b600052603260045260246000fd5b906000526020600020906002020190508060010160189054906101000a900463ffffffff1663ffffffff16600014159a50438160010160089054906101000a900467ffffffffffffffff1667ffffffffffffffff161115995080600101601c9054906101000a900461ffff1661ffff1698508060010160089054906101000a900467ffffffffffffffff1667ffffffffffffffff1697508060010160189054906101000a900463ffffffff1663ffffffff1696508060010160009054906101000a900467ffffffffffffffff1667ffffffffffffffff1695508060010160109054906101000a900463ffffffff1663ffffffff1694508060010160149054906101000a900463ffffffff1663ffffffff16935080600101601e9054906101000a900461ffff1661ffff16925080600001549150509193959799509193959799565b600254600160a01b900460ff16156125c957600080fd5b6000818152600d60205260409020546001600160a01b031633146125ec57600080fd5b6125f58161232f565b6125fe57600080fd5b6126088183613439565b61261157600080fd5b6013546040517fc55d0f56000000000000000000000000000000000000000000000000000000008152600481018490526000916001600160a01b03169063c55d0f569060240160206040518083038186803b15801561266f57600080fd5b505afa158015612683573d6000803e3d6000fd5b505050506040513d601f19601f820116820180604052508101906126a79190613c1b565b9050601554816126b79190613e56565b3410156126c357600080fd5b6013546015546001600160a01b039091169063454a2ab3906126e59034613fb5565b856040518363ffffffff1660e01b815260040161270491815260200190565b6000604051808303818588803b15801561271d57600080fd5b505af1158015612731573d6000803e3d6000fd5b505050505061117b8263ffffffff168463ffffffff166134ac565b600254600160a01b900460ff161561276357600080fd5b60155434101561277257600080fd5b6000828152600d60205260409020546001600160a01b0316331461279557600080fd5b61279f8183612c96565b6127a857600080fd5b6000600c83815481106127cb57634e487b7160e01b600052603260045260246000fd5b60009182526020918290206040805161010081018252600290930290910180548352600181015467ffffffffffffffff80821695850195909552600160401b81049094169183019190915263ffffffff600160801b840481166060840152600160a01b840481166080840152600160c01b84041660a083015261ffff600160e01b8404811660c0840152600160f01b90930490921660e08201529091506128719061340a565b61287a57600080fd5b6000600c838154811061289d57634e487b7160e01b600052603260045260246000fd5b60009182526020918290206040805161010081018252600290930290910180548352600181015467ffffffffffffffff80821695850195909552600160401b81049094169183019190915263ffffffff600160801b840481166060840152600160a01b840481166080840152600160c01b84041660a083015261ffff600160e01b8404811660c0840152600160f01b90930490921660e08201529091506129439061340a565b61294c57600080fd5b61295882858386612b16565b61296157600080fd5b61170f84846134ac565b606060008267ffffffffffffffff81111561299657634e487b7160e01b600052604160045260246000fd5b6040519080825280601f01601f1916602001820160405280156129c0576020820181803683370190505b50905060208101846129d3828287613602565b5090949350505050565b6001600160a01b0382166000908152600e60205260408120805491612a018361406d565b90915550506000818152600d6020526040902080546001600160a01b0319166001600160a01b0384811691909117909155831615612a94576001600160a01b0383166000908152600e60205260408120805491612a5d83614021565b9091555050600081815260106020908152604080832080546001600160a01b0319908116909155600f909252909120805490911690555b80826001600160a01b0316846001600160a01b03167fddf252ad1be2c89b69c2b068fc378daa952ba7f163c4a11628f55a4df523b3ef60405160405180910390a4505050565b6000546001600160a01b03163314612af157600080fd5b600254600160a01b900460ff16612b0757600080fd5b6002805460ff60a01b19169055565b600081841415612b2857506000612c8e565b6001850154600160801b900463ffffffff16821480612b5757506001850154600160a01b900463ffffffff1682145b15612b6457506000612c8e565b6001830154600160801b900463ffffffff16841480612b9357506001830154600160a01b900463ffffffff1684145b15612ba057506000612c8e565b6001830154600160801b900463ffffffff161580612bcd57506001850154600160801b900463ffffffff16155b15612bda57506001612c8e565b60018581015490840154600160801b9182900463ffffffff90811692909104161480612c25575060018086015490840154600160801b900463ffffffff908116600160a01b90920416145b15612c3257506000612c8e565b60018086015490840154600160a01b900463ffffffff908116600160801b909204161480612c7d575060018581015490840154600160a01b9182900463ffffffff9081169290910416145b15612c8a57506000612c8e565b5060015b949350505050565b6000818152600d602052604080822054848352908220546001600160a01b03918216911680821480610ded57506000858152601060205260409020546001600160a01b03908116908316149250505092915050565b60008563ffffffff168614612cff57600080fd5b8463ffffffff168514612d1157600080fd5b8361ffff168414612d2157600080fd5b6000612d2e600286613e6e565b9050600d8161ffff161115612d415750600d5b604080516101008101825285815267ffffffffffffffff4216602080830191909152600082840181905263ffffffff808c1660608501528a16608084015260a0830181905261ffff80861660c0850152891660e08401528781526011909152919091205460ff1615612db257600080fd5b805160009081526011602090815260408083208054600160ff199091168117909155600c8054808301825581865286517fdf6966c971051c3d54ec59162606531493a51404a002842f56009d7e5cf4a8c7600290920291820155938601517fdf6966c971051c3d54ec59162606531493a51404a002842f56009d7e5cf4a8c89094018054938701516060880151608089015160a08a015160c08b015160e08c015167ffffffffffffffff9a8b167fffffffffffffffffffffffffffffffff00000000000000000000000000000000909a1699909917600160401b9a90951699909902939093177fffffffffffffffff0000000000000000ffffffffffffffffffffffffffffffff16600160801b63ffffffff938416027fffffffffffffffff00000000ffffffffffffffffffffffffffffffffffffffff1617600160a01b91831691909102177fffff000000000000ffffffffffffffffffffffffffffffffffffffffffffffff16600160c01b91909216027fffff0000ffffffffffffffffffffffffffffffffffffffffffffffffffffffff1617600160e01b61ffff96871602177dffffffffffffffffffffffffffffffffffffffffffffffffffffffffffff16600160f01b95909416949094029290921790925554612f939190613fb5565b90508063ffffffff168114612fa757600080fd5b6060808301516080808501518551604080516001600160a01b038c1681526020810188905263ffffffff9586169181019190915291909316938101939093528201527f0a5311bd2a6608f08a180df2ee7c5946819a649b204b554bb8e39825b2c50ad59060a00160405180910390a1613022600086836129dd565b98975050505050505050565b60008160a0015163ffffffff16600014158015610d1a5750506040015167ffffffffffffffff4381169116111590565b6000818152600560205260408120546001600160a01b03166130d75760405162461bcd60e51b815260206004820152602c60248201527f4552433732313a206f70657261746f7220717565727920666f72206e6f6e657860448201526b34b9ba32b73a103a37b5b2b760a11b6064820152608401610efd565b60006130e283613673565b9050806001600160a01b0316846001600160a01b0316148061311d5750836001600160a01b031661311284610e88565b6001600160a01b0316145b80612c8e57506001600160a01b0380821660009081526008602090815260408083209388168352929052205460ff16612c8e565b61315c8484846129dd565b613168848484846136fe565b61170f5760405162461bcd60e51b815260206004820152603260248201527f4552433732313a207472616e7366657220746f206e6f6e20455243373231526560448201527f63656976657220696d706c656d656e74657200000000000000000000000000006064820152608401610efd565b600080601260009054906101000a90046001600160a01b03166001600160a01b031663eac9d94c6040518163ffffffff1660e01b815260040160206040518083038186803b15801561322b57600080fd5b505afa15801561323f573d6000803e3d6000fd5b505050506040513d601f19601f820116820180604052508101906132639190613c1b565b9050806fffffffffffffffffffffffffffffffff16811461328357600080fd5b6000613290600283613e6e565b61329a9083613e56565b9050662386f26fc100008110156132b55750662386f26fc100005b91505090565b6060816132fc575060408051808201909152600181527f30000000000000000000000000000000000000000000000000000000000000006020820152610d1d565b8160005b811561332657806133108161406d565b915061331f9050600a83613e6e565b9150613300565b60008167ffffffffffffffff81111561334f57634e487b7160e01b600052604160045260246000fd5b6040519080825280601f01601f191660200182016040528015613379576020820181803683370190505b5090505b8415612c8e5761338e600183613fb5565b915061339b600a86614088565b6133a6906030613e56565b60f81b8183815181106133c957634e487b7160e01b600052603260045260246000fd5b60200101907effffffffffffffffffffffffffffffffffffffffffffffffffffffffffffff1916908160001a905350613403600a86613e6e565b945061337d565b60008160a0015163ffffffff166000148015610d1a5750506040015167ffffffffffffffff4381169116111590565b600080600c848154811061345d57634e487b7160e01b600052603260045260246000fd5b906000526020600020906002020190506000600c848154811061349057634e487b7160e01b600052603260045260246000fd5b90600052602060002090600202019050610ded82868387612b16565b6000600c82815481106134cf57634e487b7160e01b600052603260045260246000fd5b906000526020600020906002020190506000600c848154811061350257634e487b7160e01b600052603260045260246000fd5b6000918252602090912060029091020160018101805463ffffffff60c01b1916600160c01b63ffffffff871602179055905061353d8261385e565b6135468161385e565b60008481526010602052604080822080546001600160a01b03199081169091558583529082208054909116905560168054916135818361406d565b90915550506000848152600d602090815260409182902054600184015483516001600160a01b039092168252918101879052918201859052600160401b900467ffffffffffffffff1660608201527f241ea03ca20251805084d27d4440371c34a0b85ff108f6bb5611248f73818b809060800160405180910390a150505050565b6020811061363a5781518352613619602084613e56565b9250613626602083613e56565b9150613633602082613fb5565b9050613602565b60006001613649836020613fb5565b61365590610100613ec8565b61365f9190613fb5565b925184518416931916929092179092525050565b6000818152600560205260408120546001600160a01b031680610d1a5760405162461bcd60e51b815260206004820152602960248201527f4552433732313a206f776e657220717565727920666f72206e6f6e657869737460448201527f656e7420746f6b656e00000000000000000000000000000000000000000000006064820152608401610efd565b60006001600160a01b0384163b1561385657604051630a85bd0160e11b81526001600160a01b0385169063150b7a0290613742903390899088908890600401613d5c565b602060405180830381600087803b15801561375c57600080fd5b505af192505050801561378c575060408051601f3d908101601f1916820190925261378991810190613be7565b60015b61383c573d8080156137ba576040519150601f19603f3d011682016040523d82523d6000602084013e6137bf565b606091505b5080516138345760405162461bcd60e51b815260206004820152603260248201527f4552433732313a207472616e7366657220746f206e6f6e20455243373231526560448201527f63656976657220696d706c656d656e74657200000000000000000000000000006064820152608401610efd565b805181602001fd5b6001600160e01b031916630a85bd0160e11b149050612c8e565b506001612c8e565b600b546001820154439190600990600160e01b900461ffff16600e811061389557634e487b7160e01b600052603260045260246000fd5b600891828204019190066004029054906101000a900463ffffffff1663ffffffff166138c19190613e6e565b6138cb9190613e56565b6001820180547fffffffffffffffffffffffffffffffff0000000000000000ffffffffffffffff16600160401b67ffffffffffffffff93909316929092029190911790819055600d600160e01b90910461ffff1610156139605760018181018054601c90613945908490600160e01b900461ffff16613e39565b92506101000a81548161ffff021916908361ffff1602179055505b50565b60405180608001604052806004906020820280368337509192915050565b600067ffffffffffffffff83111561399b5761399b6140c8565b6139ae601f8401601f1916602001613e08565b90508281528383830111156139c257600080fd5b828260208301376000602084830101529392505050565b6000602082840312156139ea578081fd5b8135612328816140de565b60008060408385031215613a07578081fd5b8235613a12816140de565b91506020830135613a22816140de565b809150509250929050565b600080600060608486031215613a41578081fd5b8335613a4c816140de565b92506020840135613a5c816140de565b929592945050506040919091013590565b60008060008060808587031215613a82578081fd5b8435613a8d816140de565b93506020850135613a9d816140de565b925060408501359150606085013567ffffffffffffffff811115613abf578182fd5b8501601f81018713613acf578182fd5b613ade87823560208401613981565b91505092959194509250565b60008060408385031215613afc578182fd5b8235613b07816140de565b91506020830135613a22816140f3565b60008060408385031215613b29578182fd5b8235613b34816140de565b946020939093013593505050565b60008060a08385031215613b54578182fd5b83601f840112613b62578182fd5b613b6c6080613e08565b80846080860187811115613b7e578586fd5b855b6004811015613b9f578251855260209485019490920191600101613b80565b5051919791965090945050505050565b600060208284031215613bc0578081fd5b8151612328816140f3565b600060208284031215613bdc578081fd5b813561232881614101565b600060208284031215613bf8578081fd5b815161232881614101565b600060208284031215613c14578081fd5b5035919050565b600060208284031215613c2c578081fd5b5051919050565b60008060408385031215613c45578182fd5b823591506020830135613a22816140de565b60008060408385031215613c69578182fd5b82359150602083013567ffffffffffffffff811115613c86578182fd5b8301601f81018513613c96578182fd5b613ca585823560208401613981565b9150509250929050565b60008060408385031215613cc1578182fd5b50508035926020909101359150565b60008060008060808587031215613ce5578182fd5b5050823594602084013594506040840135936060013592509050565b60008151808452613d19816020860160208601613ff5565b601f01601f19169290920160200192915050565b60008351613d3f818460208801613ff5565b835190830190613d53818360208801613ff5565b01949350505050565b60006001600160a01b03808716835280861660208401525083604083015260806060830152613d8e6080830184613d01565b9695505050505050565b6020808252825182820181905260009190848201906040850190845b81811015613dd057835183529284019291840191600101613db4565b50909695505050505050565b6000602082526123286020830184613d01565b600083825260406020830152612c8e6040830184613d01565b604051601f8201601f1916810167ffffffffffffffff81118282101715613e3157613e316140c8565b604052919050565b600061ffff808316818516808303821115613d5357613d5361409c565b60008219821115613e6957613e6961409c565b500190565b600082613e7d57613e7d6140b2565b500490565b80825b6001808611613e945750613ebf565b818704821115613ea657613ea661409c565b80861615613eb357918102915b9490941c938002613e85565b94509492505050565b60006123286000198484600082613ee157506001612328565b81613eee57506000612328565b8160018114613f045760028114613f0e57613f3b565b6001915050612328565b60ff841115613f1f57613f1f61409c565b6001841b915084821115613f3557613f3561409c565b50612328565b5060208310610133831016604e8410600b8410161715613f6e575081810a83811115613f6957613f6961409c565b612328565b613f7b8484846001613e82565b808604821115613f8d57613f8d61409c565b02949350505050565b6000816000190483118215151615613fb057613fb061409c565b500290565b600082821015613fc757613fc761409c565b500390565b600067ffffffffffffffff83811690831681811015613fed57613fed61409c565b039392505050565b60005b83811015614010578181015183820152602001613ff8565b8381111561170f5750506000910152565b6000816140305761403061409c565b506000190190565b600181811c9082168061404c57607f821691505b60208210811415611ae657634e487b7160e01b600052602260045260246000fd5b60006000198214156140815761408161409c565b5060010190565b600082614097576140976140b2565b500690565b634e487b7160e01b600052601160045260246000fd5b634e487b7160e01b600052601260045260246000fd5b634e487b7160e01b600052604160045260246000fd5b6001600160a01b038116811461396057600080fd5b801515811461396057600080fd5b6001600160e01b03198116811461396057600080fdfea2646970667358221220a3c7174afaeb0991f4cb036a8b21db686ac4820df329fee20c79600bda4af63a64736f6c63430008030033",
  "immutableReferences": {},
  "source": "// SPDX-License-Identifier: UNLICENSED\npragma solidity ^0.8.0;\n\nimport \"./KittyMinting.sol\";\n\n/// @title CryptoKitties: Collectible, breedable, and oh-so-adorable cats on the Ethereum blockchain.\n/// @author Axiom Zen (https://www.axiomzen.co)\n/// @dev The main CryptoKitties contract, keeps track of kittens so they don't wander around and get lost.\ncontract KittyCore is KittyMinting {\n\n    // This is the main CryptoKitties contract. In order to keep our code seperated into logical sections,\n    // we've broken it up in two ways. First, we have several seperately-instantiated sibling contracts\n    // that handle auctions and our super-top-secret genetic combination algorithm. The auctions are\n    // seperate since their logic is somewhat complex and there's always a risk of subtle bugs. By keeping\n    // them in their own contracts, we can upgrade them without disrupting the main contract that tracks\n    // kitty ownership. The genetic combination algorithm is kept seperate so we can open-source all of\n    // the rest of our code without making it _too_ easy for folks to figure out how the genetics work.\n    // Don't worry, I'm sure someone will reverse engineer it soon enough!\n    //\n    // Secondly, we break the core contract into multiple files using inheritence, one for each major\n    // facet of functionality of CK. This allows us to keep related code bundled together while still\n    // avoiding a single giant file with everything in it. The breakdown is as follows:\n    //\n    //      - KittyBase: This is where we define the most fundamental code shared throughout the core\n    //             functionality. This includes our main data storage, constants and data types, plus\n    //             internal functions for managing these items.\n    //\n    //      - KittyAccessControl: This contract manages the various addresses and constraints for operations\n    //             that can be executed only by specific roles. Namely CEO, CFO and COO.\n    //\n    //      - KittyOwnership: This provides the methods required for basic non-fungible token\n    //             transactions, following the draft ERC-721 spec (https://github.com/ethereum/EIPs/issues/721).\n    //\n    //      - KittyBreeding: This file contains the methods necessary to breed cats together, including\n    //             keeping track of siring offers, and relies on an external genetic combination contract.\n    //\n    //      - KittyAuctions: Here we have the public methods for auctioning or bidding on cats or siring\n    //             services. The actual auction functionality is handled in two sibling contracts (one\n    //             for sales and one for siring), while auction creation and bidding is mostly mediated\n    //             through this facet of the core contract.\n    //\n    //      - KittyMinting: This final facet contains the functionality we use for creating new gen0 cats.\n    //             We can make up to 5000 \"promo\" cats that can be given away (especially important when\n    //             the community is new), and all others can only be created and then immediately put up\n    //             for auction via an algorithmically determined starting price. Regardless of how they\n    //             are created, there is a hard limit of 50k gen0 cats. After that, it's all up to the\n    //             community to breed, breed, breed!\n\n    // Set in case the core contract is broken and an upgrade is required\n    address public newContractAddress;\n\n    /// @notice Creates the main CryptoKitties smart contract instance.\n    constructor () ERC721(\"CryptoKitties\", \"CK\") {\n        // Starts paused.\n        paused = true;\n\n        // the creator of the contract is the initial CEO\n        ceoAddress = payable(msg.sender);\n\n        // the creator of the contract is also the initial COO\n        cooAddress = payable(msg.sender);\n\n        // start with the mythical kitten 0 - so we don't have generation-0 parent issues\n        _createKitty(0, 0, 0, type(uint256).max, address(0));\n    }\n\n    /// @dev Used to mark the smart contract as upgraded, in case there is a serious\n    ///  breaking bug. This method does nothing but keep track of the new contract and\n    ///  emit a message indicating that the new address is set. It's up to clients of this\n    ///  contract to update to the new contract address in that case. (This contract will\n    ///  be paused indefinitely if such an upgrade takes place.)\n    /// @param _v2Address new address\n    function setNewAddress(address _v2Address) external onlyCEO whenPaused {\n        // See README.md for updgrade plan\n        newContractAddress = _v2Address;\n        ContractUpgrade(_v2Address);\n    }\n\n    /// @notice No tipping!\n    /// @dev Reject all Ether from being sent here, unless it's from one of the\n    ///  two auction contracts. (Hopefully, we can prevent user accidents.)\n    receive() external payable {\n        require(\n            msg.sender == address(saleAuction) ||\n            msg.sender == address(siringAuction)\n        );\n    }\n\n    /// @notice Returns all the relevant information about a specific kitty.\n    /// @param _id The ID of the kitty of interest.\n    function getKitty(uint256 _id)\n        external\n        view\n        returns (\n        bool isGestating,\n        bool isReady,\n        uint256 cooldownIndex,\n        uint256 nextActionAt,\n        uint256 siringWithId,\n        uint256 birthTime,\n        uint256 matronId,\n        uint256 sireId,\n        uint256 generation,\n        uint256 genes\n    ) {\n        Kitty storage kit = kitties[_id];\n\n        // if this variable is 0 then it's not gestating\n        isGestating = (kit.siringWithId != 0);\n        isReady = (kit.cooldownEndBlock <= block.number);\n        cooldownIndex = uint256(kit.cooldownIndex);\n        nextActionAt = uint256(kit.cooldownEndBlock);\n        siringWithId = uint256(kit.siringWithId);\n        birthTime = uint256(kit.birthTime);\n        matronId = uint256(kit.matronId);\n        sireId = uint256(kit.sireId);\n        generation = uint256(kit.generation);\n        genes = kit.genes;\n    }\n\n    /// @dev Override unpause so it requires all external contract addresses\n    ///  to be set before contract can be unpaused. Also, we can't have\n    ///  newContractAddress set either, because then the contract was upgraded.\n    /// @notice This is public rather than external so we can call super.unpause\n    ///  without using an expensive CALL.\n    function unpause() override public onlyCEO whenPaused {\n        require(address(saleAuction) != address(0));\n        require(address(siringAuction) != address(0));\n        require(address(geneScience) != address(0));\n        require(newContractAddress == address(0));\n\n        // Actually unpause the contract.\n        super.unpause();\n    }\n\n    // @dev Allows the CFO to capture the balance available to the contract.\n    function withdrawBalance() external onlyCFO {\n        uint256 balance = address(this).balance;\n        // Subtract all the currently pregnant kittens we have, plus 1 of margin.\n        uint256 subtractFees = (pregnantKitties + 1) * autoBirthFee;\n\n        if (balance > subtractFees) {\n            // cfoAddress.send(balance - subtractFees);\n            cfoAddress.transfer(balance - subtractFees);\n        }\n    }\n}",
  "sourcePath": "/Users/ivanmontiel/Desktop/workspace/nft-tutorial/nft/packages/nfts/contracts/KittyCore.sol",
  "compiler": {
    "name": "solc",
    "version": "0.8.3+commit.8d00100c.Emscripten.clang"
  },
  "schemaVersion": "3.4.3",
  "updatedAt": "2021-09-04T05:48:26.962Z",
  "networkType": "ethereum",
  "devdoc": {
    "author": "Axiom Zen (https://www.axiomzen.co)",
    "details": "The main CryptoKitties contract, keeps track of kittens so they don't wander around and get lost.",
    "kind": "dev",
    "methods": {
      "approve(address,uint256)": {
        "details": "Required for ERC-721 compliance.",
        "params": {
          "_to": "The address to be granted transfer approval. Pass address(0) to  clear all approvals.",
          "_tokenId": "The ID of the Kitty that can be transferred if this call succeeds."
        }
      },
      "approveSiring(address,uint256)": {
        "params": {
          "_addr": "The address that will be able to sire with your Kitty. Set to  address(0) to clear all siring approvals for this Kitty.",
          "_sireId": "A Kitty that you own that _addr will now be able to sire with."
        }
      },
      "balanceOf(address)": {
        "details": "Required for ERC-721 compliance",
        "params": {
          "_owner": "The owner address to check."
        }
      },
      "bidOnSiringAuction(uint256,uint256)": {
        "details": "Completes a siring auction by bidding.  Immediately breeds the winning matron with the sire on auction.",
        "params": {
          "_matronId": "- ID of the matron owned by the bidder.",
          "_sireId": "- ID of the sire on auction."
        }
      },
      "breedWithAuto(uint256,uint256)": {
        "params": {
          "_matronId": "The ID of the Kitty acting as matron (will end up pregnant if successful)",
          "_sireId": "The ID of the Kitty acting as sire (will begin its siring cooldown if successful)"
        }
      },
      "canBreedWith(uint256,uint256)": {
        "params": {
          "_matronId": "The ID of the proposed matron.",
          "_sireId": "The ID of the proposed sire."
        }
      },
      "createGen0Auction(uint256)": {
        "details": "Creates a new gen0 kitty with the given genes and  creates an auction for it."
      },
      "createPromoKitty(uint256,address)": {
        "details": "we can create promo kittens, up to a limit. Only callable by COO",
        "params": {
          "_genes": "the encoded genes of the kitten to be created, any value is accepted",
          "_owner": "the future owner of the created kittens. Default to contract COO"
        }
      },
      "createSaleAuction(uint256,uint256,uint256,uint256)": {
        "details": "Put a kitty up for auction.  Does some ownership trickery to create auctions in one tx."
      },
      "createSiringAuction(uint256,uint256,uint256,uint256)": {
        "details": "Put a kitty up for auction to be sire.  Performs checks to ensure the kitty can be sired, then  delegates to reverse auction."
      },
      "getApproved(uint256)": {
        "details": "See {IERC721-getApproved}."
      },
      "getKitty(uint256)": {
        "params": {
          "_id": "The ID of the kitty of interest."
        }
      },
      "giveBirth(uint256)": {
        "details": "Looks at a given Kitty and, if pregnant and if the gestation period has passed,  combines the genes of the two parents to create a new kitten. The new Kitty is assigned  to the current owner of the matron. Upon successful completion, both the matron and the  new kitten will be ready to breed again. Note that anyone can call this function (if they  are willing to pay the gas!), but the new kitten always goes to the mother's owner.",
        "params": {
          "_matronId": "A Kitty ready to give birth."
        },
        "returns": {
          "_0": "The Kitty ID of the new kitten."
        }
      },
      "isApprovedForAll(address,address)": {
        "details": "See {IERC721-isApprovedForAll}."
      },
      "isPregnant(uint256)": {
        "details": "Checks whether a kitty is currently pregnant.",
        "params": {
          "_kittyId": "reference the id of the kitten, any user can inquire about it"
        }
      },
      "isReadyToBreed(uint256)": {
        "params": {
          "_kittyId": "reference the id of the kitten, any user can inquire about it"
        }
      },
      "name()": {
        "details": "See {IERC721Metadata-name}."
      },
      "ownerOf(uint256)": {
        "details": "Required for ERC-721 compliance."
      },
      "pause()": {
        "details": "Called by any \"C-level\" role to pause the contract. Used only when  a bug or exploit is detected and we need to limit damage."
      },
      "safeTransferFrom(address,address,uint256)": {
        "details": "See {IERC721-safeTransferFrom}."
      },
      "safeTransferFrom(address,address,uint256,bytes)": {
        "details": "See {IERC721-safeTransferFrom}."
      },
      "setApprovalForAll(address,bool)": {
        "details": "See {IERC721-setApprovalForAll}."
      },
      "setAutoBirthFee(uint256)": {
        "details": "Updates the minimum payment required for calling giveBirthAuto(). Can only  be called by the COO address. (This fee is used to offset the gas cost incurred  by the autobirth daemon)."
      },
      "setCEO(address)": {
        "details": "Assigns a new address to act as the CEO. Only available to the current CEO.",
        "params": {
          "_newCEO": "The address of the new CEO"
        }
      },
      "setCFO(address)": {
        "details": "Assigns a new address to act as the CFO. Only available to the current CEO.",
        "params": {
          "_newCFO": "The address of the new CFO"
        }
      },
      "setCOO(address)": {
        "details": "Assigns a new address to act as the COO. Only available to the current CEO.",
        "params": {
          "_newCOO": "The address of the new COO"
        }
      },
      "setGeneScienceAddress(address)": {
        "details": "Update the address of the genetic contract, can only be called by the CEO.",
        "params": {
          "_address": "An address of a GeneScience contract instance to be used from this point forward."
        }
      },
      "setMetadataAddress(address)": {
        "details": "Set the address of the sibling contract that tracks metadata.  CEO only."
      },
      "setNewAddress(address)": {
        "details": "Used to mark the smart contract as upgraded, in case there is a serious  breaking bug. This method does nothing but keep track of the new contract and  emit a message indicating that the new address is set. It's up to clients of this  contract to update to the new contract address in that case. (This contract will  be paused indefinitely if such an upgrade takes place.)",
        "params": {
          "_v2Address": "new address"
        }
      },
      "setSaleAuctionAddress(address)": {
        "details": "Sets the reference to the sale auction.",
        "params": {
          "_address": "- Address of sale contract."
        }
      },
      "setSiringAuctionAddress(address)": {
        "details": "Sets the reference to the siring auction.",
        "params": {
          "_address": "- Address of siring contract."
        }
      },
      "symbol()": {
        "details": "See {IERC721Metadata-symbol}."
      },
      "tokenMetadata(uint256,string)": {
        "params": {
          "_tokenId": "The ID number of the Kitty whose metadata should be returned."
        }
      },
      "tokenURI(uint256)": {
        "details": "See {IERC721Metadata-tokenURI}."
      },
      "tokensOfOwner(address)": {
        "details": "This method MUST NEVER be called by smart contract code. First, it's fairly  expensive (it walks the entire Kitty array looking for cats belonging to owner),  but it also returns a dynamic array, which is only supported for web3 calls, and  not contract-to-contract calls.",
        "params": {
          "_owner": "The owner whose Kitties we are interested in."
        }
      },
      "totalSupply()": {
        "details": "Required for ERC-721 compliance."
      },
      "transfer(address,uint256)": {
        "details": "Required for ERC-721 compliance.",
        "params": {
          "_to": "The address of the recipient, can be a user or contract.",
          "_tokenId": "The ID of the Kitty to transfer."
        }
      },
      "transferFrom(address,address,uint256)": {
        "details": "Required for ERC-721 compliance.",
        "params": {
          "_from": "The address that owns the Kitty to be transfered.",
          "_to": "The address that should take ownership of the Kitty. Can be any address,  including the caller.",
          "_tokenId": "The ID of the Kitty to be transferred."
        }
      },
      "unpause()": {
        "details": "Override unpause so it requires all external contract addresses  to be set before contract can be unpaused. Also, we can't have  newContractAddress set either, because then the contract was upgraded."
      },
      "withdrawAuctionBalances()": {
        "details": "Transfers the balance of the sale auction contract to the KittyCore contract. We use two-step withdrawal to prevent two transfer calls in the auction bid function."
      }
    },
    "title": "CryptoKitties: Collectible, breedable, and oh-so-adorable cats on the Ethereum blockchain.",
    "version": 1
  },
  "userdoc": {
    "kind": "user",
    "methods": {
      "approve(address,uint256)": {
        "notice": "Grant another address the right to transfer a specific Kitty via  transferFrom(). This is the preferred flow for transfering NFTs to contracts."
      },
      "approveSiring(address,uint256)": {
        "notice": "Grants approval to another user to sire with one of your Kitties."
      },
      "autoBirthFee()": {
        "notice": "The minimum payment required to use breedWithAuto(). This fee goes towards  the gas cost paid by whatever calls giveBirth(), and can be dynamically updated by  the COO role as the gas price changes."
      },
      "balanceOf(address)": {
        "notice": "Returns the number of Kitties owned by a specific address."
      },
      "breedWithAuto(uint256,uint256)": {
        "notice": "Breed a Kitty you own (as matron) with a sire that you own, or for which you  have previously been given Siring approval. Will either make your cat pregnant, or will  fail entirely. Requires a pre-payment of the fee given out to the first caller of giveBirth()"
      },
      "canBreedWith(uint256,uint256)": {
        "notice": "Checks to see if two cats can breed together, including checks for  ownership and siring approvals. Does NOT check that both cats are ready for  breeding (i.e. breedWith could still fail until the cooldowns are finished)."
      },
      "constructor": {
        "notice": "Creates the main CryptoKitties smart contract instance."
      },
      "erc721Metadata()": {
        "notice": "Name and symbol of the non fungible token, as defined in ERC721."
      },
      "getKitty(uint256)": {
        "notice": "Returns all the relevant information about a specific kitty."
      },
      "giveBirth(uint256)": {
        "notice": "Have a pregnant Kitty give birth!"
      },
      "isReadyToBreed(uint256)": {
        "notice": "Checks that a given kitten is able to breed (i.e. it is not pregnant or  in the middle of a siring cooldown)."
      },
      "ownerOf(uint256)": {
        "notice": "Returns the address currently assigned ownership of a given Kitty."
      },
      "supportsInterface(bytes4)": {
        "notice": "Introspection interface as per ERC-165 (https://github.com/ethereum/EIPs/issues/165).  Returns true for any standardized interfaces implemented by this contract. We implement  ERC-165 (obviously!) and ERC-721."
      },
      "tokenMetadata(uint256,string)": {
        "notice": "Returns a URI pointing to a metadata package for this token conforming to  ERC-721 (https://github.com/ethereum/EIPs/issues/721)"
      },
      "tokensOfOwner(address)": {
        "notice": "Returns a list of all Kitty IDs assigned to an address."
      },
      "totalSupply()": {
        "notice": "Returns the total number of Kitties currently in existence."
      },
      "transfer(address,uint256)": {
        "notice": "Transfers a Kitty to another address. If transferring to a smart  contract be VERY CAREFUL to ensure that it is aware of ERC-721 (or  CryptoKitties specifically) or your Kitty may be lost forever. Seriously."
      },
      "transferFrom(address,address,uint256)": {
        "notice": "Transfer a Kitty owned by another address, for which the calling address  has previously been granted transfer approval by the owner."
      },
      "unpause()": {
        "notice": "This is public rather than external so we can call super.unpause  without using an expensive CALL."
      }
    },
    "version": 1
  }
}