{
  "contractName": "SaleClockAuction",
  "abi": [
    {
      "inputs": [
        {
          "internalType": "address",
          "name": "_nftAddr",
          "type": "address"
        },
        {
          "internalType": "uint256",
          "name": "_cut",
          "type": "uint256"
        }
      ],
      "stateMutability": "nonpayable",
      "type": "constructor"
    },
    {
      "anonymous": false,
      "inputs": [
        {
          "indexed": false,
          "internalType": "uint256",
          "name": "tokenId",
          "type": "uint256"
        }
      ],
      "name": "AuctionCancelled",
      "type": "event"
    },
    {
      "anonymous": false,
      "inputs": [
        {
          "indexed": false,
          "internalType": "uint256",
          "name": "tokenId",
          "type": "uint256"
        },
        {
          "indexed": false,
          "internalType": "uint256",
          "name": "startingPrice",
          "type": "uint256"
        },
        {
          "indexed": false,
          "internalType": "uint256",
          "name": "endingPrice",
          "type": "uint256"
        },
        {
          "indexed": false,
          "internalType": "uint256",
          "name": "duration",
          "type": "uint256"
        }
      ],
      "name": "AuctionCreated",
      "type": "event"
    },
    {
      "anonymous": false,
      "inputs": [
        {
          "indexed": false,
          "internalType": "uint256",
          "name": "tokenId",
          "type": "uint256"
        },
        {
          "indexed": false,
          "internalType": "uint256",
          "name": "totalPrice",
          "type": "uint256"
        },
        {
          "indexed": false,
          "internalType": "address",
          "name": "winner",
          "type": "address"
        }
      ],
      "name": "AuctionSuccessful",
      "type": "event"
    },
    {
      "anonymous": false,
      "inputs": [],
      "name": "Pause",
      "type": "event"
    },
    {
      "anonymous": false,
      "inputs": [],
      "name": "Unpause",
      "type": "event"
    },
    {
      "inputs": [
        {
          "internalType": "uint256",
          "name": "_tokenId",
          "type": "uint256"
        }
      ],
      "name": "cancelAuction",
      "outputs": [],
      "stateMutability": "nonpayable",
      "type": "function"
    },
    {
      "inputs": [
        {
          "internalType": "uint256",
          "name": "_tokenId",
          "type": "uint256"
        }
      ],
      "name": "cancelAuctionWhenPaused",
      "outputs": [],
      "stateMutability": "nonpayable",
      "type": "function"
    },
    {
      "inputs": [],
      "name": "gen0SaleCount",
      "outputs": [
        {
          "internalType": "uint256",
          "name": "",
          "type": "uint256"
        }
      ],
      "stateMutability": "view",
      "type": "function"
    },
    {
      "inputs": [
        {
          "internalType": "uint256",
          "name": "_tokenId",
          "type": "uint256"
        }
      ],
      "name": "getAuction",
      "outputs": [
        {
          "internalType": "address",
          "name": "seller",
          "type": "address"
        },
        {
          "internalType": "uint256",
          "name": "startingPrice",
          "type": "uint256"
        },
        {
          "internalType": "uint256",
          "name": "endingPrice",
          "type": "uint256"
        },
        {
          "internalType": "uint256",
          "name": "duration",
          "type": "uint256"
        },
        {
          "internalType": "uint256",
          "name": "startedAt",
          "type": "uint256"
        }
      ],
      "stateMutability": "view",
      "type": "function"
    },
    {
      "inputs": [
        {
          "internalType": "uint256",
          "name": "_tokenId",
          "type": "uint256"
        }
      ],
      "name": "getCurrentPrice",
      "outputs": [
        {
          "internalType": "uint256",
          "name": "",
          "type": "uint256"
        }
      ],
      "stateMutability": "view",
      "type": "function"
    },
    {
      "inputs": [],
      "name": "isSaleClockAuction",
      "outputs": [
        {
          "internalType": "bool",
          "name": "",
          "type": "bool"
        }
      ],
      "stateMutability": "view",
      "type": "function"
    },
    {
      "inputs": [
        {
          "internalType": "uint256",
          "name": "",
          "type": "uint256"
        }
      ],
      "name": "lastGen0SalePrices",
      "outputs": [
        {
          "internalType": "uint256",
          "name": "",
          "type": "uint256"
        }
      ],
      "stateMutability": "view",
      "type": "function"
    },
    {
      "inputs": [],
      "name": "nonFungibleContract",
      "outputs": [
        {
          "internalType": "contract ERC721",
          "name": "",
          "type": "address"
        }
      ],
      "stateMutability": "view",
      "type": "function"
    },
    {
      "inputs": [],
      "name": "owner",
      "outputs": [
        {
          "internalType": "address",
          "name": "",
          "type": "address"
        }
      ],
      "stateMutability": "view",
      "type": "function"
    },
    {
      "inputs": [],
      "name": "ownerCut",
      "outputs": [
        {
          "internalType": "uint256",
          "name": "",
          "type": "uint256"
        }
      ],
      "stateMutability": "view",
      "type": "function"
    },
    {
      "inputs": [],
      "name": "pause",
      "outputs": [
        {
          "internalType": "bool",
          "name": "",
          "type": "bool"
        }
      ],
      "stateMutability": "nonpayable",
      "type": "function"
    },
    {
      "inputs": [],
      "name": "paused",
      "outputs": [
        {
          "internalType": "bool",
          "name": "",
          "type": "bool"
        }
      ],
      "stateMutability": "view",
      "type": "function"
    },
    {
      "inputs": [
        {
          "internalType": "address",
          "name": "newOwner",
          "type": "address"
        }
      ],
      "name": "transferOwnership",
      "outputs": [],
      "stateMutability": "nonpayable",
      "type": "function"
    },
    {
      "inputs": [],
      "name": "unpause",
      "outputs": [
        {
          "internalType": "bool",
          "name": "",
          "type": "bool"
        }
      ],
      "stateMutability": "nonpayable",
      "type": "function"
    },
    {
      "inputs": [],
      "name": "withdrawBalance",
      "outputs": [],
      "stateMutability": "nonpayable",
      "type": "function"
    },
    {
      "inputs": [
        {
          "internalType": "uint256",
          "name": "_tokenId",
          "type": "uint256"
        },
        {
          "internalType": "uint256",
          "name": "_startingPrice",
          "type": "uint256"
        },
        {
          "internalType": "uint256",
          "name": "_endingPrice",
          "type": "uint256"
        },
        {
          "internalType": "uint256",
          "name": "_duration",
          "type": "uint256"
        },
        {
          "internalType": "address payable",
          "name": "_seller",
          "type": "address"
        }
      ],
      "name": "createAuction",
      "outputs": [],
      "stateMutability": "nonpayable",
      "type": "function"
    },
    {
      "inputs": [
        {
          "internalType": "uint256",
          "name": "_tokenId",
          "type": "uint256"
        }
      ],
      "name": "bid",
      "outputs": [],
      "stateMutability": "payable",
      "type": "function"
    },
    {
      "inputs": [],
      "name": "averageGen0SalePrice",
      "outputs": [
        {
          "internalType": "uint256",
          "name": "",
          "type": "uint256"
        }
      ],
      "stateMutability": "view",
      "type": "function"
    }
  ],
  "bytecode": "0x60806040526000805460ff60a01b191690556004805460ff1916600117905534801561002a57600080fd5b50604051620011f0380380620011f083398101604081905261004b91610126565b600080546001600160a01b03191633179055818161271081111561006e57600080fd5b60028190556040516301ffc9a760e01b8152639a20483d60e01b600482015282906001600160a01b038216906301ffc9a79060240160206040518083038186803b1580156100bb57600080fd5b505afa1580156100cf573d6000803e3d6000fd5b505050506040513d601f19601f820116820180604052508101906100f3919061015e565b6100fc57600080fd5b600180546001600160a01b0319166001600160a01b03929092169190911790555061018592505050565b60008060408385031215610138578182fd5b82516001600160a01b038116811461014e578283fd5b6020939093015192949293505050565b60006020828403121561016f578081fd5b8151801515811461017e578182fd5b9392505050565b61105b80620001956000396000f3fe6080604052600436106101295760003560e01c806385b86188116100a557806396b5a75511610074578063dd1b7a0f11610059578063dd1b7a0f14610336578063eac9d94c14610356578063f2fde38b1461036b57610129565b806396b5a755146102f6578063c55d0f561461031657610129565b806385b861881461026e578063878eb368146102885780638a98a9cc146102a85780638da5cb5b146102be57610129565b80635c975abb116100fc57806378bd7935116100e157806378bd7935146101f157806383b5ff8b146102435780638456cb591461025957610129565b80635c975abb146101bb5780635fd8c710146101dc57610129565b806327ebe40a1461012e5780633f4ba83a14610150578063454a2ab31461017a578063484eccb41461018d575b600080fd5b34801561013a57600080fd5b5061014e610149366004610dd8565b61038b565b005b34801561015c57600080fd5b50610165610460565b60405190151581526020015b60405180910390f35b61014e610188366004610dc0565b6104c8565b34801561019957600080fd5b506101ad6101a8366004610dc0565b610559565b604051908152602001610171565b3480156101c757600080fd5b5060005461016590600160a01b900460ff1681565b3480156101e857600080fd5b5061014e610570565b3480156101fd57600080fd5b5061021161020c366004610dc0565b6105da565b604080516001600160a01b0390961686526020860194909452928401919091526060830152608082015260a001610171565b34801561024f57600080fd5b506101ad60025481565b34801561026557600080fd5b50610165610671565b34801561027a57600080fd5b506004546101659060ff1681565b34801561029457600080fd5b5061014e6102a3366004610dc0565b6106e0565b3480156102b457600080fd5b506101ad60055481565b3480156102ca57600080fd5b506000546102de906001600160a01b031681565b6040516001600160a01b039091168152602001610171565b34801561030257600080fd5b5061014e610311366004610dc0565b610758565b34801561032257600080fd5b506101ad610331366004610dc0565b6107ae565b34801561034257600080fd5b506001546102de906001600160a01b031681565b34801561036257600080fd5b506101ad6107f3565b34801561037757600080fd5b5061014e610386366004610da4565b610854565b836fffffffffffffffffffffffffffffffff1684146103a957600080fd5b826fffffffffffffffffffffffffffffffff1683146103c757600080fd5b8167ffffffffffffffff1682146103dd57600080fd5b6001546001600160a01b031633146103f457600080fd5b6103fe81866108a6565b6040805160a0810182526001600160a01b03831681526fffffffffffffffffffffffffffffffff808716602083015285169181019190915267ffffffffffffffff8084166060830152421660808201526104588682610928565b505050505050565b600080546001600160a01b0316331461047857600080fd5b600054600160a01b900460ff1661048e57600080fd5b6000805460ff60a01b191681556040517f7805862f689e2f13df9f062ff482ad3ad112aca9e0847911ed832e158c525b339190a150600190565b6000818152600360205260408120546001600160a01b0316906104eb8334610a44565b90506104f73384610bcc565b6001546001600160a01b0383811691161415610554578060066005805461051e9190610fd0565b6005811061053c57634e487b7160e01b600052603260045260246000fd5b01556005805490600061054e83610fb5565b91905055505b505050565b6006816005811061056957600080fd5b0154905081565b6001546000546001600160a01b0391821691163314806105985750336001600160a01b038216145b6105a157600080fd5b6040516001600160a01b038216904780156108fc02916000818181858888f193505050501580156105d6573d6000803e3d6000fd5b5050565b6000818152600360205260408120819081908190819061060e8160020154600160401b900467ffffffffffffffff16151590565b61061757600080fd5b805460018201546002909201546001600160a01b03909116986fffffffffffffffffffffffffffffffff8084169950600160801b909304909216965067ffffffffffffffff8082169650600160401b909104169350915050565b600080546001600160a01b0316331461068957600080fd5b600054600160a01b900460ff16156106a057600080fd5b6000805460ff60a01b1916600160a01b1781556040517f6985a02210a168e66602d3235cb6db0e70f92b3ba4d376a33c0f3d9434bff6259190a150600190565b600054600160a01b900460ff166106f657600080fd5b6000546001600160a01b0316331461070d57600080fd5b60008181526003602052604090206107398160020154600160401b900467ffffffffffffffff16151590565b61074257600080fd5b80546105d69083906001600160a01b0316610c24565b60008181526003602052604090206107848160020154600160401b900467ffffffffffffffff16151590565b61078d57600080fd5b80546001600160a01b03163381146107a457600080fd5b6105548382610c24565b60008181526003602052604081206107da8160020154600160401b900467ffffffffffffffff16151590565b6107e357600080fd5b6107ec81610ca9565b9392505050565b600080805b6005811015610842576006816005811061082257634e487b7160e01b600052603260045260246000fd5b015461082e9083610e63565b91508061083a81610fb5565b9150506107f8565b5061084e600582610ea9565b91505090565b6000546001600160a01b0316331461086b57600080fd5b6001600160a01b038116156108a3576000805473ffffffffffffffffffffffffffffffffffffffff19166001600160a01b0383161790555b50565b6001546040517f23b872dd0000000000000000000000000000000000000000000000000000000081526001600160a01b03848116600483015230602483015260448201849052909116906323b872dd906064015b600060405180830381600087803b15801561091457600080fd5b505af1158015610458573d6000803e3d6000fd5b603c816060015167ffffffffffffffff16101561094457600080fd5b600082815260036020908152604091829020835181546001600160a01b0390911673ffffffffffffffffffffffffffffffffffffffff1990911617815590830151828401516fffffffffffffffffffffffffffffffff908116600160801b8102919092169081176001840155606085015160029093018054608087015167ffffffffffffffff908116600160401b026fffffffffffffffffffffffffffffffff1992909216951694851717905592517fa9c8dfcda5664a5a124c713e386da27de87432d5b668e79458501eb296389ba793610a38938793919293845260208401929092526040830152606082015260800190565b60405180910390a15050565b6000828152600360205260408120610a708160020154600160401b900467ffffffffffffffff16151590565b610a7957600080fd5b6000610a8482610ca9565b905080841015610a9357600080fd5b81546000868152600360205260408120805473ffffffffffffffffffffffffffffffffffffffff19168155600181019190915560020180546fffffffffffffffffffffffffffffffff191690556001600160a01b03168115610b45576000610afa83610d2b565b90506000610b088285610f9e565b6040519091506001600160a01b0384169082156108fc029083906000818181858888f19350505050158015610b41573d6000803e3d6000fd5b5050505b6000610b518387610f9e565b604051909150339082156108fc029083906000818181858888f19350505050158015610b81573d6000803e3d6000fd5b506040805188815260208101859052338183015290517f4fcc30d90a842164dd58501ab874a101a3749c3d4747139cefe7c876f4ccebd29181900360600190a1509095945050505050565b6001546040517f42842e0e0000000000000000000000000000000000000000000000000000000081523060048201526001600160a01b03848116602483015260448201849052909116906342842e0e906064016108fa565b6000828152600360205260408120805473ffffffffffffffffffffffffffffffffffffffff19168155600181019190915560020180546fffffffffffffffffffffffffffffffff19169055610c798183610bcc565b6040518281527f2809c7e17bf978fbc7194c0a694b638c4215e9140cacc6c38ca36010b45697df90602001610a38565b60028101546000908190600160401b900467ffffffffffffffff16421115610cee576002830154610ceb90600160401b900467ffffffffffffffff1642610f9e565b90505b600183015460028401546107ec916fffffffffffffffffffffffffffffffff80821692600160801b909204169067ffffffffffffffff1684610d4e565b600061271060025483610d3e9190610f40565b610d489190610ea9565b92915050565b6000828210610d5e575082610d9c565b6000610d6a8686610f5f565b9050600084610d798584610ebd565b610d839190610e7b565b90506000610d918289610e24565b9350610d9c92505050565b949350505050565b600060208284031215610db5578081fd5b81356107ec81611010565b600060208284031215610dd1578081fd5b5035919050565b600080600080600060a08688031215610def578081fd5b853594506020860135935060408601359250606086013591506080860135610e1681611010565b809150509295509295909350565b6000808212826001600160ff1b0303841381151615610e4557610e45610fe4565b82600160ff1b038412811615610e5d57610e5d610fe4565b50500190565b60008219821115610e7657610e76610fe4565b500190565b600082610e8a57610e8a610ffa565b600160ff1b821460001984141615610ea457610ea4610fe4565b500590565b600082610eb857610eb8610ffa565b500490565b60006001600160ff1b0381841382841385830485118282161615610ee357610ee3610fe4565b600160ff1b84871286820588128184161615610f0157610f01610fe4565b858712925087820587128484161615610f1c57610f1c610fe4565b87850587128184161615610f3257610f32610fe4565b505050929093029392505050565b6000816000190483118215151615610f5a57610f5a610fe4565b500290565b600080831283600160ff1b01831281151615610f7d57610f7d610fe4565b836001600160ff1b03018313811615610f9857610f98610fe4565b50500390565b600082821015610fb057610fb0610fe4565b500390565b6000600019821415610fc957610fc9610fe4565b5060010190565b600082610fdf57610fdf610ffa565b500690565b634e487b7160e01b600052601160045260246000fd5b634e487b7160e01b600052601260045260246000fd5b6001600160a01b03811681146108a357600080fdfea2646970667358221220e99ca1ef1d5c1c1e4578cdc202ee8625f4bb065c3e1c58de1995e80271b67aba64736f6c63430008030033",
  "immutableReferences": {},
  "source": "// SPDX-License-Identifier: UNLICENSED\npragma solidity ^0.8.0;\n\nimport \"./ClockAuction.sol\";\n\n/// @title Clock auction modified for sale of kitties\n/// @notice We omit a fallback function to prevent accidental sends to this contract.\ncontract SaleClockAuction is ClockAuction {\n\n    // @dev Sanity check that allows us to ensure that we are pointing to the\n    //  right auction in our setSaleAuctionAddress() call.\n    bool public isSaleClockAuction = true;\n\n    // Tracks last 5 sale price of gen0 kitty sales\n    uint256 public gen0SaleCount;\n    uint256[5] public lastGen0SalePrices;\n\n    // Delegate constructor\n    constructor(address _nftAddr, uint256 _cut)\n        ClockAuction(_nftAddr, _cut) {}\n\n    /// @dev Creates and begins a new auction.\n    /// @param _tokenId - ID of token to auction, sender must be owner.\n    /// @param _startingPrice - Price of item (in wei) at beginning of auction.\n    /// @param _endingPrice - Price of item (in wei) at end of auction.\n    /// @param _duration - Length of auction (in seconds).\n    /// @param _seller - Seller, if not the message sender\n    function createAuction(\n        uint256 _tokenId,\n        uint256 _startingPrice,\n        uint256 _endingPrice,\n        uint256 _duration,\n        address payable _seller\n    )\n        external\n        override\n    {\n        // Sanity check that no inputs overflow how many bits we've allocated\n        // to store them in the auction struct.\n        require(_startingPrice == uint256(uint128(_startingPrice)));\n        require(_endingPrice == uint256(uint128(_endingPrice)));\n        require(_duration == uint256(uint64(_duration)));\n\n        require(msg.sender == address(nonFungibleContract));\n        _escrow(_seller, _tokenId);\n        Auction memory auction = Auction(\n            _seller,\n            uint128(_startingPrice),\n            uint128(_endingPrice),\n            uint64(_duration),\n            uint64(block.timestamp)\n        );\n        _addAuction(_tokenId, auction);\n    }\n\n    /// @dev Updates lastSalePrice if seller is the nft contract\n    /// Otherwise, works the same as default bid method.\n    function bid(uint256 _tokenId)\n        external\n        override\n        payable\n    {\n        // _bid verifies token ID size\n        address seller = tokenIdToAuction[_tokenId].seller;\n        uint256 price = _bid(_tokenId, msg.value);\n        _transfer(msg.sender, _tokenId);\n\n        // If not a gen0 auction, exit\n        if (seller == address(nonFungibleContract)) {\n            // Track gen0 sale prices\n            lastGen0SalePrices[gen0SaleCount % 5] = price;\n            gen0SaleCount++;\n        }\n    }\n\n    function averageGen0SalePrice() external view returns (uint256) {\n        uint256 sum = 0;\n        for (uint256 i = 0; i < 5; i++) {\n            sum += lastGen0SalePrices[i];\n        }\n        return sum / 5;\n    }\n\n}\n\n",
  "sourcePath": "/Users/ivanmontiel/Desktop/workspace/nft-tutorial/nft/packages/nfts/contracts/SaleClockAuction.sol",
  "compiler": {
    "name": "solc",
    "version": "0.8.3+commit.8d00100c.Emscripten.clang"
  },
  "schemaVersion": "3.4.3",
  "updatedAt": "2021-09-03T21:45:46.864Z",
  "devdoc": {
    "kind": "dev",
    "methods": {
      "bid(uint256)": {
        "details": "Updates lastSalePrice if seller is the nft contract Otherwise, works the same as default bid method."
      },
      "cancelAuction(uint256)": {
        "details": "Cancels an auction that hasn't been won yet.  Returns the NFT to original owner.",
        "params": {
          "_tokenId": "- ID of token on auction"
        }
      },
      "cancelAuctionWhenPaused(uint256)": {
        "details": "Cancels an auction when the contract is paused.  Only the owner may do this, and NFTs are returned to  the seller. This should only be used in emergencies.",
        "params": {
          "_tokenId": "- ID of the NFT on auction to cancel."
        }
      },
      "createAuction(uint256,uint256,uint256,uint256,address)": {
        "details": "Creates and begins a new auction.",
        "params": {
          "_duration": "- Length of auction (in seconds).",
          "_endingPrice": "- Price of item (in wei) at end of auction.",
          "_seller": "- Seller, if not the message sender",
          "_startingPrice": "- Price of item (in wei) at beginning of auction.",
          "_tokenId": "- ID of token to auction, sender must be owner."
        }
      },
      "getAuction(uint256)": {
        "details": "Returns auction info for an NFT on auction.",
        "params": {
          "_tokenId": "- ID of NFT on auction."
        }
      },
      "getCurrentPrice(uint256)": {
        "details": "Returns the current price of an auction.",
        "params": {
          "_tokenId": "- ID of the token price we are checking."
        }
      },
      "pause()": {
        "details": "called by the owner to pause, triggers stopped state"
      },
      "transferOwnership(address)": {
        "details": "Allows the current owner to transfer control of the contract to a newOwner.",
        "params": {
          "newOwner": "The address to transfer ownership to."
        }
      },
      "unpause()": {
        "details": "called by the owner to unpause, returns to normal state"
      },
      "withdrawBalance()": {
        "details": "Remove all Ether from the contract, which is the owner's cuts  as well as any Ether sent directly to the contract address.  Always transfers to the NFT contract, but can be called either by  the owner or the NFT contract."
      }
    },
    "title": "Clock auction modified for sale of kitties",
    "version": 1
  },
  "userdoc": {
    "kind": "user",
    "methods": {
      "cancelAuction(uint256)": {
        "notice": "This is a state-modifying function that can  be called while the contract is paused."
      }
    },
    "notice": "We omit a fallback function to prevent accidental sends to this contract.",
    "version": 1
  }
}