{
  "contractName": "ClockAuction",
  "abi": [
    {
      "inputs": [
        {
          "internalType": "address",
          "name": "_nftAddress",
          "type": "address"
        },
        {
          "internalType": "uint256",
          "name": "_cut",
          "type": "uint256"
        }
      ],
      "stateMutability": "nonpayable",
      "type": "constructor"
    },
    {
      "anonymous": false,
      "inputs": [
        {
          "indexed": false,
          "internalType": "uint256",
          "name": "tokenId",
          "type": "uint256"
        }
      ],
      "name": "AuctionCancelled",
      "type": "event"
    },
    {
      "anonymous": false,
      "inputs": [
        {
          "indexed": false,
          "internalType": "uint256",
          "name": "tokenId",
          "type": "uint256"
        },
        {
          "indexed": false,
          "internalType": "uint256",
          "name": "startingPrice",
          "type": "uint256"
        },
        {
          "indexed": false,
          "internalType": "uint256",
          "name": "endingPrice",
          "type": "uint256"
        },
        {
          "indexed": false,
          "internalType": "uint256",
          "name": "duration",
          "type": "uint256"
        }
      ],
      "name": "AuctionCreated",
      "type": "event"
    },
    {
      "anonymous": false,
      "inputs": [
        {
          "indexed": false,
          "internalType": "uint256",
          "name": "tokenId",
          "type": "uint256"
        },
        {
          "indexed": false,
          "internalType": "uint256",
          "name": "totalPrice",
          "type": "uint256"
        },
        {
          "indexed": false,
          "internalType": "address",
          "name": "winner",
          "type": "address"
        }
      ],
      "name": "AuctionSuccessful",
      "type": "event"
    },
    {
      "anonymous": false,
      "inputs": [],
      "name": "Pause",
      "type": "event"
    },
    {
      "anonymous": false,
      "inputs": [],
      "name": "Unpause",
      "type": "event"
    },
    {
      "inputs": [],
      "name": "nonFungibleContract",
      "outputs": [
        {
          "internalType": "contract ERC721",
          "name": "",
          "type": "address"
        }
      ],
      "stateMutability": "view",
      "type": "function"
    },
    {
      "inputs": [],
      "name": "owner",
      "outputs": [
        {
          "internalType": "address",
          "name": "",
          "type": "address"
        }
      ],
      "stateMutability": "view",
      "type": "function"
    },
    {
      "inputs": [],
      "name": "ownerCut",
      "outputs": [
        {
          "internalType": "uint256",
          "name": "",
          "type": "uint256"
        }
      ],
      "stateMutability": "view",
      "type": "function"
    },
    {
      "inputs": [],
      "name": "pause",
      "outputs": [
        {
          "internalType": "bool",
          "name": "",
          "type": "bool"
        }
      ],
      "stateMutability": "nonpayable",
      "type": "function"
    },
    {
      "inputs": [],
      "name": "paused",
      "outputs": [
        {
          "internalType": "bool",
          "name": "",
          "type": "bool"
        }
      ],
      "stateMutability": "view",
      "type": "function"
    },
    {
      "inputs": [
        {
          "internalType": "address",
          "name": "newOwner",
          "type": "address"
        }
      ],
      "name": "transferOwnership",
      "outputs": [],
      "stateMutability": "nonpayable",
      "type": "function"
    },
    {
      "inputs": [],
      "name": "unpause",
      "outputs": [
        {
          "internalType": "bool",
          "name": "",
          "type": "bool"
        }
      ],
      "stateMutability": "nonpayable",
      "type": "function"
    },
    {
      "inputs": [],
      "name": "withdrawBalance",
      "outputs": [],
      "stateMutability": "nonpayable",
      "type": "function"
    },
    {
      "inputs": [
        {
          "internalType": "uint256",
          "name": "_tokenId",
          "type": "uint256"
        },
        {
          "internalType": "uint256",
          "name": "_startingPrice",
          "type": "uint256"
        },
        {
          "internalType": "uint256",
          "name": "_endingPrice",
          "type": "uint256"
        },
        {
          "internalType": "uint256",
          "name": "_duration",
          "type": "uint256"
        },
        {
          "internalType": "address payable",
          "name": "_seller",
          "type": "address"
        }
      ],
      "name": "createAuction",
      "outputs": [],
      "stateMutability": "nonpayable",
      "type": "function"
    },
    {
      "inputs": [
        {
          "internalType": "uint256",
          "name": "_tokenId",
          "type": "uint256"
        }
      ],
      "name": "bid",
      "outputs": [],
      "stateMutability": "payable",
      "type": "function"
    },
    {
      "inputs": [
        {
          "internalType": "uint256",
          "name": "_tokenId",
          "type": "uint256"
        }
      ],
      "name": "cancelAuction",
      "outputs": [],
      "stateMutability": "nonpayable",
      "type": "function"
    },
    {
      "inputs": [
        {
          "internalType": "uint256",
          "name": "_tokenId",
          "type": "uint256"
        }
      ],
      "name": "cancelAuctionWhenPaused",
      "outputs": [],
      "stateMutability": "nonpayable",
      "type": "function"
    },
    {
      "inputs": [
        {
          "internalType": "uint256",
          "name": "_tokenId",
          "type": "uint256"
        }
      ],
      "name": "getAuction",
      "outputs": [
        {
          "internalType": "address",
          "name": "seller",
          "type": "address"
        },
        {
          "internalType": "uint256",
          "name": "startingPrice",
          "type": "uint256"
        },
        {
          "internalType": "uint256",
          "name": "endingPrice",
          "type": "uint256"
        },
        {
          "internalType": "uint256",
          "name": "duration",
          "type": "uint256"
        },
        {
          "internalType": "uint256",
          "name": "startedAt",
          "type": "uint256"
        }
      ],
      "stateMutability": "view",
      "type": "function"
    },
    {
      "inputs": [
        {
          "internalType": "uint256",
          "name": "_tokenId",
          "type": "uint256"
        }
      ],
      "name": "getCurrentPrice",
      "outputs": [
        {
          "internalType": "uint256",
          "name": "",
          "type": "uint256"
        }
      ],
      "stateMutability": "view",
      "type": "function"
    }
  ],
  "bytecode": "0x60806040526000805460ff60a01b1916905534801561001d57600080fd5b506040516110eb3803806110eb83398101604081905261003c91610113565b600080546001600160a01b0319163317905561271081111561005d57600080fd5b60028190556040516301ffc9a760e01b8152639a20483d60e01b600482015282906001600160a01b038216906301ffc9a79060240160206040518083038186803b1580156100aa57600080fd5b505afa1580156100be573d6000803e3d6000fd5b505050506040513d601f19601f820116820180604052508101906100e2919061014b565b6100eb57600080fd5b600180546001600160a01b0319166001600160a01b0392909216919091179055506101729050565b60008060408385031215610125578182fd5b82516001600160a01b038116811461013b578283fd5b6020939093015192949293505050565b60006020828403121561015c578081fd5b8151801515811461016b578182fd5b9392505050565b610f6a806101816000396000f3fe6080604052600436106100dd5760003560e01c80638456cb591161007f57806396b5a7551161005957806396b5a7551461025a578063c55d0f561461027a578063dd1b7a0f1461029a578063f2fde38b146102ba576100dd565b80638456cb59146101ed578063878eb368146102025780638da5cb5b14610222576100dd565b80635c975abb116100bb5780635c975abb146101415780635fd8c7101461016257806378bd79351461017757806383b5ff8b146101c9576100dd565b806327ebe40a146100e25780633f4ba83a14610104578063454a2ab31461012e575b600080fd5b3480156100ee57600080fd5b506101026100fd366004610d2e565b6102da565b005b34801561011057600080fd5b506101196103c2565b60405190151581526020015b60405180910390f35b61010261013c366004610d16565b61042a565b34801561014d57600080fd5b5060005461011990600160a01b900460ff1681565b34801561016e57600080fd5b50610102610459565b34801561018357600080fd5b50610197610192366004610d16565b6104c3565b604080516001600160a01b0390961686526020860194909452928401919091526060830152608082015260a001610125565b3480156101d557600080fd5b506101df60025481565b604051908152602001610125565b3480156101f957600080fd5b5061011961055a565b34801561020e57600080fd5b5061010261021d366004610d16565b6105c9565b34801561022e57600080fd5b50600054610242906001600160a01b031681565b6040516001600160a01b039091168152602001610125565b34801561026657600080fd5b50610102610275366004610d16565b610641565b34801561028657600080fd5b506101df610295366004610d16565b61069c565b3480156102a657600080fd5b50600154610242906001600160a01b031681565b3480156102c657600080fd5b506101026102d5366004610cde565b6106e1565b600054600160a01b900460ff16156102f157600080fd5b836fffffffffffffffffffffffffffffffff16841461030f57600080fd5b826fffffffffffffffffffffffffffffffff16831461032d57600080fd5b8167ffffffffffffffff16821461034357600080fd5b61034d3386610734565b61035657600080fd5b61036033866107e0565b6040805160a0810182526001600160a01b03831681526fffffffffffffffffffffffffffffffff808716602083015285169181019190915267ffffffffffffffff8084166060830152421660808201526103ba8682610862565b505050505050565b600080546001600160a01b031633146103da57600080fd5b600054600160a01b900460ff166103f057600080fd5b6000805460ff60a01b191681556040517f7805862f689e2f13df9f062ff482ad3ad112aca9e0847911ed832e158c525b339190a150600190565b600054600160a01b900460ff161561044157600080fd5b61044b813461097e565b506104563382610b06565b50565b6001546000546001600160a01b0391821691163314806104815750336001600160a01b038216145b61048a57600080fd5b6040516001600160a01b038216904780156108fc02916000818181858888f193505050501580156104bf573d6000803e3d6000fd5b5050565b600081815260036020526040812081908190819081906104f78160020154600160401b900467ffffffffffffffff16151590565b61050057600080fd5b805460018201546002909201546001600160a01b03909116986fffffffffffffffffffffffffffffffff8084169950600160801b909304909216965067ffffffffffffffff8082169650600160401b909104169350915050565b600080546001600160a01b0316331461057257600080fd5b600054600160a01b900460ff161561058957600080fd5b6000805460ff60a01b1916600160a01b1781556040517f6985a02210a168e66602d3235cb6db0e70f92b3ba4d376a33c0f3d9434bff6259190a150600190565b600054600160a01b900460ff166105df57600080fd5b6000546001600160a01b031633146105f657600080fd5b60008181526003602052604090206106228160020154600160401b900467ffffffffffffffff16151590565b61062b57600080fd5b80546104bf9083906001600160a01b0316610b5e565b600081815260036020526040902061066d8160020154600160401b900467ffffffffffffffff16151590565b61067657600080fd5b80546001600160a01b031633811461068d57600080fd5b6106978382610b5e565b505050565b60008181526003602052604081206106c88160020154600160401b900467ffffffffffffffff16151590565b6106d157600080fd5b6106da81610be3565b9392505050565b6000546001600160a01b031633146106f857600080fd5b6001600160a01b0381161561045657600080546001600160a01b03831673ffffffffffffffffffffffffffffffffffffffff1990911617905550565b6001546040517f6352211e000000000000000000000000000000000000000000000000000000008152600481018390526000916001600160a01b0385811692911690636352211e9060240160206040518083038186803b15801561079757600080fd5b505afa1580156107ab573d6000803e3d6000fd5b505050506040513d601f19601f820116820180604052508101906107cf9190610cfa565b6001600160a01b0316149392505050565b6001546040517f23b872dd0000000000000000000000000000000000000000000000000000000081526001600160a01b03848116600483015230602483015260448201849052909116906323b872dd906064015b600060405180830381600087803b15801561084e57600080fd5b505af11580156103ba573d6000803e3d6000fd5b603c816060015167ffffffffffffffff16101561087e57600080fd5b600082815260036020908152604091829020835181546001600160a01b0390911673ffffffffffffffffffffffffffffffffffffffff1990911617815590830151828401516fffffffffffffffffffffffffffffffff908116600160801b8102919092169081176001840155606085015160029093018054608087015167ffffffffffffffff908116600160401b026fffffffffffffffffffffffffffffffff1992909216951694851717905592517fa9c8dfcda5664a5a124c713e386da27de87432d5b668e79458501eb296389ba793610972938793919293845260208401929092526040830152606082015260800190565b60405180910390a15050565b60008281526003602052604081206109aa8160020154600160401b900467ffffffffffffffff16151590565b6109b357600080fd5b60006109be82610be3565b9050808410156109cd57600080fd5b81546000868152600360205260408120805473ffffffffffffffffffffffffffffffffffffffff19168155600181019190915560020180546fffffffffffffffffffffffffffffffff191690556001600160a01b03168115610a7f576000610a3483610c65565b90506000610a428285610edc565b6040519091506001600160a01b0384169082156108fc029083906000818181858888f19350505050158015610a7b573d6000803e3d6000fd5b5050505b6000610a8b8387610edc565b604051909150339082156108fc029083906000818181858888f19350505050158015610abb573d6000803e3d6000fd5b506040805188815260208101859052338183015290517f4fcc30d90a842164dd58501ab874a101a3749c3d4747139cefe7c876f4ccebd29181900360600190a1509095945050505050565b6001546040517f42842e0e0000000000000000000000000000000000000000000000000000000081523060048201526001600160a01b03848116602483015260448201849052909116906342842e0e90606401610834565b6000828152600360205260408120805473ffffffffffffffffffffffffffffffffffffffff19168155600181019190915560020180546fffffffffffffffffffffffffffffffff19169055610bb38183610b06565b6040518281527f2809c7e17bf978fbc7194c0a694b638c4215e9140cacc6c38ca36010b45697df90602001610972565b60028101546000908190600160401b900467ffffffffffffffff16421115610c28576002830154610c2590600160401b900467ffffffffffffffff1642610edc565b90505b600183015460028401546106da916fffffffffffffffffffffffffffffffff80821692600160801b909204169067ffffffffffffffff1684610c88565b600061271060025483610c789190610e7e565b610c829190610de7565b92915050565b6000828210610c98575082610cd6565b6000610ca48686610e9d565b9050600084610cb38584610dfb565b610cbd9190610db9565b90506000610ccb8289610d7a565b9350610cd692505050565b949350505050565b600060208284031215610cef578081fd5b81356106da81610f1f565b600060208284031215610d0b578081fd5b81516106da81610f1f565b600060208284031215610d27578081fd5b5035919050565b600080600080600060a08688031215610d45578081fd5b853594506020860135935060408601359250606086013591506080860135610d6c81610f1f565b809150509295509295909350565b6000808212826001600160ff1b0303841381151615610d9b57610d9b610ef3565b82600160ff1b038412811615610db357610db3610ef3565b50500190565b600082610dc857610dc8610f09565b600160ff1b821460001984141615610de257610de2610ef3565b500590565b600082610df657610df6610f09565b500490565b60006001600160ff1b0381841382841385830485118282161615610e2157610e21610ef3565b600160ff1b84871286820588128184161615610e3f57610e3f610ef3565b858712925087820587128484161615610e5a57610e5a610ef3565b87850587128184161615610e7057610e70610ef3565b505050929093029392505050565b6000816000190483118215151615610e9857610e98610ef3565b500290565b600080831283600160ff1b01831281151615610ebb57610ebb610ef3565b836001600160ff1b03018313811615610ed657610ed6610ef3565b50500390565b600082821015610eee57610eee610ef3565b500390565b634e487b7160e01b600052601160045260246000fd5b634e487b7160e01b600052601260045260246000fd5b6001600160a01b038116811461045657600080fdfea26469706673582212202f3625e8089246d78a14a0eb3227d824b623754c6c45011afa0608513f6420aa64736f6c63430008030033",
  "immutableReferences": {},
  "source": "// SPDX-License-Identifier: UNLICENSED\npragma solidity ^0.8.0;\n\nimport \"./Pausable.sol\";\nimport \"./ClockAuctionBase.sol\";\n\n/// @title Clock auction for non-fungible tokens.\n/// @notice We omit a fallback function to prevent accidental sends to this contract.\ncontract ClockAuction is Pausable, ClockAuctionBase {\n\n    /// @dev The ERC-165 interface signature for ERC-721.\n    ///  Ref: https://github.com/ethereum/EIPs/issues/165\n    ///  Ref: https://github.com/ethereum/EIPs/issues/721\n    bytes4 constant InterfaceSignature_ERC721 = bytes4(0x9a20483d);\n\n    /// @dev Constructor creates a reference to the NFT ownership contract\n    ///  and verifies the owner cut is in the valid range.\n    /// @param _nftAddress - address of a deployed contract implementing\n    ///  the Nonfungible Interface.\n    /// @param _cut - percent cut the owner takes on each auction, must be\n    ///  between 0-10,000.\n    constructor(address _nftAddress, uint256 _cut) {\n        require(_cut <= 10000);\n        ownerCut = _cut;\n\n        ERC721 candidateContract = ERC721(_nftAddress);\n        require(candidateContract.supportsInterface(InterfaceSignature_ERC721));\n        nonFungibleContract = candidateContract;\n    }\n\n    /// @dev Remove all Ether from the contract, which is the owner's cuts\n    ///  as well as any Ether sent directly to the contract address.\n    ///  Always transfers to the NFT contract, but can be called either by\n    ///  the owner or the NFT contract.\n    function withdrawBalance() external {\n        address payable nftAddress = payable(address(nonFungibleContract));\n\n        require(\n            msg.sender == owner ||\n            msg.sender == nftAddress\n        );\n        // We are using this boolean method to make sure that even if one fails it will still work\n        // bool res = nftAddress.send(address(this).balance);\n        nftAddress.transfer(address(this).balance);\n    }\n\n    /// @dev Creates and begins a new auction.\n    /// @param _tokenId - ID of token to auction, sender must be owner.\n    /// @param _startingPrice - Price of item (in wei) at beginning of auction.\n    /// @param _endingPrice - Price of item (in wei) at end of auction.\n    /// @param _duration - Length of time to move between starting\n    ///  price and ending price (in seconds).\n    /// @param _seller - Seller, if not the message sender\n    function createAuction(\n        uint256 _tokenId,\n        uint256 _startingPrice,\n        uint256 _endingPrice,\n        uint256 _duration,\n        address payable _seller\n    )\n        external\n        virtual\n        whenNotPaused\n    {\n        // Sanity check that no inputs overflow how many bits we've allocated\n        // to store them in the auction struct.\n        require(_startingPrice == uint256(uint128(_startingPrice)));\n        require(_endingPrice == uint256(uint128(_endingPrice)));\n        require(_duration == uint256(uint64(_duration)));\n\n        require(_owns(msg.sender, _tokenId));\n        _escrow(msg.sender, _tokenId);\n        Auction memory auction = Auction(\n            _seller,\n            uint128(_startingPrice),\n            uint128(_endingPrice),\n            uint64(_duration),\n            uint64(block.timestamp)\n        );\n        _addAuction(_tokenId, auction);\n    }\n\n    /// @dev Bids on an open auction, completing the auction and transferring\n    ///  ownership of the NFT if enough Ether is supplied.\n    /// @param _tokenId - ID of token to bid on.\n    function bid(uint256 _tokenId)\n        external\n        virtual\n        payable\n        whenNotPaused\n    {\n        // _bid will throw if the bid or funds transfer fails\n        _bid(_tokenId, msg.value);\n        _transfer(msg.sender, _tokenId);\n    }\n\n    /// @dev Cancels an auction that hasn't been won yet.\n    ///  Returns the NFT to original owner.\n    /// @notice This is a state-modifying function that can\n    ///  be called while the contract is paused.\n    /// @param _tokenId - ID of token on auction\n    function cancelAuction(uint256 _tokenId)\n        external\n    {\n        Auction storage auction = tokenIdToAuction[_tokenId];\n        require(_isOnAuction(auction));\n        address seller = auction.seller;\n        require(msg.sender == seller);\n        _cancelAuction(_tokenId, seller);\n    }\n\n    /// @dev Cancels an auction when the contract is paused.\n    ///  Only the owner may do this, and NFTs are returned to\n    ///  the seller. This should only be used in emergencies.\n    /// @param _tokenId - ID of the NFT on auction to cancel.\n    function cancelAuctionWhenPaused(uint256 _tokenId)\n        whenPaused\n        onlyOwner\n        external\n    {\n        Auction storage auction = tokenIdToAuction[_tokenId];\n        require(_isOnAuction(auction));\n        _cancelAuction(_tokenId, auction.seller);\n    }\n\n    /// @dev Returns auction info for an NFT on auction.\n    /// @param _tokenId - ID of NFT on auction.\n    function getAuction(uint256 _tokenId)\n        external\n        view\n        returns\n    (\n        address seller,\n        uint256 startingPrice,\n        uint256 endingPrice,\n        uint256 duration,\n        uint256 startedAt\n    ) {\n        Auction storage auction = tokenIdToAuction[_tokenId];\n        require(_isOnAuction(auction));\n        return (\n            auction.seller,\n            auction.startingPrice,\n            auction.endingPrice,\n            auction.duration,\n            auction.startedAt\n        );\n    }\n\n    /// @dev Returns the current price of an auction.\n    /// @param _tokenId - ID of the token price we are checking.\n    function getCurrentPrice(uint256 _tokenId)\n        external\n        view\n        returns (uint256)\n    {\n        Auction storage auction = tokenIdToAuction[_tokenId];\n        require(_isOnAuction(auction));\n        return _currentPrice(auction);\n    }\n\n}\n",
  "sourcePath": "/Users/ivanmontiel/Desktop/workspace/nft-tutorial/nft/src/contracts/ClockAuction.sol",
  "compiler": {
    "name": "solc",
    "version": "0.8.3+commit.8d00100c.Emscripten.clang"
  },
  "schemaVersion": "3.3.4",
  "updatedAt": "2021-09-03T01:11:32.293Z",
  "devdoc": {
    "kind": "dev",
    "methods": {
      "bid(uint256)": {
        "details": "Bids on an open auction, completing the auction and transferring  ownership of the NFT if enough Ether is supplied.",
        "params": {
          "_tokenId": "- ID of token to bid on."
        }
      },
      "cancelAuction(uint256)": {
        "details": "Cancels an auction that hasn't been won yet.  Returns the NFT to original owner.",
        "params": {
          "_tokenId": "- ID of token on auction"
        }
      },
      "cancelAuctionWhenPaused(uint256)": {
        "details": "Cancels an auction when the contract is paused.  Only the owner may do this, and NFTs are returned to  the seller. This should only be used in emergencies.",
        "params": {
          "_tokenId": "- ID of the NFT on auction to cancel."
        }
      },
      "constructor": {
        "details": "Constructor creates a reference to the NFT ownership contract  and verifies the owner cut is in the valid range.",
        "params": {
          "_cut": "- percent cut the owner takes on each auction, must be  between 0-10,000.",
          "_nftAddress": "- address of a deployed contract implementing  the Nonfungible Interface."
        }
      },
      "createAuction(uint256,uint256,uint256,uint256,address)": {
        "details": "Creates and begins a new auction.",
        "params": {
          "_duration": "- Length of time to move between starting  price and ending price (in seconds).",
          "_endingPrice": "- Price of item (in wei) at end of auction.",
          "_seller": "- Seller, if not the message sender",
          "_startingPrice": "- Price of item (in wei) at beginning of auction.",
          "_tokenId": "- ID of token to auction, sender must be owner."
        }
      },
      "getAuction(uint256)": {
        "details": "Returns auction info for an NFT on auction.",
        "params": {
          "_tokenId": "- ID of NFT on auction."
        }
      },
      "getCurrentPrice(uint256)": {
        "details": "Returns the current price of an auction.",
        "params": {
          "_tokenId": "- ID of the token price we are checking."
        }
      },
      "pause()": {
        "details": "called by the owner to pause, triggers stopped state"
      },
      "transferOwnership(address)": {
        "details": "Allows the current owner to transfer control of the contract to a newOwner.",
        "params": {
          "newOwner": "The address to transfer ownership to."
        }
      },
      "unpause()": {
        "details": "called by the owner to unpause, returns to normal state"
      },
      "withdrawBalance()": {
        "details": "Remove all Ether from the contract, which is the owner's cuts  as well as any Ether sent directly to the contract address.  Always transfers to the NFT contract, but can be called either by  the owner or the NFT contract."
      }
    },
    "stateVariables": {
      "InterfaceSignature_ERC721": {
        "details": "The ERC-165 interface signature for ERC-721.  Ref: https://github.com/ethereum/EIPs/issues/165  Ref: https://github.com/ethereum/EIPs/issues/721"
      }
    },
    "title": "Clock auction for non-fungible tokens.",
    "version": 1
  },
  "userdoc": {
    "kind": "user",
    "methods": {
      "cancelAuction(uint256)": {
        "notice": "This is a state-modifying function that can  be called while the contract is paused."
      }
    },
    "notice": "We omit a fallback function to prevent accidental sends to this contract.",
    "version": 1
  }
}