{
  "contractName": "Color",
  "abi": [
    {
      "inputs": [],
      "stateMutability": "nonpayable",
      "type": "constructor"
    },
    {
      "anonymous": false,
      "inputs": [
        {
          "indexed": true,
          "internalType": "address",
          "name": "owner",
          "type": "address"
        },
        {
          "indexed": true,
          "internalType": "address",
          "name": "approved",
          "type": "address"
        },
        {
          "indexed": true,
          "internalType": "uint256",
          "name": "tokenId",
          "type": "uint256"
        }
      ],
      "name": "Approval",
      "type": "event"
    },
    {
      "anonymous": false,
      "inputs": [
        {
          "indexed": true,
          "internalType": "address",
          "name": "owner",
          "type": "address"
        },
        {
          "indexed": true,
          "internalType": "address",
          "name": "operator",
          "type": "address"
        },
        {
          "indexed": false,
          "internalType": "bool",
          "name": "approved",
          "type": "bool"
        }
      ],
      "name": "ApprovalForAll",
      "type": "event"
    },
    {
      "anonymous": false,
      "inputs": [
        {
          "indexed": true,
          "internalType": "address",
          "name": "from",
          "type": "address"
        },
        {
          "indexed": true,
          "internalType": "address",
          "name": "to",
          "type": "address"
        },
        {
          "indexed": true,
          "internalType": "uint256",
          "name": "tokenId",
          "type": "uint256"
        }
      ],
      "name": "Transfer",
      "type": "event"
    },
    {
      "inputs": [
        {
          "internalType": "address",
          "name": "to",
          "type": "address"
        },
        {
          "internalType": "uint256",
          "name": "tokenId",
          "type": "uint256"
        }
      ],
      "name": "approve",
      "outputs": [],
      "stateMutability": "nonpayable",
      "type": "function"
    },
    {
      "inputs": [
        {
          "internalType": "address",
          "name": "owner",
          "type": "address"
        }
      ],
      "name": "balanceOf",
      "outputs": [
        {
          "internalType": "uint256",
          "name": "",
          "type": "uint256"
        }
      ],
      "stateMutability": "view",
      "type": "function",
      "constant": true
    },
    {
      "inputs": [
        {
          "internalType": "uint256",
          "name": "",
          "type": "uint256"
        }
      ],
      "name": "colors",
      "outputs": [
        {
          "internalType": "string",
          "name": "",
          "type": "string"
        }
      ],
      "stateMutability": "view",
      "type": "function",
      "constant": true
    },
    {
      "inputs": [
        {
          "internalType": "uint256",
          "name": "tokenId",
          "type": "uint256"
        }
      ],
      "name": "getApproved",
      "outputs": [
        {
          "internalType": "address",
          "name": "",
          "type": "address"
        }
      ],
      "stateMutability": "view",
      "type": "function",
      "constant": true
    },
    {
      "inputs": [
        {
          "internalType": "address",
          "name": "owner",
          "type": "address"
        },
        {
          "internalType": "address",
          "name": "operator",
          "type": "address"
        }
      ],
      "name": "isApprovedForAll",
      "outputs": [
        {
          "internalType": "bool",
          "name": "",
          "type": "bool"
        }
      ],
      "stateMutability": "view",
      "type": "function",
      "constant": true
    },
    {
      "inputs": [],
      "name": "name",
      "outputs": [
        {
          "internalType": "string",
          "name": "",
          "type": "string"
        }
      ],
      "stateMutability": "view",
      "type": "function",
      "constant": true
    },
    {
      "inputs": [
        {
          "internalType": "uint256",
          "name": "tokenId",
          "type": "uint256"
        }
      ],
      "name": "ownerOf",
      "outputs": [
        {
          "internalType": "address",
          "name": "",
          "type": "address"
        }
      ],
      "stateMutability": "view",
      "type": "function",
      "constant": true
    },
    {
      "inputs": [
        {
          "internalType": "address",
          "name": "from",
          "type": "address"
        },
        {
          "internalType": "address",
          "name": "to",
          "type": "address"
        },
        {
          "internalType": "uint256",
          "name": "tokenId",
          "type": "uint256"
        }
      ],
      "name": "safeTransferFrom",
      "outputs": [],
      "stateMutability": "nonpayable",
      "type": "function"
    },
    {
      "inputs": [
        {
          "internalType": "address",
          "name": "from",
          "type": "address"
        },
        {
          "internalType": "address",
          "name": "to",
          "type": "address"
        },
        {
          "internalType": "uint256",
          "name": "tokenId",
          "type": "uint256"
        },
        {
          "internalType": "bytes",
          "name": "_data",
          "type": "bytes"
        }
      ],
      "name": "safeTransferFrom",
      "outputs": [],
      "stateMutability": "nonpayable",
      "type": "function"
    },
    {
      "inputs": [
        {
          "internalType": "address",
          "name": "operator",
          "type": "address"
        },
        {
          "internalType": "bool",
          "name": "approved",
          "type": "bool"
        }
      ],
      "name": "setApprovalForAll",
      "outputs": [],
      "stateMutability": "nonpayable",
      "type": "function"
    },
    {
      "inputs": [
        {
          "internalType": "bytes4",
          "name": "interfaceId",
          "type": "bytes4"
        }
      ],
      "name": "supportsInterface",
      "outputs": [
        {
          "internalType": "bool",
          "name": "",
          "type": "bool"
        }
      ],
      "stateMutability": "view",
      "type": "function",
      "constant": true
    },
    {
      "inputs": [],
      "name": "symbol",
      "outputs": [
        {
          "internalType": "string",
          "name": "",
          "type": "string"
        }
      ],
      "stateMutability": "view",
      "type": "function",
      "constant": true
    },
    {
      "inputs": [
        {
          "internalType": "uint256",
          "name": "index",
          "type": "uint256"
        }
      ],
      "name": "tokenByIndex",
      "outputs": [
        {
          "internalType": "uint256",
          "name": "",
          "type": "uint256"
        }
      ],
      "stateMutability": "view",
      "type": "function",
      "constant": true
    },
    {
      "inputs": [
        {
          "internalType": "address",
          "name": "owner",
          "type": "address"
        },
        {
          "internalType": "uint256",
          "name": "index",
          "type": "uint256"
        }
      ],
      "name": "tokenOfOwnerByIndex",
      "outputs": [
        {
          "internalType": "uint256",
          "name": "",
          "type": "uint256"
        }
      ],
      "stateMutability": "view",
      "type": "function",
      "constant": true
    },
    {
      "inputs": [
        {
          "internalType": "uint256",
          "name": "tokenId",
          "type": "uint256"
        }
      ],
      "name": "tokenURI",
      "outputs": [
        {
          "internalType": "string",
          "name": "",
          "type": "string"
        }
      ],
      "stateMutability": "view",
      "type": "function",
      "constant": true
    },
    {
      "inputs": [],
      "name": "totalSupply",
      "outputs": [
        {
          "internalType": "uint256",
          "name": "",
          "type": "uint256"
        }
      ],
      "stateMutability": "view",
      "type": "function",
      "constant": true
    },
    {
      "inputs": [
        {
          "internalType": "address",
          "name": "from",
          "type": "address"
        },
        {
          "internalType": "address",
          "name": "to",
          "type": "address"
        },
        {
          "internalType": "uint256",
          "name": "tokenId",
          "type": "uint256"
        }
      ],
      "name": "transferFrom",
      "outputs": [],
      "stateMutability": "nonpayable",
      "type": "function"
    },
    {
      "inputs": [
        {
          "internalType": "string",
          "name": "_color",
          "type": "string"
        }
      ],
      "name": "mint",
      "outputs": [],
      "stateMutability": "nonpayable",
      "type": "function"
    }
  ],
  "bytecode": "0x60806040523480156200001157600080fd5b506040518060400160405280600581526020017f436f6c6f720000000000000000000000000000000000000000000000000000008152506040518060400160405280600681526020017f434f4c4f52530000000000000000000000000000000000000000000000000000815250816000908051906020019062000096929190620000b8565b508060019080519060200190620000af929190620000b8565b505050620001cd565b828054620000c69062000168565b90600052602060002090601f016020900481019282620000ea576000855562000136565b82601f106200010557805160ff191683800117855562000136565b8280016001018555821562000136579182015b828111156200013557825182559160200191906001019062000118565b5b50905062000145919062000149565b5090565b5b80821115620001645760008160009055506001016200014a565b5090565b600060028204905060018216806200018157607f821691505b602082108114156200019857620001976200019e565b5b50919050565b7f4e487b7100000000000000000000000000000000000000000000000000000000600052602260045260246000fd5b61325080620001dd6000396000f3fe608060405234801561001057600080fd5b5060043610610133576000357c0100000000000000000000000000000000000000000000000000000000900480636352211e116100bf578063b88d4fde1161008e578063b88d4fde14610322578063bd11f69d1461033e578063c87b56dd1461036e578063d85d3d271461039e578063e985e9c5146103ba57610133565b80636352211e1461028857806370a08231146102b857806395d89b41146102e8578063a22cb4651461030657610133565b806318160ddd1161010657806318160ddd146101d257806323b872dd146101f05780632f745c591461020c57806342842e0e1461023c5780634f6ccce71461025857610133565b806301ffc9a71461013857806306fdde0314610168578063081812fc14610186578063095ea7b3146101b6575b600080fd5b610152600480360381019061014d91906122a5565b6103ea565b60405161015f9190612703565b60405180910390f35b610170610464565b60405161017d919061271e565b60405180910390f35b6101a0600480360381019061019b9190612338565b6104f6565b6040516101ad919061269c565b60405180910390f35b6101d060048036038101906101cb9190612269565b61057b565b005b6101da610693565b6040516101e79190612940565b60405180910390f35b61020a60048036038101906102059190612163565b6106a0565b005b61022660048036038101906102219190612269565b610700565b6040516102339190612940565b60405180910390f35b61025660048036038101906102519190612163565b6107a5565b005b610272600480360381019061026d9190612338565b6107c5565b60405161027f9190612940565b60405180910390f35b6102a2600480360381019061029d9190612338565b61085c565b6040516102af919061269c565b60405180910390f35b6102d260048036038101906102cd91906120fe565b61090e565b6040516102df9190612940565b60405180910390f35b6102f06109c6565b6040516102fd919061271e565b60405180910390f35b610320600480360381019061031b919061222d565b610a58565b005b61033c600480360381019061033791906121b2565b610bd9565b005b61035860048036038101906103539190612338565b610c3b565b604051610365919061271e565b60405180910390f35b61038860048036038101906103839190612338565b610ce7565b604051610395919061271e565b60405180910390f35b6103b860048036038101906103b391906122f7565b610d8e565b005b6103d460048036038101906103cf9190612127565b610e5b565b6040516103e19190612703565b60405180910390f35b60007f780e9d63000000000000000000000000000000000000000000000000000000007bffffffffffffffffffffffffffffffffffffffffffffffffffffffff1916827bffffffffffffffffffffffffffffffffffffffffffffffffffffffff1916148061045d575061045c82610eef565b5b9050919050565b60606000805461047390612b96565b80601f016020809104026020016040519081016040528092919081815260200182805461049f90612b96565b80156104ec5780601f106104c1576101008083540402835291602001916104ec565b820191906000526020600020905b8154815290600101906020018083116104cf57829003601f168201915b5050505050905090565b600061050182610fd1565b610540576040517f08c379a000000000000000000000000000000000000000000000000000000000815260040161053790612880565b60405180910390fd5b6004600083815260200190815260200160002060009054906101000a900473ffffffffffffffffffffffffffffffffffffffff169050919050565b60006105868261085c565b90508073ffffffffffffffffffffffffffffffffffffffff168373ffffffffffffffffffffffffffffffffffffffff1614156105f7576040517f08c379a00000000000000000000000000000000000000000000000000000000081526004016105ee906128e0565b60405180910390fd5b8073ffffffffffffffffffffffffffffffffffffffff1661061661103d565b73ffffffffffffffffffffffffffffffffffffffff16148061064557506106448161063f61103d565b610e5b565b5b610684576040517f08c379a000000000000000000000000000000000000000000000000000000000815260040161067b90612800565b60405180910390fd5b61068e8383611045565b505050565b6000600880549050905090565b6106b16106ab61103d565b826110fe565b6106f0576040517f08c379a00000000000000000000000000000000000000000000000000000000081526004016106e790612900565b60405180910390fd5b6106fb8383836111dc565b505050565b600061070b8361090e565b821061074c576040517f08c379a000000000000000000000000000000000000000000000000000000000815260040161074390612740565b60405180910390fd5b600660008473ffffffffffffffffffffffffffffffffffffffff1673ffffffffffffffffffffffffffffffffffffffff168152602001908152602001600020600083815260200190815260200160002054905092915050565b6107c083838360405180602001604052806000815250610bd9565b505050565b60006107cf610693565b8210610810576040517f08c379a000000000000000000000000000000000000000000000000000000000815260040161080790612920565b60405180910390fd5b6008828154811061084a577f4e487b7100000000000000000000000000000000000000000000000000000000600052603260045260246000fd5b90600052602060002001549050919050565b6000806002600084815260200190815260200160002060009054906101000a900473ffffffffffffffffffffffffffffffffffffffff169050600073ffffffffffffffffffffffffffffffffffffffff168173ffffffffffffffffffffffffffffffffffffffff161415610905576040517f08c379a00000000000000000000000000000000000000000000000000000000081526004016108fc90612840565b60405180910390fd5b80915050919050565b60008073ffffffffffffffffffffffffffffffffffffffff168273ffffffffffffffffffffffffffffffffffffffff16141561097f576040517f08c379a000000000000000000000000000000000000000000000000000000000815260040161097690612820565b60405180910390fd5b600360008373ffffffffffffffffffffffffffffffffffffffff1673ffffffffffffffffffffffffffffffffffffffff168152602001908152602001600020549050919050565b6060600180546109d590612b96565b80601f0160208091040260200160405190810160405280929190818152602001828054610a0190612b96565b8015610a4e5780601f10610a2357610100808354040283529160200191610a4e565b820191906000526020600020905b815481529060010190602001808311610a3157829003601f168201915b5050505050905090565b610a6061103d565b73ffffffffffffffffffffffffffffffffffffffff168273ffffffffffffffffffffffffffffffffffffffff161415610ace576040517f08c379a0000000000000000000000000000000000000000000000000000000008152600401610ac5906127c0565b60405180910390fd5b8060056000610adb61103d565b73ffffffffffffffffffffffffffffffffffffffff1673ffffffffffffffffffffffffffffffffffffffff16815260200190815260200160002060008473ffffffffffffffffffffffffffffffffffffffff1673ffffffffffffffffffffffffffffffffffffffff16815260200190815260200160002060006101000a81548160ff0219169083151502179055508173ffffffffffffffffffffffffffffffffffffffff16610b8861103d565b73ffffffffffffffffffffffffffffffffffffffff167f17307eab39ab6107e8899845ad3d59bd9653f200f220920489ca2b5937696c3183604051610bcd9190612703565b60405180910390a35050565b610bea610be461103d565b836110fe565b610c29576040517f08c379a0000000000000000000000000000000000000000000000000000000008152600401610c2090612900565b60405180910390fd5b610c3584848484611438565b50505050565b600a8181548110610c4b57600080fd5b906000526020600020016000915090508054610c6690612b96565b80601f0160208091040260200160405190810160405280929190818152602001828054610c9290612b96565b8015610cdf5780601f10610cb457610100808354040283529160200191610cdf565b820191906000526020600020905b815481529060010190602001808311610cc257829003601f168201915b505050505081565b6060610cf282610fd1565b610d31576040517f08c379a0000000000000000000000000000000000000000000000000000000008152600401610d28906128c0565b60405180910390fd5b6000610d3b611494565b90506000815111610d5b5760405180602001604052806000815250610d86565b80610d65846114ab565b604051602001610d76929190612678565b6040516020818303038152906040525b915050919050565b600b81604051610d9e9190612661565b908152602001604051809103902060009054906101000a900460ff1615610dc457600080fd5b600a81908060018154018082558091505060019003906000526020600020016000909190919091509080519060200190610dff929190611f22565b5060006001600a80549050610e149190612aac565b9050610e203382611677565b6001600b83604051610e329190612661565b908152602001604051809103902060006101000a81548160ff0219169083151502179055505050565b6000600560008473ffffffffffffffffffffffffffffffffffffffff1673ffffffffffffffffffffffffffffffffffffffff16815260200190815260200160002060008373ffffffffffffffffffffffffffffffffffffffff1673ffffffffffffffffffffffffffffffffffffffff16815260200190815260200160002060009054906101000a900460ff16905092915050565b60007f80ac58cd000000000000000000000000000000000000000000000000000000007bffffffffffffffffffffffffffffffffffffffffffffffffffffffff1916827bffffffffffffffffffffffffffffffffffffffffffffffffffffffff19161480610fba57507f5b5e139f000000000000000000000000000000000000000000000000000000007bffffffffffffffffffffffffffffffffffffffffffffffffffffffff1916827bffffffffffffffffffffffffffffffffffffffffffffffffffffffff1916145b80610fca5750610fc982611845565b5b9050919050565b60008073ffffffffffffffffffffffffffffffffffffffff166002600084815260200190815260200160002060009054906101000a900473ffffffffffffffffffffffffffffffffffffffff1673ffffffffffffffffffffffffffffffffffffffff1614159050919050565b600033905090565b816004600083815260200190815260200160002060006101000a81548173ffffffffffffffffffffffffffffffffffffffff021916908373ffffffffffffffffffffffffffffffffffffffff160217905550808273ffffffffffffffffffffffffffffffffffffffff166110b88361085c565b73ffffffffffffffffffffffffffffffffffffffff167f8c5be1e5ebec7d5bd14f71427d1e84f3dd0314c0f7b2291e5b200ac8c7c3b92560405160405180910390a45050565b600061110982610fd1565b611148576040517f08c379a000000000000000000000000000000000000000000000000000000000815260040161113f906127e0565b60405180910390fd5b60006111538361085c565b90508073ffffffffffffffffffffffffffffffffffffffff168473ffffffffffffffffffffffffffffffffffffffff1614806111c257508373ffffffffffffffffffffffffffffffffffffffff166111aa846104f6565b73ffffffffffffffffffffffffffffffffffffffff16145b806111d357506111d28185610e5b565b5b91505092915050565b8273ffffffffffffffffffffffffffffffffffffffff166111fc8261085c565b73ffffffffffffffffffffffffffffffffffffffff1614611252576040517f08c379a0000000000000000000000000000000000000000000000000000000008152600401611249906128a0565b60405180910390fd5b600073ffffffffffffffffffffffffffffffffffffffff168273ffffffffffffffffffffffffffffffffffffffff1614156112c2576040517f08c379a00000000000000000000000000000000000000000000000000000000081526004016112b9906127a0565b60405180910390fd5b6112cd8383836118af565b6112d8600082611045565b6001600360008573ffffffffffffffffffffffffffffffffffffffff1673ffffffffffffffffffffffffffffffffffffffff16815260200190815260200160002060008282546113289190612aac565b925050819055506001600360008473ffffffffffffffffffffffffffffffffffffffff1673ffffffffffffffffffffffffffffffffffffffff168152602001908152602001600020600082825461137f9190612a25565b92505081905550816002600083815260200190815260200160002060006101000a81548173ffffffffffffffffffffffffffffffffffffffff021916908373ffffffffffffffffffffffffffffffffffffffff160217905550808273ffffffffffffffffffffffffffffffffffffffff168473ffffffffffffffffffffffffffffffffffffffff167fddf252ad1be2c89b69c2b068fc378daa952ba7f163c4a11628f55a4df523b3ef60405160405180910390a4505050565b6114438484846111dc565b61144f848484846119c3565b61148e576040517f08c379a000000000000000000000000000000000000000000000000000000000815260040161148590612760565b60405180910390fd5b50505050565b606060405180602001604052806000815250905090565b606060008214156114f3576040518060400160405280600181526020017f30000000000000000000000000000000000000000000000000000000000000008152509050611672565b600082905060005b6000821461152557808061150e90612bf9565b915050600a8261151e9190612a7b565b91506114fb565b60008167ffffffffffffffff811115611567577f4e487b7100000000000000000000000000000000000000000000000000000000600052604160045260246000fd5b6040519080825280601f01601f1916602001820160405280156115995781602001600182028036833780820191505090505b5090505b6000851461166b576001826115b29190612aac565b9150600a856115c19190612c42565b60306115cd9190612a25565b7f010000000000000000000000000000000000000000000000000000000000000002818381518110611628577f4e487b7100000000000000000000000000000000000000000000000000000000600052603260045260246000fd5b60200101907effffffffffffffffffffffffffffffffffffffffffffffffffffffffffffff1916908160001a905350600a856116649190612a7b565b945061159d565b8093505050505b919050565b600073ffffffffffffffffffffffffffffffffffffffff168273ffffffffffffffffffffffffffffffffffffffff1614156116e7576040517f08c379a00000000000000000000000000000000000000000000000000000000081526004016116de90612860565b60405180910390fd5b6116f081610fd1565b15611730576040517f08c379a000000000000000000000000000000000000000000000000000000000815260040161172790612780565b60405180910390fd5b61173c600083836118af565b6001600360008473ffffffffffffffffffffffffffffffffffffffff1673ffffffffffffffffffffffffffffffffffffffff168152602001908152602001600020600082825461178c9190612a25565b92505081905550816002600083815260200190815260200160002060006101000a81548173ffffffffffffffffffffffffffffffffffffffff021916908373ffffffffffffffffffffffffffffffffffffffff160217905550808273ffffffffffffffffffffffffffffffffffffffff16600073ffffffffffffffffffffffffffffffffffffffff167fddf252ad1be2c89b69c2b068fc378daa952ba7f163c4a11628f55a4df523b3ef60405160405180910390a45050565b60007f01ffc9a7000000000000000000000000000000000000000000000000000000007bffffffffffffffffffffffffffffffffffffffffffffffffffffffff1916827bffffffffffffffffffffffffffffffffffffffffffffffffffffffff1916149050919050565b6118ba838383611b92565b600073ffffffffffffffffffffffffffffffffffffffff168373ffffffffffffffffffffffffffffffffffffffff1614156118fd576118f881611b97565b61193c565b8173ffffffffffffffffffffffffffffffffffffffff168373ffffffffffffffffffffffffffffffffffffffff161461193b5761193a8382611be0565b5b5b600073ffffffffffffffffffffffffffffffffffffffff168273ffffffffffffffffffffffffffffffffffffffff16141561197f5761197a81611d4d565b6119be565b8273ffffffffffffffffffffffffffffffffffffffff168273ffffffffffffffffffffffffffffffffffffffff16146119bd576119bc8282611e90565b5b5b505050565b60006119e48473ffffffffffffffffffffffffffffffffffffffff16611f0f565b15611b85578373ffffffffffffffffffffffffffffffffffffffff1663150b7a02611a0d61103d565b8786866040518563ffffffff167c0100000000000000000000000000000000000000000000000000000000028152600401611a4b94939291906126b7565b602060405180830381600087803b158015611a6557600080fd5b505af1925050508015611a9657506040513d601f19601f82011682018060405250810190611a9391906122ce565b60015b611b19573d8060008114611ac6576040519150601f19603f3d011682016040523d82523d6000602084013e611acb565b606091505b50600081511415611b11576040517f08c379a0000000000000000000000000000000000000000000000000000000008152600401611b0890612760565b60405180910390fd5b805181602001fd5b63150b7a027c0100000000000000000000000000000000000000000000000000000000027bffffffffffffffffffffffffffffffffffffffffffffffffffffffff1916817bffffffffffffffffffffffffffffffffffffffffffffffffffffffff191614915050611b8a565b600190505b949350505050565b505050565b6008805490506009600083815260200190815260200160002081905550600881908060018154018082558091505060019003906000526020600020016000909190919091505550565b60006001611bed8461090e565b611bf79190612aac565b9050600060076000848152602001908152602001600020549050818114611cdc576000600660008673ffffffffffffffffffffffffffffffffffffffff1673ffffffffffffffffffffffffffffffffffffffff168152602001908152602001600020600084815260200190815260200160002054905080600660008773ffffffffffffffffffffffffffffffffffffffff1673ffffffffffffffffffffffffffffffffffffffff168152602001908152602001600020600084815260200190815260200160002081905550816007600083815260200190815260200160002081905550505b6007600084815260200190815260200160002060009055600660008573ffffffffffffffffffffffffffffffffffffffff1673ffffffffffffffffffffffffffffffffffffffff16815260200190815260200160002060008381526020019081526020016000206000905550505050565b60006001600880549050611d619190612aac565b9050600060096000848152602001908152602001600020549050600060088381548110611db7577f4e487b7100000000000000000000000000000000000000000000000000000000600052603260045260246000fd5b906000526020600020015490508060088381548110611dff577f4e487b7100000000000000000000000000000000000000000000000000000000600052603260045260246000fd5b906000526020600020018190555081600960008381526020019081526020016000208190555060096000858152602001908152602001600020600090556008805480611e74577f4e487b7100000000000000000000000000000000000000000000000000000000600052603160045260246000fd5b6001900381819060005260206000200160009055905550505050565b6000611e9b8361090e565b905081600660008573ffffffffffffffffffffffffffffffffffffffff1673ffffffffffffffffffffffffffffffffffffffff168152602001908152602001600020600083815260200190815260200160002081905550806007600084815260200190815260200160002081905550505050565b600080823b905060008111915050919050565b828054611f2e90612b96565b90600052602060002090601f016020900481019282611f505760008555611f97565b82601f10611f6957805160ff1916838001178555611f97565b82800160010185558215611f97579182015b82811115611f96578251825591602001919060010190611f7b565b5b509050611fa49190611fa8565b5090565b5b80821115611fc1576000816000905550600101611fa9565b5090565b6000611fd8611fd384612980565b61295b565b905082815260208101848484011115611ff057600080fd5b611ffb848285612b54565b509392505050565b6000612016612011846129b1565b61295b565b90508281526020810184848401111561202e57600080fd5b612039848285612b54565b509392505050565b600081359050612050816131be565b92915050565b600081359050612065816131d5565b92915050565b60008135905061207a816131ec565b92915050565b60008151905061208f816131ec565b92915050565b600082601f8301126120a657600080fd5b81356120b6848260208601611fc5565b91505092915050565b600082601f8301126120d057600080fd5b81356120e0848260208601612003565b91505092915050565b6000813590506120f881613203565b92915050565b60006020828403121561211057600080fd5b600061211e84828501612041565b91505092915050565b6000806040838503121561213a57600080fd5b600061214885828601612041565b925050602061215985828601612041565b9150509250929050565b60008060006060848603121561217857600080fd5b600061218686828701612041565b935050602061219786828701612041565b92505060406121a8868287016120e9565b9150509250925092565b600080600080608085870312156121c857600080fd5b60006121d687828801612041565b94505060206121e787828801612041565b93505060406121f8878288016120e9565b925050606085013567ffffffffffffffff81111561221557600080fd5b61222187828801612095565b91505092959194509250565b6000806040838503121561224057600080fd5b600061224e85828601612041565b925050602061225f85828601612056565b9150509250929050565b6000806040838503121561227c57600080fd5b600061228a85828601612041565b925050602061229b858286016120e9565b9150509250929050565b6000602082840312156122b757600080fd5b60006122c58482850161206b565b91505092915050565b6000602082840312156122e057600080fd5b60006122ee84828501612080565b91505092915050565b60006020828403121561230957600080fd5b600082013567ffffffffffffffff81111561232357600080fd5b61232f848285016120bf565b91505092915050565b60006020828403121561234a57600080fd5b6000612358848285016120e9565b91505092915050565b61236a81612ae0565b82525050565b61237981612af2565b82525050565b600061238a826129e2565b61239481856129f8565b93506123a4818560208601612b63565b6123ad81612d2f565b840191505092915050565b60006123c3826129ed565b6123cd8185612a09565b93506123dd818560208601612b63565b6123e681612d2f565b840191505092915050565b60006123fc826129ed565b6124068185612a1a565b9350612416818560208601612b63565b80840191505092915050565b600061242f602b83612a09565b915061243a82612d40565b604082019050919050565b6000612452603283612a09565b915061245d82612d8f565b604082019050919050565b6000612475601c83612a09565b915061248082612dde565b602082019050919050565b6000612498602483612a09565b91506124a382612e07565b604082019050919050565b60006124bb601983612a09565b91506124c682612e56565b602082019050919050565b60006124de602c83612a09565b91506124e982612e7f565b604082019050919050565b6000612501603883612a09565b915061250c82612ece565b604082019050919050565b6000612524602a83612a09565b915061252f82612f1d565b604082019050919050565b6000612547602983612a09565b915061255282612f6c565b604082019050919050565b600061256a602083612a09565b915061257582612fbb565b602082019050919050565b600061258d602c83612a09565b915061259882612fe4565b604082019050919050565b60006125b0602983612a09565b91506125bb82613033565b604082019050919050565b60006125d3602f83612a09565b91506125de82613082565b604082019050919050565b60006125f6602183612a09565b9150612601826130d1565b604082019050919050565b6000612619603183612a09565b915061262482613120565b604082019050919050565b600061263c602c83612a09565b91506126478261316f565b604082019050919050565b61265b81612b4a565b82525050565b600061266d82846123f1565b915081905092915050565b600061268482856123f1565b915061269082846123f1565b91508190509392505050565b60006020820190506126b16000830184612361565b92915050565b60006080820190506126cc6000830187612361565b6126d96020830186612361565b6126e66040830185612652565b81810360608301526126f8818461237f565b905095945050505050565b60006020820190506127186000830184612370565b92915050565b6000602082019050818103600083015261273881846123b8565b905092915050565b6000602082019050818103600083015261275981612422565b9050919050565b6000602082019050818103600083015261277981612445565b9050919050565b6000602082019050818103600083015261279981612468565b9050919050565b600060208201905081810360008301526127b98161248b565b9050919050565b600060208201905081810360008301526127d9816124ae565b9050919050565b600060208201905081810360008301526127f9816124d1565b9050919050565b60006020820190508181036000830152612819816124f4565b9050919050565b6000602082019050818103600083015261283981612517565b9050919050565b600060208201905081810360008301526128598161253a565b9050919050565b600060208201905081810360008301526128798161255d565b9050919050565b6000602082019050818103600083015261289981612580565b9050919050565b600060208201905081810360008301526128b9816125a3565b9050919050565b600060208201905081810360008301526128d9816125c6565b9050919050565b600060208201905081810360008301526128f9816125e9565b9050919050565b600060208201905081810360008301526129198161260c565b9050919050565b600060208201905081810360008301526129398161262f565b9050919050565b60006020820190506129556000830184612652565b92915050565b6000612965612976565b90506129718282612bc8565b919050565b6000604051905090565b600067ffffffffffffffff82111561299b5761299a612d00565b5b6129a482612d2f565b9050602081019050919050565b600067ffffffffffffffff8211156129cc576129cb612d00565b5b6129d582612d2f565b9050602081019050919050565b600081519050919050565b600081519050919050565b600082825260208201905092915050565b600082825260208201905092915050565b600081905092915050565b6000612a3082612b4a565b9150612a3b83612b4a565b9250827fffffffffffffffffffffffffffffffffffffffffffffffffffffffffffffffff03821115612a7057612a6f612c73565b5b828201905092915050565b6000612a8682612b4a565b9150612a9183612b4a565b925082612aa157612aa0612ca2565b5b828204905092915050565b6000612ab782612b4a565b9150612ac283612b4a565b925082821015612ad557612ad4612c73565b5b828203905092915050565b6000612aeb82612b2a565b9050919050565b60008115159050919050565b60007fffffffff0000000000000000000000000000000000000000000000000000000082169050919050565b600073ffffffffffffffffffffffffffffffffffffffff82169050919050565b6000819050919050565b82818337600083830152505050565b60005b83811015612b81578082015181840152602081019050612b66565b83811115612b90576000848401525b50505050565b60006002820490506001821680612bae57607f821691505b60208210811415612bc257612bc1612cd1565b5b50919050565b612bd182612d2f565b810181811067ffffffffffffffff82111715612bf057612bef612d00565b5b80604052505050565b6000612c0482612b4a565b91507fffffffffffffffffffffffffffffffffffffffffffffffffffffffffffffffff821415612c3757612c36612c73565b5b600182019050919050565b6000612c4d82612b4a565b9150612c5883612b4a565b925082612c6857612c67612ca2565b5b828206905092915050565b7f4e487b7100000000000000000000000000000000000000000000000000000000600052601160045260246000fd5b7f4e487b7100000000000000000000000000000000000000000000000000000000600052601260045260246000fd5b7f4e487b7100000000000000000000000000000000000000000000000000000000600052602260045260246000fd5b7f4e487b7100000000000000000000000000000000000000000000000000000000600052604160045260246000fd5b6000601f19601f8301169050919050565b7f455243373231456e756d657261626c653a206f776e657220696e646578206f7560008201527f74206f6620626f756e6473000000000000000000000000000000000000000000602082015250565b7f4552433732313a207472616e7366657220746f206e6f6e20455243373231526560008201527f63656976657220696d706c656d656e7465720000000000000000000000000000602082015250565b7f4552433732313a20746f6b656e20616c7265616479206d696e74656400000000600082015250565b7f4552433732313a207472616e7366657220746f20746865207a65726f2061646460008201527f7265737300000000000000000000000000000000000000000000000000000000602082015250565b7f4552433732313a20617070726f766520746f2063616c6c657200000000000000600082015250565b7f4552433732313a206f70657261746f7220717565727920666f72206e6f6e657860008201527f697374656e7420746f6b656e0000000000000000000000000000000000000000602082015250565b7f4552433732313a20617070726f76652063616c6c6572206973206e6f74206f7760008201527f6e6572206e6f7220617070726f76656420666f7220616c6c0000000000000000602082015250565b7f4552433732313a2062616c616e636520717565727920666f7220746865207a6560008201527f726f206164647265737300000000000000000000000000000000000000000000602082015250565b7f4552433732313a206f776e657220717565727920666f72206e6f6e657869737460008201527f656e7420746f6b656e0000000000000000000000000000000000000000000000602082015250565b7f4552433732313a206d696e7420746f20746865207a65726f2061646472657373600082015250565b7f4552433732313a20617070726f76656420717565727920666f72206e6f6e657860008201527f697374656e7420746f6b656e0000000000000000000000000000000000000000602082015250565b7f4552433732313a207472616e73666572206f6620746f6b656e2074686174206960008201527f73206e6f74206f776e0000000000000000000000000000000000000000000000602082015250565b7f4552433732314d657461646174613a2055524920717565727920666f72206e6f60008201527f6e6578697374656e7420746f6b656e0000000000000000000000000000000000602082015250565b7f4552433732313a20617070726f76616c20746f2063757272656e74206f776e6560008201527f7200000000000000000000000000000000000000000000000000000000000000602082015250565b7f4552433732313a207472616e736665722063616c6c6572206973206e6f74206f60008201527f776e6572206e6f7220617070726f766564000000000000000000000000000000602082015250565b7f455243373231456e756d657261626c653a20676c6f62616c20696e646578206f60008201527f7574206f6620626f756e64730000000000000000000000000000000000000000602082015250565b6131c781612ae0565b81146131d257600080fd5b50565b6131de81612af2565b81146131e957600080fd5b50565b6131f581612afe565b811461320057600080fd5b50565b61320c81612b4a565b811461321757600080fd5b5056fea26469706673582212207de2ed82260f183e2f815ece494cf81e47fb5b107bc361e655db45f11a90091364736f6c63430008030033",
  "immutableReferences": {},
  "source": "// SPDX-License-Identifier: MIT\npragma solidity ^0.8.0;\n\nimport \"@openzeppelin/contracts/token/ERC721/ERC721.sol\";\nimport \"@openzeppelin/contracts/token/ERC721/extensions/ERC721Enumerable.sol\";\n\ncontract Color is ERC721Enumerable {\n    string[] public colors;\n    mapping(string => bool) _colorExists;\n\n    constructor() ERC721(\"Color\", \"COLORS\") {}\n\n    // TODO: only minter should be able to mint\n    // Create a new color given a color name\n    function mint(string memory _color) public {\n        // Require unique color\n        require(!_colorExists[_color]);\n\n        // Add the color\n        colors.push(_color);\n        uint _id = colors.length - 1;\n\n        // Mint\n        _mint(msg.sender, _id);\n\n        // Track it in the mapping\n        _colorExists[_color] = true;\n    }\n}",
  "sourcePath": "/Users/ivanmontiel/Desktop/workspace/nft-tutorial/nft/src/contracts/Color.sol",
  "compiler": {
    "name": "solc",
    "version": "0.8.3+commit.8d00100c.Emscripten.clang"
  },
  "schemaVersion": "3.3.4",
  "updatedAt": "2021-09-01T03:22:35.492Z",
  "networkType": "ethereum",
  "devdoc": {
    "kind": "dev",
    "methods": {
      "approve(address,uint256)": {
        "details": "See {IERC721-approve}."
      },
      "balanceOf(address)": {
        "details": "See {IERC721-balanceOf}."
      },
      "getApproved(uint256)": {
        "details": "See {IERC721-getApproved}."
      },
      "isApprovedForAll(address,address)": {
        "details": "See {IERC721-isApprovedForAll}."
      },
      "name()": {
        "details": "See {IERC721Metadata-name}."
      },
      "ownerOf(uint256)": {
        "details": "See {IERC721-ownerOf}."
      },
      "safeTransferFrom(address,address,uint256)": {
        "details": "See {IERC721-safeTransferFrom}."
      },
      "safeTransferFrom(address,address,uint256,bytes)": {
        "details": "See {IERC721-safeTransferFrom}."
      },
      "setApprovalForAll(address,bool)": {
        "details": "See {IERC721-setApprovalForAll}."
      },
      "supportsInterface(bytes4)": {
        "details": "See {IERC165-supportsInterface}."
      },
      "symbol()": {
        "details": "See {IERC721Metadata-symbol}."
      },
      "tokenByIndex(uint256)": {
        "details": "See {IERC721Enumerable-tokenByIndex}."
      },
      "tokenOfOwnerByIndex(address,uint256)": {
        "details": "See {IERC721Enumerable-tokenOfOwnerByIndex}."
      },
      "tokenURI(uint256)": {
        "details": "See {IERC721Metadata-tokenURI}."
      },
      "totalSupply()": {
        "details": "See {IERC721Enumerable-totalSupply}."
      },
      "transferFrom(address,address,uint256)": {
        "details": "See {IERC721-transferFrom}."
      }
    },
    "version": 1
  },
  "userdoc": {
    "kind": "user",
    "methods": {},
    "version": 1
  }
}