{
  "contractName": "Color",
  "abi": [
    {
      "inputs": [],
      "stateMutability": "nonpayable",
      "type": "constructor"
    },
    {
      "anonymous": false,
      "inputs": [
        {
          "indexed": true,
          "internalType": "address",
          "name": "owner",
          "type": "address"
        },
        {
          "indexed": true,
          "internalType": "address",
          "name": "approved",
          "type": "address"
        },
        {
          "indexed": true,
          "internalType": "uint256",
          "name": "tokenId",
          "type": "uint256"
        }
      ],
      "name": "Approval",
      "type": "event"
    },
    {
      "anonymous": false,
      "inputs": [
        {
          "indexed": true,
          "internalType": "address",
          "name": "owner",
          "type": "address"
        },
        {
          "indexed": true,
          "internalType": "address",
          "name": "operator",
          "type": "address"
        },
        {
          "indexed": false,
          "internalType": "bool",
          "name": "approved",
          "type": "bool"
        }
      ],
      "name": "ApprovalForAll",
      "type": "event"
    },
    {
      "anonymous": false,
      "inputs": [
        {
          "indexed": true,
          "internalType": "address",
          "name": "from",
          "type": "address"
        },
        {
          "indexed": true,
          "internalType": "address",
          "name": "to",
          "type": "address"
        },
        {
          "indexed": true,
          "internalType": "uint256",
          "name": "tokenId",
          "type": "uint256"
        }
      ],
      "name": "Transfer",
      "type": "event"
    },
    {
      "inputs": [
        {
          "internalType": "address",
          "name": "to",
          "type": "address"
        },
        {
          "internalType": "uint256",
          "name": "tokenId",
          "type": "uint256"
        }
      ],
      "name": "approve",
      "outputs": [],
      "stateMutability": "nonpayable",
      "type": "function"
    },
    {
      "inputs": [
        {
          "internalType": "address",
          "name": "owner",
          "type": "address"
        }
      ],
      "name": "balanceOf",
      "outputs": [
        {
          "internalType": "uint256",
          "name": "",
          "type": "uint256"
        }
      ],
      "stateMutability": "view",
      "type": "function",
      "constant": true
    },
    {
      "inputs": [
        {
          "internalType": "uint256",
          "name": "",
          "type": "uint256"
        }
      ],
      "name": "colors",
      "outputs": [
        {
          "internalType": "string",
          "name": "",
          "type": "string"
        }
      ],
      "stateMutability": "view",
      "type": "function",
      "constant": true
    },
    {
      "inputs": [
        {
          "internalType": "uint256",
          "name": "tokenId",
          "type": "uint256"
        }
      ],
      "name": "getApproved",
      "outputs": [
        {
          "internalType": "address",
          "name": "",
          "type": "address"
        }
      ],
      "stateMutability": "view",
      "type": "function",
      "constant": true
    },
    {
      "inputs": [
        {
          "internalType": "address",
          "name": "owner",
          "type": "address"
        },
        {
          "internalType": "address",
          "name": "operator",
          "type": "address"
        }
      ],
      "name": "isApprovedForAll",
      "outputs": [
        {
          "internalType": "bool",
          "name": "",
          "type": "bool"
        }
      ],
      "stateMutability": "view",
      "type": "function",
      "constant": true
    },
    {
      "inputs": [],
      "name": "name",
      "outputs": [
        {
          "internalType": "string",
          "name": "",
          "type": "string"
        }
      ],
      "stateMutability": "view",
      "type": "function",
      "constant": true
    },
    {
      "inputs": [
        {
          "internalType": "uint256",
          "name": "tokenId",
          "type": "uint256"
        }
      ],
      "name": "ownerOf",
      "outputs": [
        {
          "internalType": "address",
          "name": "",
          "type": "address"
        }
      ],
      "stateMutability": "view",
      "type": "function",
      "constant": true
    },
    {
      "inputs": [
        {
          "internalType": "address",
          "name": "from",
          "type": "address"
        },
        {
          "internalType": "address",
          "name": "to",
          "type": "address"
        },
        {
          "internalType": "uint256",
          "name": "tokenId",
          "type": "uint256"
        }
      ],
      "name": "safeTransferFrom",
      "outputs": [],
      "stateMutability": "nonpayable",
      "type": "function"
    },
    {
      "inputs": [
        {
          "internalType": "address",
          "name": "from",
          "type": "address"
        },
        {
          "internalType": "address",
          "name": "to",
          "type": "address"
        },
        {
          "internalType": "uint256",
          "name": "tokenId",
          "type": "uint256"
        },
        {
          "internalType": "bytes",
          "name": "_data",
          "type": "bytes"
        }
      ],
      "name": "safeTransferFrom",
      "outputs": [],
      "stateMutability": "nonpayable",
      "type": "function"
    },
    {
      "inputs": [
        {
          "internalType": "address",
          "name": "operator",
          "type": "address"
        },
        {
          "internalType": "bool",
          "name": "approved",
          "type": "bool"
        }
      ],
      "name": "setApprovalForAll",
      "outputs": [],
      "stateMutability": "nonpayable",
      "type": "function"
    },
    {
      "inputs": [
        {
          "internalType": "bytes4",
          "name": "interfaceId",
          "type": "bytes4"
        }
      ],
      "name": "supportsInterface",
      "outputs": [
        {
          "internalType": "bool",
          "name": "",
          "type": "bool"
        }
      ],
      "stateMutability": "view",
      "type": "function",
      "constant": true
    },
    {
      "inputs": [],
      "name": "symbol",
      "outputs": [
        {
          "internalType": "string",
          "name": "",
          "type": "string"
        }
      ],
      "stateMutability": "view",
      "type": "function",
      "constant": true
    },
    {
      "inputs": [
        {
          "internalType": "uint256",
          "name": "index",
          "type": "uint256"
        }
      ],
      "name": "tokenByIndex",
      "outputs": [
        {
          "internalType": "uint256",
          "name": "",
          "type": "uint256"
        }
      ],
      "stateMutability": "view",
      "type": "function",
      "constant": true
    },
    {
      "inputs": [
        {
          "internalType": "address",
          "name": "owner",
          "type": "address"
        },
        {
          "internalType": "uint256",
          "name": "index",
          "type": "uint256"
        }
      ],
      "name": "tokenOfOwnerByIndex",
      "outputs": [
        {
          "internalType": "uint256",
          "name": "",
          "type": "uint256"
        }
      ],
      "stateMutability": "view",
      "type": "function",
      "constant": true
    },
    {
      "inputs": [
        {
          "internalType": "uint256",
          "name": "tokenId",
          "type": "uint256"
        }
      ],
      "name": "tokenURI",
      "outputs": [
        {
          "internalType": "string",
          "name": "",
          "type": "string"
        }
      ],
      "stateMutability": "view",
      "type": "function",
      "constant": true
    },
    {
      "inputs": [],
      "name": "totalSupply",
      "outputs": [
        {
          "internalType": "uint256",
          "name": "",
          "type": "uint256"
        }
      ],
      "stateMutability": "view",
      "type": "function",
      "constant": true
    },
    {
      "inputs": [
        {
          "internalType": "address",
          "name": "from",
          "type": "address"
        },
        {
          "internalType": "address",
          "name": "to",
          "type": "address"
        },
        {
          "internalType": "uint256",
          "name": "tokenId",
          "type": "uint256"
        }
      ],
      "name": "transferFrom",
      "outputs": [],
      "stateMutability": "nonpayable",
      "type": "function"
    },
    {
      "inputs": [
        {
          "internalType": "string",
          "name": "_color",
          "type": "string"
        }
      ],
      "name": "mint",
      "outputs": [],
      "stateMutability": "nonpayable",
      "type": "function"
    }
  ],
  "bytecode": "0x60806040523480156200001157600080fd5b50604080518082018252600581526421b7b637b960d91b602080830191825283518085019094526006845265434f4c4f525360d01b9084015281519192916200005d916000916200007c565b508051620000739060019060208401906200007c565b5050506200015f565b8280546200008a9062000122565b90600052602060002090601f016020900481019282620000ae5760008555620000f9565b82601f10620000c957805160ff1916838001178555620000f9565b82800160010185558215620000f9579182015b82811115620000f9578251825591602001919060010190620000dc565b50620001079291506200010b565b5090565b5b808211156200010757600081556001016200010c565b600181811c908216806200013757607f821691505b602082108114156200015957634e487b7160e01b600052602260045260246000fd5b50919050565b611cc8806200016f6000396000f3fe608060405234801561001057600080fd5b50600436106101365760003560e01c80636352211e116100b2578063b88d4fde11610081578063c87b56dd11610066578063c87b56dd1461027d578063d85d3d2714610290578063e985e9c5146102a357610136565b8063b88d4fde14610257578063bd11f69d1461026a57610136565b80636352211e1461021657806370a082311461022957806395d89b411461023c578063a22cb4651461024457610136565b806318160ddd116101095780632f745c59116100ee5780632f745c59146101dd57806342842e0e146101f05780634f6ccce71461020357610136565b806318160ddd146101b857806323b872dd146101ca57610136565b806301ffc9a71461013b57806306fdde0314610163578063081812fc14610178578063095ea7b3146101a3575b600080fd5b61014e610149366004611a02565b6102df565b60405190151581526020015b60405180910390f35b61016b610325565b60405161015a9190611b4b565b61018b610186366004611a80565b6103b7565b6040516001600160a01b03909116815260200161015a565b6101b66101b13660046119d9565b610451565b005b6008545b60405190815260200161015a565b6101b66101d83660046118eb565b610583565b6101bc6101eb3660046119d9565b61060a565b6101b66101fe3660046118eb565b6106b2565b6101bc610211366004611a80565b6106cd565b61018b610224366004611a80565b61077f565b6101bc61023736600461189f565b61080a565b61016b6108a4565b6101b661025236600461199f565b6108b3565b6101b6610265366004611926565b610985565b61016b610278366004611a80565b610a13565b61016b61028b366004611a80565b610abf565b6101b661029e366004611a3a565b610bb5565b61014e6102b13660046118b9565b6001600160a01b03918216600090815260056020908152604080832093909416825291909152205460ff1690565b60006001600160e01b031982167f780e9d6300000000000000000000000000000000000000000000000000000000148061031d575061031d82610c7a565b90505b919050565b60606000805461033490611bcd565b80601f016020809104026020016040519081016040528092919081815260200182805461036090611bcd565b80156103ad5780601f10610382576101008083540402835291602001916103ad565b820191906000526020600020905b81548152906001019060200180831161039057829003601f168201915b5050505050905090565b6000818152600260205260408120546001600160a01b03166104355760405162461bcd60e51b815260206004820152602c60248201527f4552433732313a20617070726f76656420717565727920666f72206e6f6e657860448201526b34b9ba32b73a103a37b5b2b760a11b60648201526084015b60405180910390fd5b506000908152600460205260409020546001600160a01b031690565b600061045c8261077f565b9050806001600160a01b0316836001600160a01b031614156104e65760405162461bcd60e51b815260206004820152602160248201527f4552433732313a20617070726f76616c20746f2063757272656e74206f776e6560448201527f7200000000000000000000000000000000000000000000000000000000000000606482015260840161042c565b336001600160a01b0382161480610502575061050281336102b1565b6105745760405162461bcd60e51b815260206004820152603860248201527f4552433732313a20617070726f76652063616c6c6572206973206e6f74206f7760448201527f6e6572206e6f7220617070726f76656420666f7220616c6c0000000000000000606482015260840161042c565b61057e8383610d15565b505050565b61058d3382610d90565b6105ff5760405162461bcd60e51b815260206004820152603160248201527f4552433732313a207472616e736665722063616c6c6572206973206e6f74206f60448201527f776e6572206e6f7220617070726f766564000000000000000000000000000000606482015260840161042c565b61057e838383610e87565b60006106158361080a565b82106106895760405162461bcd60e51b815260206004820152602b60248201527f455243373231456e756d657261626c653a206f776e657220696e646578206f7560448201527f74206f6620626f756e6473000000000000000000000000000000000000000000606482015260840161042c565b506001600160a01b03919091166000908152600660209081526040808320938352929052205490565b61057e83838360405180602001604052806000815250610985565b60006106d860085490565b821061074c5760405162461bcd60e51b815260206004820152602c60248201527f455243373231456e756d657261626c653a20676c6f62616c20696e646578206f60448201527f7574206f6620626f756e64730000000000000000000000000000000000000000606482015260840161042c565b6008828154811061076d57634e487b7160e01b600052603260045260246000fd5b90600052602060002001549050919050565b6000818152600260205260408120546001600160a01b03168061031d5760405162461bcd60e51b815260206004820152602960248201527f4552433732313a206f776e657220717565727920666f72206e6f6e657869737460448201527f656e7420746f6b656e0000000000000000000000000000000000000000000000606482015260840161042c565b60006001600160a01b0382166108885760405162461bcd60e51b815260206004820152602a60248201527f4552433732313a2062616c616e636520717565727920666f7220746865207a6560448201527f726f206164647265737300000000000000000000000000000000000000000000606482015260840161042c565b506001600160a01b031660009081526003602052604090205490565b60606001805461033490611bcd565b6001600160a01b03821633141561090c5760405162461bcd60e51b815260206004820152601960248201527f4552433732313a20617070726f766520746f2063616c6c657200000000000000604482015260640161042c565b3360008181526005602090815260408083206001600160a01b0387168085529252909120805460ff1916841515179055906001600160a01b03167f17307eab39ab6107e8899845ad3d59bd9653f200f220920489ca2b5937696c3183604051610979911515815260200190565b60405180910390a35050565b61098f3383610d90565b610a015760405162461bcd60e51b815260206004820152603160248201527f4552433732313a207472616e736665722063616c6c6572206973206e6f74206f60448201527f776e6572206e6f7220617070726f766564000000000000000000000000000000606482015260840161042c565b610a0d8484848461106c565b50505050565b600a8181548110610a2357600080fd5b906000526020600020016000915090508054610a3e90611bcd565b80601f0160208091040260200160405190810160405280929190818152602001828054610a6a90611bcd565b8015610ab75780601f10610a8c57610100808354040283529160200191610ab7565b820191906000526020600020905b815481529060010190602001808311610a9a57829003601f168201915b505050505081565b6000818152600260205260409020546060906001600160a01b0316610b4c5760405162461bcd60e51b815260206004820152602f60248201527f4552433732314d657461646174613a2055524920717565727920666f72206e6f60448201527f6e6578697374656e7420746f6b656e0000000000000000000000000000000000606482015260840161042c565b6000610b6360408051602081019091526000815290565b90506000815111610b835760405180602001604052806000815250610bae565b80610b8d846110f5565b604051602001610b9e929190611ae0565b6040516020818303038152906040525b9392505050565b600b81604051610bc59190611ac4565b9081526040519081900360200190205460ff1615610be257600080fd5b600a80546001810182556000919091528151610c25917fc65a7bb8d6351c1cf70c95a316cc6a92839c986682d98bc35f958f4883f9d2a801906020840190611779565b50600a54600090610c3890600190611b8a565b9050610c443382611244565b6001600b83604051610c569190611ac4565b908152604051908190036020019020805491151560ff199092169190911790555050565b60006001600160e01b031982167f80ac58cd000000000000000000000000000000000000000000000000000000001480610cdd57506001600160e01b031982167f5b5e139f00000000000000000000000000000000000000000000000000000000145b8061031d57507f01ffc9a7000000000000000000000000000000000000000000000000000000006001600160e01b031983161461031d565b6000818152600460205260409020805473ffffffffffffffffffffffffffffffffffffffff19166001600160a01b0384169081179091558190610d578261077f565b6001600160a01b03167f8c5be1e5ebec7d5bd14f71427d1e84f3dd0314c0f7b2291e5b200ac8c7c3b92560405160405180910390a45050565b6000818152600260205260408120546001600160a01b0316610e095760405162461bcd60e51b815260206004820152602c60248201527f4552433732313a206f70657261746f7220717565727920666f72206e6f6e657860448201526b34b9ba32b73a103a37b5b2b760a11b606482015260840161042c565b6000610e148361077f565b9050806001600160a01b0316846001600160a01b03161480610e4f5750836001600160a01b0316610e44846103b7565b6001600160a01b0316145b80610e7f57506001600160a01b0380821660009081526005602090815260408083209388168352929052205460ff165b949350505050565b826001600160a01b0316610e9a8261077f565b6001600160a01b031614610f165760405162461bcd60e51b815260206004820152602960248201527f4552433732313a207472616e73666572206f6620746f6b656e2074686174206960448201527f73206e6f74206f776e0000000000000000000000000000000000000000000000606482015260840161042c565b6001600160a01b038216610f915760405162461bcd60e51b8152602060048201526024808201527f4552433732313a207472616e7366657220746f20746865207a65726f2061646460448201527f7265737300000000000000000000000000000000000000000000000000000000606482015260840161042c565b610f9c83838361139f565b610fa7600082610d15565b6001600160a01b0383166000908152600360205260408120805460019290610fd0908490611b8a565b90915550506001600160a01b0382166000908152600360205260408120805460019290610ffe908490611b5e565b9091555050600081815260026020526040808220805473ffffffffffffffffffffffffffffffffffffffff19166001600160a01b0386811691821790925591518493918716917fddf252ad1be2c89b69c2b068fc378daa952ba7f163c4a11628f55a4df523b3ef91a4505050565b611077848484610e87565b6110838484848461145c565b610a0d5760405162461bcd60e51b815260206004820152603260248201527f4552433732313a207472616e7366657220746f206e6f6e20455243373231526560448201527f63656976657220696d706c656d656e7465720000000000000000000000000000606482015260840161042c565b606081611136575060408051808201909152600181527f30000000000000000000000000000000000000000000000000000000000000006020820152610320565b8160005b8115611160578061114a81611c08565b91506111599050600a83611b76565b915061113a565b60008167ffffffffffffffff81111561118957634e487b7160e01b600052604160045260246000fd5b6040519080825280601f01601f1916602001820160405280156111b3576020820181803683370190505b5090505b8415610e7f576111c8600183611b8a565b91506111d5600a86611c23565b6111e0906030611b5e565b60f81b81838151811061120357634e487b7160e01b600052603260045260246000fd5b60200101907effffffffffffffffffffffffffffffffffffffffffffffffffffffffffffff1916908160001a90535061123d600a86611b76565b94506111b7565b6001600160a01b03821661129a5760405162461bcd60e51b815260206004820181905260248201527f4552433732313a206d696e7420746f20746865207a65726f2061646472657373604482015260640161042c565b6000818152600260205260409020546001600160a01b0316156112ff5760405162461bcd60e51b815260206004820152601c60248201527f4552433732313a20746f6b656e20616c7265616479206d696e74656400000000604482015260640161042c565b61130b6000838361139f565b6001600160a01b0382166000908152600360205260408120805460019290611334908490611b5e565b9091555050600081815260026020526040808220805473ffffffffffffffffffffffffffffffffffffffff19166001600160a01b03861690811790915590518392907fddf252ad1be2c89b69c2b068fc378daa952ba7f163c4a11628f55a4df523b3ef908290a45050565b6001600160a01b0383166113fa576113f581600880546000838152600960205260408120829055600182018355919091527ff3f7a9fe364faab93b216da50a3214154f22a0a2b415b23a84c8169e8b636ee30155565b61141d565b816001600160a01b0316836001600160a01b03161461141d5761141d83826115bf565b6001600160a01b038216611439576114348161165c565b61057e565b826001600160a01b0316826001600160a01b03161461057e5761057e8282611735565b60006001600160a01b0384163b156115b457604051630a85bd0160e11b81526001600160a01b0385169063150b7a02906114a0903390899088908890600401611b0f565b602060405180830381600087803b1580156114ba57600080fd5b505af19250505080156114ea575060408051601f3d908101601f191682019092526114e791810190611a1e565b60015b61159a573d808015611518576040519150601f19603f3d011682016040523d82523d6000602084013e61151d565b606091505b5080516115925760405162461bcd60e51b815260206004820152603260248201527f4552433732313a207472616e7366657220746f206e6f6e20455243373231526560448201527f63656976657220696d706c656d656e7465720000000000000000000000000000606482015260840161042c565b805181602001fd5b6001600160e01b031916630a85bd0160e11b149050610e7f565b506001949350505050565b600060016115cc8461080a565b6115d69190611b8a565b600083815260076020526040902054909150808214611629576001600160a01b03841660009081526006602090815260408083208584528252808320548484528184208190558352600790915290208190555b5060009182526007602090815260408084208490556001600160a01b039094168352600681528383209183525290812055565b60085460009061166e90600190611b8a565b600083815260096020526040812054600880549394509092849081106116a457634e487b7160e01b600052603260045260246000fd5b9060005260206000200154905080600883815481106116d357634e487b7160e01b600052603260045260246000fd5b600091825260208083209091019290925582815260099091526040808220849055858252812055600880548061171957634e487b7160e01b600052603160045260246000fd5b6001900381819060005260206000200160009055905550505050565b60006117408361080a565b6001600160a01b039093166000908152600660209081526040808320868452825280832085905593825260079052919091209190915550565b82805461178590611bcd565b90600052602060002090601f0160209004810192826117a757600085556117ed565b82601f106117c057805160ff19168380011785556117ed565b828001600101855582156117ed579182015b828111156117ed5782518255916020019190600101906117d2565b506117f99291506117fd565b5090565b5b808211156117f957600081556001016117fe565b600067ffffffffffffffff8084111561182d5761182d611c63565b604051601f8501601f19908116603f0116810190828211818310171561185557611855611c63565b8160405280935085815286868601111561186e57600080fd5b858560208301376000602087830101525050509392505050565b80356001600160a01b038116811461032057600080fd5b6000602082840312156118b0578081fd5b610bae82611888565b600080604083850312156118cb578081fd5b6118d483611888565b91506118e260208401611888565b90509250929050565b6000806000606084860312156118ff578081fd5b61190884611888565b925061191660208501611888565b9150604084013590509250925092565b6000806000806080858703121561193b578081fd5b61194485611888565b935061195260208601611888565b925060408501359150606085013567ffffffffffffffff811115611974578182fd5b8501601f81018713611984578182fd5b61199387823560208401611812565b91505092959194509250565b600080604083850312156119b1578182fd5b6119ba83611888565b9150602083013580151581146119ce578182fd5b809150509250929050565b600080604083850312156119eb578182fd5b6119f483611888565b946020939093013593505050565b600060208284031215611a13578081fd5b8135610bae81611c79565b600060208284031215611a2f578081fd5b8151610bae81611c79565b600060208284031215611a4b578081fd5b813567ffffffffffffffff811115611a61578182fd5b8201601f81018413611a71578182fd5b610e7f84823560208401611812565b600060208284031215611a91578081fd5b5035919050565b60008151808452611ab0816020860160208601611ba1565b601f01601f19169290920160200192915050565b60008251611ad6818460208701611ba1565b9190910192915050565b60008351611af2818460208801611ba1565b835190830190611b06818360208801611ba1565b01949350505050565b60006001600160a01b03808716835280861660208401525083604083015260806060830152611b416080830184611a98565b9695505050505050565b600060208252610bae6020830184611a98565b60008219821115611b7157611b71611c37565b500190565b600082611b8557611b85611c4d565b500490565b600082821015611b9c57611b9c611c37565b500390565b60005b83811015611bbc578181015183820152602001611ba4565b83811115610a0d5750506000910152565b600181811c90821680611be157607f821691505b60208210811415611c0257634e487b7160e01b600052602260045260246000fd5b50919050565b6000600019821415611c1c57611c1c611c37565b5060010190565b600082611c3257611c32611c4d565b500690565b634e487b7160e01b600052601160045260246000fd5b634e487b7160e01b600052601260045260246000fd5b634e487b7160e01b600052604160045260246000fd5b6001600160e01b031981168114611c8f57600080fd5b5056fea2646970667358221220c82446065639db06ccaea68a4b89baac1ab071d31611c5cb3f2f61a3b826bde264736f6c63430008030033",
  "immutableReferences": {},
  "source": "// SPDX-License-Identifier: MIT\npragma solidity ^0.8.0;\n\nimport \"@openzeppelin/contracts/token/ERC721/ERC721.sol\";\nimport \"@openzeppelin/contracts/token/ERC721/extensions/ERC721Enumerable.sol\";\n\ncontract Color is ERC721Enumerable {\n    string[] public colors;\n    mapping(string => bool) _colorExists;\n\n    constructor() ERC721(\"Color\", \"COLORS\") {}\n\n    // TODO: only minter should be able to mint\n    // Create a new color given a color name\n    function mint(string memory _color) public {\n        // Require unique color\n        require(!_colorExists[_color]);\n\n        // Add the color\n        colors.push(_color);\n        uint _id = colors.length - 1;\n\n        // Mint\n        _mint(msg.sender, _id);\n\n        // Track it in the mapping\n        _colorExists[_color] = true;\n    }\n}",
  "sourcePath": "/Users/ivanmontiel/Desktop/workspace/nft-tutorial/nft/src/contracts/Color.sol",
  "compiler": {
    "name": "solc",
    "version": "0.8.3+commit.8d00100c.Emscripten.clang"
  },
  "schemaVersion": "3.3.4",
  "updatedAt": "2021-09-03T01:26:51.558Z",
  "networkType": "ethereum",
  "devdoc": {
    "kind": "dev",
    "methods": {
      "approve(address,uint256)": {
        "details": "See {IERC721-approve}."
      },
      "balanceOf(address)": {
        "details": "See {IERC721-balanceOf}."
      },
      "getApproved(uint256)": {
        "details": "See {IERC721-getApproved}."
      },
      "isApprovedForAll(address,address)": {
        "details": "See {IERC721-isApprovedForAll}."
      },
      "name()": {
        "details": "See {IERC721Metadata-name}."
      },
      "ownerOf(uint256)": {
        "details": "See {IERC721-ownerOf}."
      },
      "safeTransferFrom(address,address,uint256)": {
        "details": "See {IERC721-safeTransferFrom}."
      },
      "safeTransferFrom(address,address,uint256,bytes)": {
        "details": "See {IERC721-safeTransferFrom}."
      },
      "setApprovalForAll(address,bool)": {
        "details": "See {IERC721-setApprovalForAll}."
      },
      "supportsInterface(bytes4)": {
        "details": "See {IERC165-supportsInterface}."
      },
      "symbol()": {
        "details": "See {IERC721Metadata-symbol}."
      },
      "tokenByIndex(uint256)": {
        "details": "See {IERC721Enumerable-tokenByIndex}."
      },
      "tokenOfOwnerByIndex(address,uint256)": {
        "details": "See {IERC721Enumerable-tokenOfOwnerByIndex}."
      },
      "tokenURI(uint256)": {
        "details": "See {IERC721Metadata-tokenURI}."
      },
      "totalSupply()": {
        "details": "See {IERC721Enumerable-totalSupply}."
      },
      "transferFrom(address,address,uint256)": {
        "details": "See {IERC721-transferFrom}."
      }
    },
    "version": 1
  },
  "userdoc": {
    "kind": "user",
    "methods": {},
    "version": 1
  }
}