{
  "contractName": "GeneScience",
  "abi": [
    {
      "inputs": [],
      "stateMutability": "nonpayable",
      "type": "constructor"
    },
    {
      "inputs": [],
      "name": "isGeneScience",
      "outputs": [
        {
          "internalType": "bool",
          "name": "",
          "type": "bool"
        }
      ],
      "stateMutability": "view",
      "type": "function",
      "constant": true
    },
    {
      "inputs": [
        {
          "internalType": "uint256",
          "name": "_genes",
          "type": "uint256"
        }
      ],
      "name": "decode",
      "outputs": [
        {
          "internalType": "uint8[]",
          "name": "",
          "type": "uint8[]"
        }
      ],
      "stateMutability": "pure",
      "type": "function",
      "constant": true
    },
    {
      "inputs": [
        {
          "internalType": "uint8[]",
          "name": "_traits",
          "type": "uint8[]"
        }
      ],
      "name": "encode",
      "outputs": [
        {
          "internalType": "uint256",
          "name": "_genes",
          "type": "uint256"
        }
      ],
      "stateMutability": "pure",
      "type": "function",
      "constant": true
    },
    {
      "inputs": [
        {
          "internalType": "uint256",
          "name": "_genes",
          "type": "uint256"
        }
      ],
      "name": "expressingTraits",
      "outputs": [
        {
          "internalType": "uint8[12]",
          "name": "",
          "type": "uint8[12]"
        }
      ],
      "stateMutability": "pure",
      "type": "function",
      "constant": true
    },
    {
      "inputs": [
        {
          "internalType": "uint256",
          "name": "_genes1",
          "type": "uint256"
        },
        {
          "internalType": "uint256",
          "name": "_genes2",
          "type": "uint256"
        },
        {
          "internalType": "uint256",
          "name": "_targetBlock",
          "type": "uint256"
        }
      ],
      "name": "mixGenes",
      "outputs": [
        {
          "internalType": "uint256",
          "name": "",
          "type": "uint256"
        }
      ],
      "stateMutability": "view",
      "type": "function",
      "constant": true
    }
  ],
  "bytecode": "0x60806040526000805460ff1916600117905534801561001d57600080fd5b50610cc28061002d6000396000f3fe608060405234801561001057600080fd5b50600436106100675760003560e01c806354c15b821161005057806354c15b82146100a557806361a76900146100c257806377a74a20146100e257610067565b80630d9f5aed1461006c5780631597ee4414610092575b600080fd5b61007f61007a36600461096f565b610102565b6040519081526020015b60405180910390f35b61007f6100a0366004610890565b610635565b6000546100b29060ff1681565b6040519015158152602001610089565b6100d56100d0366004610957565b61069c565b60405161008991906109cf565b6100f56100f0366004610957565b610726565b604051610089919061099a565b600081431161011057600080fd5b8140806101445761012860ff84164361ff0016610a16565b92504383106101405761013d61010084610ba8565b92505b5081405b6040805160208101839052908101869052606081018590526080810184905260a0016040516020818303038152906040528051906020012060001c905060008061018d8761069c565b9050600061019a8761069c565b604080516030808252610620820190925291925060009190602082016106008036833701905050905060008060005b600c8110156103fe57600360005b600182106103e957816101eb846004610b89565b6101f59190610a16565b94506102038a60028b610795565b905061021060028a610a16565b9850806102e75787858151811061023757634e487b7160e01b600052603260045260246000fd5b602002602001015193508760018661024f9190610ba8565b8151811061026d57634e487b7160e01b600052603260045260246000fd5b602002602001015188868151811061029557634e487b7160e01b600052603260045260246000fd5b60ff9092166020928302919091019091015283886102b4600188610ba8565b815181106102d257634e487b7160e01b600052603260045260246000fd5b602002602001019060ff16908160ff16815250505b6102f38a60028b610795565b905061030060028a610a16565b9850806103d75786858151811061032757634e487b7160e01b600052603260045260246000fd5b602002602001015193508660018661033f9190610ba8565b8151811061035d57634e487b7160e01b600052603260045260246000fd5b602002602001015187868151811061038557634e487b7160e01b600052603260045260246000fd5b60ff9092166020928302919091019091015283876103a4600188610ba8565b815181106103c257634e487b7160e01b600052603260045260246000fd5b602002602001019060ff16908160ff16815250505b816103e181610be2565b9250506101d7565b505080806103f690610bf9565b9150506101c9565b50600091505b603082101561061b5760008061041b600485610c14565b158015610482575085848151811061044357634e487b7160e01b600052603260045260246000fd5b602002602001015160011660ff1687858151811061047157634e487b7160e01b600052603260045260246000fd5b602002602001015160011660ff1614155b156104fe576104938960038a610795565b90506104a0600389610a16565b97506104fb8785815181106104c557634e487b7160e01b600052603260045260246000fd5b60200260200101518786815181106104ed57634e487b7160e01b600052603260045260246000fd5b6020026020010151836107c0565b91505b60ff821615610541578185858151811061052857634e487b7160e01b600052603260045260246000fd5b602002602001019060ff16908160ff1681525050610606565b61054d8960018a610795565b905061055a600189610a16565b9750806105a95786848151811061058157634e487b7160e01b600052603260045260246000fd5b602002602001015185858151811061052857634e487b7160e01b600052603260045260246000fd5b8584815181106105c957634e487b7160e01b600052603260045260246000fd5b60200260200101518585815181106105f157634e487b7160e01b600052603260045260246000fd5b602002602001019060ff16908160ff16815250505b5050818061061390610bf9565b925050610404565b61062483610635565b9750505050505050505b9392505050565b6000805b60308110156106955760059190911b908261065582602f610ba8565b8151811061067357634e487b7160e01b600052603260045260246000fd5b602002602001015160ff1682179150808061068d90610bf9565b915050610639565b505b919050565b604080516030808252610620820190925260609160009190602082016106008036833701905050905060005b603081101561071f576106db8482610849565b8282815181106106fb57634e487b7160e01b600052603260045260246000fd5b60ff909216602092830291909101909101528061071781610bf9565b9150506106c8565b5092915050565b61072e610860565b610736610860565b60005b600c81101561071f5761075684610751836004610b89565b610849565b8282600c811061077657634e487b7160e01b600052603260045260246000fd5b60ff90921660209290920201528061078d81610bf9565b915050610739565b6000808260016107a6866002610abb565b6107b09190610ba8565b901b8516831c9150509392505050565b6000838360ff80821690831611156107d85750839050845b6107e28282610bbf565b60ff1660011480156107ff57506107fa600283610c28565b60ff16155b1561084057600060178360ff16101561081a5750600161081e565b5060005b80851161083e57610830600284610a53565b61083b906010610a2e565b93505b505b50509392505050565b600061062e83600561085b8582610b89565b610795565b604051806101800160405280600c906020820280368337509192915050565b803560ff8116811461069757600080fd5b600060208083850312156108a2578182fd5b823567ffffffffffffffff808211156108b9578384fd5b818501915085601f8301126108cc578384fd5b8135818111156108de576108de610c76565b8060051b604051601f19603f8301168101818110858211171561090357610903610c76565b604052828152858101935084860182860187018a1015610921578788fd5b8795505b8386101561094a576109368161087f565b855260019590950194938601938601610925565b5098975050505050505050565b600060208284031215610968578081fd5b5035919050565b600080600060608486031215610983578182fd5b505081359360208301359350604090920135919050565b6101808101818360005b600c8110156109c657815160ff168352602092830192909101906001016109a4565b50505092915050565b6020808252825182820181905260009190848201906040850190845b81811015610a0a57835160ff16835292840192918401916001016109eb565b50909695505050505050565b60008219821115610a2957610a29610c4a565b500190565b600060ff821660ff84168060ff03821115610a4b57610a4b610c4a565b019392505050565b600060ff831680610a6657610a66610c60565b8060ff84160491505092915050565b80825b6001808611610a875750610ab2565b818704821115610a9957610a99610c4a565b80861615610aa657918102915b9490941c938002610a78565b94509492505050565b600061062e6000198484600082610ad45750600161062e565b81610ae15750600061062e565b8160018114610af75760028114610b0157610b2e565b600191505061062e565b60ff841115610b1257610b12610c4a565b6001841b915084821115610b2857610b28610c4a565b5061062e565b5060208310610133831016604e8410600b8410161715610b61575081810a83811115610b5c57610b5c610c4a565b61062e565b610b6e8484846001610a75565b808604821115610b8057610b80610c4a565b02949350505050565b6000816000190483118215151615610ba357610ba3610c4a565b500290565b600082821015610bba57610bba610c4a565b500390565b600060ff821660ff841680821015610bd957610bd9610c4a565b90039392505050565b600081610bf157610bf1610c4a565b506000190190565b6000600019821415610c0d57610c0d610c4a565b5060010190565b600082610c2357610c23610c60565b500690565b600060ff831680610c3b57610c3b610c60565b8060ff84160691505092915050565b634e487b7160e01b600052601160045260246000fd5b634e487b7160e01b600052601260045260246000fd5b634e487b7160e01b600052604160045260246000fdfea264697066735822122045fa822d10eea9e9c82e6ff7c37edc0b41f1d1a04c3516b0edb2ac20e9ceab8e64736f6c63430008030033",
  "immutableReferences": {},
  "source": "// SPDX-License-Identifier: UNLICENSED\npragma solidity ^0.8.0;\n\n/**\n *Submitted for verification at Etherscan.io on 2019-01-31\n*/\n\n/// @title GeneScience implements the trait calculation for new kitties\n/// @author Axiom Zen, Dieter Shirley <dete@axiomzen.co> (https://github.com/dete), Fabiano P. Soriani <fabianosoriani@gmail.com> (https://github.com/flockonus), Jordan Schalm <jordan.schalm@gmail.com> (https://github.com/jordanschalm)\ncontract GeneScience {\n    bool public isGeneScience = true;\n\n    uint256 internal constant maskLast8Bits = uint256(0xff);\n    // uint256 internal constant maskFirst248Bits = uint256(~0xff);\n    uint256 internal constant maskFirst248Bits = uint256(0xff00);\n\n    constructor() {}\n\n    /// @dev given a characteristic and 2 genes (unsorted) - returns > 0 if the genes ascended, that's the value\n    /// @param trait1 any trait of that characteristic\n    /// @param trait2 any trait of that characteristic\n    /// @param rand is expected to be a 3 bits number (0~7)\n    /// @return ascension -1 if didnt match any ascention, OR a number from 0 to 30 for the ascended trait\n    function _ascend(uint8 trait1, uint8 trait2, uint256 rand) internal pure returns(uint8 ascension) {\n        ascension = 0;\n\n        uint8 smallT = trait1;\n        uint8 bigT = trait2;\n\n        if (smallT > bigT) {\n            bigT = trait1;\n            smallT = trait2;\n        }\n\n        // https://github.com/axiomzen/cryptokitties/issues/244\n        if ((bigT - smallT == 1) && smallT % 2 == 0) {\n\n            // The rand argument is expected to be a random number 0-7.\n            // 1st and 2nd tier: 1/4 chance (rand is 0 or 1)\n            // 3rd and 4th tier: 1/8 chance (rand is 0)\n\n            // must be at least this much to ascend\n            uint256 maxRand;\n            if (smallT < 23) maxRand = 1;\n            else maxRand = 0;\n\n            if (rand <= maxRand ) {\n                ascension = (smallT / 2) + 16;\n            }\n        }\n    }\n\n    /// @dev given a number get a slice of any bits, at certain offset\n    /// @param _n a number to be sliced\n    /// @param _nbits how many bits long is the new number\n    /// @param _offset how many bits to skip\n    function _sliceNumber(uint256 _n, uint256 _nbits, uint256 _offset) private pure returns (uint256) {\n        // mask is made by shifting left an offset number of times\n        uint256 mask = uint256((2**_nbits) - 1) << _offset;\n        // AND n with mask, and trim to max of _nbits bits\n        return uint256((_n & mask) >> _offset);\n    }\n\n    /// @dev Get a 5 bit slice from an input as a number\n    /// @param _input bits, encoded as uint\n    /// @param _slot from 0 to 50\n    function _get5Bits(uint256 _input, uint256 _slot) internal pure returns(uint8) {\n        return uint8(_sliceNumber(_input, uint256(5), _slot * 5));\n    }\n\n    /// @dev Parse a kitten gene and returns all of 12 \"trait stack\" that makes the characteristics\n    /// @param _genes kitten gene\n    /// @return the 48 traits that composes the genetic code, logically divided in stacks of 4, where only the first trait of each stack may express\n    function decode(uint256 _genes) public pure returns(uint8[] memory) {\n        uint8[] memory traits = new uint8[](48);\n        uint256 i;\n        for(i = 0; i < 48; i++) {\n            traits[i] = _get5Bits(_genes, i);\n        }\n        return traits;\n    }\n\n    /// @dev Given an array of traits return the number that represent genes\n    function encode(uint8[] memory _traits) public pure returns (uint256 _genes) {\n        _genes = 0;\n        for(uint256 i = 0; i < 48; i++) {\n            _genes = _genes << 5;\n            // bitwise OR trait with _genes\n            _genes = _genes | _traits[47 - i];\n        }\n        return _genes;\n    }\n\n    /// @dev return the expressing traits\n    /// @param _genes the long number expressing cat genes\n    function expressingTraits(uint256 _genes) public pure returns(uint8[12] memory) {\n        uint8[12] memory express;\n        for(uint256 i = 0; i < 12; i++) {\n            express[i] = _get5Bits(_genes, i * 4);\n        }\n        return express;\n    }\n\n    /// @dev the function as defined in the breeding contract - as defined in CK bible\n    function mixGenes(uint256 _genes1, uint256 _genes2, uint256 _targetBlock) public view returns (uint256) {\n        require(block.number > _targetBlock);\n\n        // Try to grab the hash of the \"target block\". This should be available the vast\n        // majority of the time (it will only fail if no-one calls giveBirth() within 256\n        // blocks of the target block, which is about 40 minutes. Since anyone can call\n        // giveBirth() and they are rewarded with ether if it succeeds, this is quite unlikely.)\n        uint256 randomN = uint256(blockhash(_targetBlock));\n\n        if (randomN == 0) {\n            // We don't want to completely bail if the target block is no-longer available,\n            // nor do we want to just use the current block's hash (since it could allow a\n            // caller to game the random result). Compute the most recent block that has the\n            // the same value modulo 256 as the target block. The hash for this block will\n            // still be available, and  while it can still change as time passes  it will\n            // only change every 40 minutes. Again, someone is very likely to jump in with\n            // the giveBirth() call before it can cycle too many times.\n            _targetBlock = (block.number & maskFirst248Bits) + (_targetBlock & maskLast8Bits);\n\n            // The computation above could result in a block LARGER than the current block,\n            // if so, subtract 256.\n            if (_targetBlock >= block.number) _targetBlock -= 256;\n\n            randomN = uint256(blockhash(_targetBlock));\n\n            // DEBUG ONLY\n            // assert(block.number != _targetBlock);\n            // assert((block.number - _targetBlock) <= 256);\n            // assert(randomN != 0);\n        }\n\n        // generate 256 bits of random, using as much entropy as we can from\n        // sources that can't change between calls.\n        randomN = uint256(keccak256(abi.encodePacked(randomN, _genes1, _genes2, _targetBlock)));\n        uint256 randomIndex = 0;\n\n        uint8[] memory genes1Array = decode(_genes1);\n        uint8[] memory genes2Array = decode(_genes2);\n        // All traits that will belong to baby\n        uint8[] memory babyArray = new uint8[](48);\n        // A pointer to the trait we are dealing with currently\n        uint256 traitPos;\n        // Trait swap value holder\n        uint8 swap;\n        // iterate all 12 characteristics\n        for(uint256 i = 0; i < 12; i++) {\n            // pick 4 traits for characteristic i\n            uint256 j;\n            // store the current random value\n            uint256 rand;\n            for(j = 3; j >= 1; j--) {\n                traitPos = (i * 4) + j;\n\n                rand = _sliceNumber(randomN, 2, randomIndex); // 0~3\n                randomIndex += 2;\n\n                // 1/4 of a chance of gene swapping forward towards expressing.\n                if (rand == 0) {\n                    // do it for parent 1\n                    swap = genes1Array[traitPos];\n                    genes1Array[traitPos] = genes1Array[traitPos - 1];\n                    genes1Array[traitPos - 1] = swap;\n\n                }\n\n                rand = _sliceNumber(randomN, 2, randomIndex); // 0~3\n                randomIndex += 2;\n\n                if (rand == 0) {\n                    // do it for parent 2\n                    swap = genes2Array[traitPos];\n                    genes2Array[traitPos] = genes2Array[traitPos - 1];\n                    genes2Array[traitPos - 1] = swap;\n                }\n            }\n\n        }\n\n        // DEBUG ONLY - We should have used 72 2-bit slices above for the swapping\n        // which will have consumed 144 bits.\n        // assert(randomIndex == 144);\n\n        // We have 256 - 144 = 112 bits of randomness left at this point. We will use up to\n        // four bits for the first slot of each trait (three for the possible ascension, one\n        // to pick between mom and dad if the ascension fails, for a total of 48 bits. The other\n        // traits use one bit to pick between parents (36 gene pairs, 36 genes), leaving us\n        // well within our entropy budget.\n\n        // done shuffling parent genes, now let's decide on choosing trait and if ascending.\n        // NOTE: Ascensions ONLY happen in the \"top slot\" of each characteristic. This saves\n        //  gas and also ensures ascensions only happen when they're visible.\n        for(traitPos = 0; traitPos < 48; traitPos++) {\n\n            // See if this trait pair should ascend\n            uint8 ascendedTrait = 0;\n            uint256 rand;\n\n            // There are two checks here. The first is straightforward, only the trait\n            // in the first slot can ascend. The first slot is zero mod 4.\n            //\n            // The second check is more subtle: Only values that are one apart can ascend,\n            // which is what we check inside the _ascend method. However, this simple mask\n            // and compare is very cheap (9 gas) and will filter out about half of the\n            // non-ascending pairs without a function call.\n            //\n            // The comparison itself just checks that one value is even, and the other\n            // is odd.\n            if ((traitPos % 4 == 0) && (genes1Array[traitPos] & 1) != (genes2Array[traitPos] & 1)) {\n                rand = _sliceNumber(randomN, 3, randomIndex);\n                randomIndex += 3;\n\n                ascendedTrait = _ascend(genes1Array[traitPos], genes2Array[traitPos], rand);\n            }\n\n            if (ascendedTrait > 0) {\n                babyArray[traitPos] = uint8(ascendedTrait);\n            } else {\n                // did not ascend, pick one of the parent's traits for the baby\n                // We use the top bit of rand for this (the bottom three bits were used\n                // to check for the ascension itself).\n                rand = _sliceNumber(randomN, 1, randomIndex);\n                randomIndex += 1;\n\n                if (rand == 0) {\n                    babyArray[traitPos] = uint8(genes1Array[traitPos]);\n                } else {\n                    babyArray[traitPos] = uint8(genes2Array[traitPos]);\n                }\n            }\n        }\n\n        return encode(babyArray);\n    }\n}",
  "sourcePath": "/Users/ivanmontiel/Desktop/workspace/nft-tutorial/nft/src/contracts/GeneScience.sol",
  "compiler": {
    "name": "solc",
    "version": "0.8.3+commit.8d00100c.Emscripten.clang"
  },
  "schemaVersion": "3.3.4",
  "updatedAt": "2021-09-03T18:26:55.216Z",
  "networkType": "ethereum",
  "devdoc": {
    "author": "Axiom Zen, Dieter Shirley <dete@axiomzen.co> (https://github.com/dete), Fabiano P. Soriani <fabianosoriani@gmail.com> (https://github.com/flockonus), Jordan Schalm <jordan.schalm@gmail.com> (https://github.com/jordanschalm)",
    "kind": "dev",
    "methods": {
      "decode(uint256)": {
        "details": "Parse a kitten gene and returns all of 12 \"trait stack\" that makes the characteristics",
        "params": {
          "_genes": "kitten gene"
        },
        "returns": {
          "_0": "the 48 traits that composes the genetic code, logically divided in stacks of 4, where only the first trait of each stack may express"
        }
      },
      "encode(uint8[])": {
        "details": "Given an array of traits return the number that represent genes"
      },
      "expressingTraits(uint256)": {
        "details": "return the expressing traits",
        "params": {
          "_genes": "the long number expressing cat genes"
        }
      },
      "mixGenes(uint256,uint256,uint256)": {
        "details": "the function as defined in the breeding contract - as defined in CK bible"
      }
    },
    "title": "GeneScience implements the trait calculation for new kitties",
    "version": 1
  },
  "userdoc": {
    "kind": "user",
    "methods": {},
    "version": 1
  }
}