{
  "contractName": "SiringClockAuction",
  "abi": [
    {
      "inputs": [
        {
          "internalType": "address",
          "name": "_nftAddr",
          "type": "address"
        },
        {
          "internalType": "uint256",
          "name": "_cut",
          "type": "uint256"
        }
      ],
      "stateMutability": "nonpayable",
      "type": "constructor"
    },
    {
      "anonymous": false,
      "inputs": [
        {
          "indexed": false,
          "internalType": "uint256",
          "name": "tokenId",
          "type": "uint256"
        }
      ],
      "name": "AuctionCancelled",
      "type": "event"
    },
    {
      "anonymous": false,
      "inputs": [
        {
          "indexed": false,
          "internalType": "uint256",
          "name": "tokenId",
          "type": "uint256"
        },
        {
          "indexed": false,
          "internalType": "uint256",
          "name": "startingPrice",
          "type": "uint256"
        },
        {
          "indexed": false,
          "internalType": "uint256",
          "name": "endingPrice",
          "type": "uint256"
        },
        {
          "indexed": false,
          "internalType": "uint256",
          "name": "duration",
          "type": "uint256"
        }
      ],
      "name": "AuctionCreated",
      "type": "event"
    },
    {
      "anonymous": false,
      "inputs": [
        {
          "indexed": false,
          "internalType": "uint256",
          "name": "tokenId",
          "type": "uint256"
        },
        {
          "indexed": false,
          "internalType": "uint256",
          "name": "totalPrice",
          "type": "uint256"
        },
        {
          "indexed": false,
          "internalType": "address",
          "name": "winner",
          "type": "address"
        }
      ],
      "name": "AuctionSuccessful",
      "type": "event"
    },
    {
      "anonymous": false,
      "inputs": [],
      "name": "Pause",
      "type": "event"
    },
    {
      "anonymous": false,
      "inputs": [],
      "name": "Unpause",
      "type": "event"
    },
    {
      "inputs": [
        {
          "internalType": "uint256",
          "name": "_tokenId",
          "type": "uint256"
        }
      ],
      "name": "cancelAuction",
      "outputs": [],
      "stateMutability": "nonpayable",
      "type": "function"
    },
    {
      "inputs": [
        {
          "internalType": "uint256",
          "name": "_tokenId",
          "type": "uint256"
        }
      ],
      "name": "cancelAuctionWhenPaused",
      "outputs": [],
      "stateMutability": "nonpayable",
      "type": "function"
    },
    {
      "inputs": [
        {
          "internalType": "uint256",
          "name": "_tokenId",
          "type": "uint256"
        }
      ],
      "name": "getAuction",
      "outputs": [
        {
          "internalType": "address",
          "name": "seller",
          "type": "address"
        },
        {
          "internalType": "uint256",
          "name": "startingPrice",
          "type": "uint256"
        },
        {
          "internalType": "uint256",
          "name": "endingPrice",
          "type": "uint256"
        },
        {
          "internalType": "uint256",
          "name": "duration",
          "type": "uint256"
        },
        {
          "internalType": "uint256",
          "name": "startedAt",
          "type": "uint256"
        }
      ],
      "stateMutability": "view",
      "type": "function"
    },
    {
      "inputs": [
        {
          "internalType": "uint256",
          "name": "_tokenId",
          "type": "uint256"
        }
      ],
      "name": "getCurrentPrice",
      "outputs": [
        {
          "internalType": "uint256",
          "name": "",
          "type": "uint256"
        }
      ],
      "stateMutability": "view",
      "type": "function"
    },
    {
      "inputs": [],
      "name": "isSiringClockAuction",
      "outputs": [
        {
          "internalType": "bool",
          "name": "",
          "type": "bool"
        }
      ],
      "stateMutability": "view",
      "type": "function"
    },
    {
      "inputs": [],
      "name": "nonFungibleContract",
      "outputs": [
        {
          "internalType": "contract ERC721",
          "name": "",
          "type": "address"
        }
      ],
      "stateMutability": "view",
      "type": "function"
    },
    {
      "inputs": [],
      "name": "owner",
      "outputs": [
        {
          "internalType": "address",
          "name": "",
          "type": "address"
        }
      ],
      "stateMutability": "view",
      "type": "function"
    },
    {
      "inputs": [],
      "name": "ownerCut",
      "outputs": [
        {
          "internalType": "uint256",
          "name": "",
          "type": "uint256"
        }
      ],
      "stateMutability": "view",
      "type": "function"
    },
    {
      "inputs": [],
      "name": "pause",
      "outputs": [
        {
          "internalType": "bool",
          "name": "",
          "type": "bool"
        }
      ],
      "stateMutability": "nonpayable",
      "type": "function"
    },
    {
      "inputs": [],
      "name": "paused",
      "outputs": [
        {
          "internalType": "bool",
          "name": "",
          "type": "bool"
        }
      ],
      "stateMutability": "view",
      "type": "function"
    },
    {
      "inputs": [
        {
          "internalType": "address",
          "name": "newOwner",
          "type": "address"
        }
      ],
      "name": "transferOwnership",
      "outputs": [],
      "stateMutability": "nonpayable",
      "type": "function"
    },
    {
      "inputs": [],
      "name": "unpause",
      "outputs": [
        {
          "internalType": "bool",
          "name": "",
          "type": "bool"
        }
      ],
      "stateMutability": "nonpayable",
      "type": "function"
    },
    {
      "inputs": [],
      "name": "withdrawBalance",
      "outputs": [],
      "stateMutability": "nonpayable",
      "type": "function"
    },
    {
      "inputs": [
        {
          "internalType": "uint256",
          "name": "_tokenId",
          "type": "uint256"
        },
        {
          "internalType": "uint256",
          "name": "_startingPrice",
          "type": "uint256"
        },
        {
          "internalType": "uint256",
          "name": "_endingPrice",
          "type": "uint256"
        },
        {
          "internalType": "uint256",
          "name": "_duration",
          "type": "uint256"
        },
        {
          "internalType": "address payable",
          "name": "_seller",
          "type": "address"
        }
      ],
      "name": "createAuction",
      "outputs": [],
      "stateMutability": "nonpayable",
      "type": "function"
    },
    {
      "inputs": [
        {
          "internalType": "uint256",
          "name": "_tokenId",
          "type": "uint256"
        }
      ],
      "name": "bid",
      "outputs": [],
      "stateMutability": "payable",
      "type": "function"
    }
  ],
  "bytecode": "0x60806040526000805460ff60a01b191690556004805460ff1916600117905534801561002a57600080fd5b5060405161105a38038061105a83398101604081905261004991610124565b600080546001600160a01b03191633179055818161271081111561006c57600080fd5b60028190556040516301ffc9a760e01b8152639a20483d60e01b600482015282906001600160a01b038216906301ffc9a79060240160206040518083038186803b1580156100b957600080fd5b505afa1580156100cd573d6000803e3d6000fd5b505050506040513d601f19601f820116820180604052508101906100f1919061015c565b6100fa57600080fd5b600180546001600160a01b0319166001600160a01b03929092169190911790555061018392505050565b60008060408385031215610136578182fd5b82516001600160a01b038116811461014c578283fd5b6020939093015192949293505050565b60006020828403121561016d578081fd5b8151801515811461017c578182fd5b9392505050565b610ec8806101926000396000f3fe6080604052600436106100e85760003560e01c806383b5ff8b1161008a57806396b5a7551161005957806396b5a7551461027f578063c55d0f561461029f578063dd1b7a0f146102bf578063f2fde38b146102df576100e8565b806383b5ff8b146101ee5780638456cb5914610212578063878eb368146102275780638da5cb5b14610247576100e8565b80635c975abb116100c65780635c975abb1461014c5780635fd8c7101461016d57806376190f8f1461018257806378bd79351461019c576100e8565b806327ebe40a146100ed5780633f4ba83a1461010f578063454a2ab314610139575b600080fd5b3480156100f957600080fd5b5061010d610108366004610c8c565b6102ff565b005b34801561011b57600080fd5b506101246103d4565b60405190151581526020015b60405180910390f35b61010d610147366004610c74565b61043c565b34801561015857600080fd5b5060005461012490600160a01b900460ff1681565b34801561017957600080fd5b5061010d610484565b34801561018e57600080fd5b506004546101249060ff1681565b3480156101a857600080fd5b506101bc6101b7366004610c74565b6104ea565b604080516001600160a01b0390961686526020860194909452928401919091526060830152608082015260a001610130565b3480156101fa57600080fd5b5061020460025481565b604051908152602001610130565b34801561021e57600080fd5b50610124610581565b34801561023357600080fd5b5061010d610242366004610c74565b6105f0565b34801561025357600080fd5b50600054610267906001600160a01b031681565b6040516001600160a01b039091168152602001610130565b34801561028b57600080fd5b5061010d61029a366004610c74565b610668565b3480156102ab57600080fd5b506102046102ba366004610c74565b6106c3565b3480156102cb57600080fd5b50600154610267906001600160a01b031681565b3480156102eb57600080fd5b5061010d6102fa366004610c58565b610708565b836fffffffffffffffffffffffffffffffff16841461031d57600080fd5b826fffffffffffffffffffffffffffffffff16831461033b57600080fd5b8167ffffffffffffffff16821461035157600080fd5b6001546001600160a01b0316331461036857600080fd5b610372818661075a565b6040805160a0810182526001600160a01b03831681526fffffffffffffffffffffffffffffffff808716602083015285169181019190915267ffffffffffffffff8084166060830152421660808201526103cc86826107dc565b505050505050565b600080546001600160a01b031633146103ec57600080fd5b600054600160a01b900460ff1661040257600080fd5b6000805460ff60a01b191681556040517f7805862f689e2f13df9f062ff482ad3ad112aca9e0847911ed832e158c525b339190a150600190565b6001546001600160a01b0316331461045357600080fd5b6000818152600360205260409020546001600160a01b031661047582346108f8565b506104808183610a80565b5050565b6001546000546001600160a01b0391821691163314806104ac5750336001600160a01b038216145b6104b557600080fd5b6040516001600160a01b038216904780156108fc02916000818181858888f19350505050158015610480573d6000803e3d6000fd5b6000818152600360205260408120819081908190819061051e8160020154600160401b900467ffffffffffffffff16151590565b61052757600080fd5b805460018201546002909201546001600160a01b03909116986fffffffffffffffffffffffffffffffff8084169950600160801b909304909216965067ffffffffffffffff8082169650600160401b909104169350915050565b600080546001600160a01b0316331461059957600080fd5b600054600160a01b900460ff16156105b057600080fd5b6000805460ff60a01b1916600160a01b1781556040517f6985a02210a168e66602d3235cb6db0e70f92b3ba4d376a33c0f3d9434bff6259190a150600190565b600054600160a01b900460ff1661060657600080fd5b6000546001600160a01b0316331461061d57600080fd5b60008181526003602052604090206106498160020154600160401b900467ffffffffffffffff16151590565b61065257600080fd5b80546104809083906001600160a01b0316610ad8565b60008181526003602052604090206106948160020154600160401b900467ffffffffffffffff16151590565b61069d57600080fd5b80546001600160a01b03163381146106b457600080fd5b6106be8382610ad8565b505050565b60008181526003602052604081206106ef8160020154600160401b900467ffffffffffffffff16151590565b6106f857600080fd5b61070181610b5d565b9392505050565b6000546001600160a01b0316331461071f57600080fd5b6001600160a01b03811615610757576000805473ffffffffffffffffffffffffffffffffffffffff19166001600160a01b0383161790555b50565b6001546040517f23b872dd0000000000000000000000000000000000000000000000000000000081526001600160a01b03848116600483015230602483015260448201849052909116906323b872dd906064015b600060405180830381600087803b1580156107c857600080fd5b505af11580156103cc573d6000803e3d6000fd5b603c816060015167ffffffffffffffff1610156107f857600080fd5b600082815260036020908152604091829020835181546001600160a01b0390911673ffffffffffffffffffffffffffffffffffffffff1990911617815590830151828401516fffffffffffffffffffffffffffffffff908116600160801b8102919092169081176001840155606085015160029093018054608087015167ffffffffffffffff908116600160401b026fffffffffffffffffffffffffffffffff1992909216951694851717905592517fa9c8dfcda5664a5a124c713e386da27de87432d5b668e79458501eb296389ba7936108ec938793919293845260208401929092526040830152606082015260800190565b60405180910390a15050565b60008281526003602052604081206109248160020154600160401b900467ffffffffffffffff16151590565b61092d57600080fd5b600061093882610b5d565b90508084101561094757600080fd5b81546000868152600360205260408120805473ffffffffffffffffffffffffffffffffffffffff19168155600181019190915560020180546fffffffffffffffffffffffffffffffff191690556001600160a01b031681156109f95760006109ae83610bdf565b905060006109bc8285610e3a565b6040519091506001600160a01b0384169082156108fc029083906000818181858888f193505050501580156109f5573d6000803e3d6000fd5b5050505b6000610a058387610e3a565b604051909150339082156108fc029083906000818181858888f19350505050158015610a35573d6000803e3d6000fd5b506040805188815260208101859052338183015290517f4fcc30d90a842164dd58501ab874a101a3749c3d4747139cefe7c876f4ccebd29181900360600190a1509095945050505050565b6001546040517f42842e0e0000000000000000000000000000000000000000000000000000000081523060048201526001600160a01b03848116602483015260448201849052909116906342842e0e906064016107ae565b6000828152600360205260408120805473ffffffffffffffffffffffffffffffffffffffff19168155600181019190915560020180546fffffffffffffffffffffffffffffffff19169055610b2d8183610a80565b6040518281527f2809c7e17bf978fbc7194c0a694b638c4215e9140cacc6c38ca36010b45697df906020016108ec565b60028101546000908190600160401b900467ffffffffffffffff16421115610ba2576002830154610b9f90600160401b900467ffffffffffffffff1642610e3a565b90505b60018301546002840154610701916fffffffffffffffffffffffffffffffff80821692600160801b909204169067ffffffffffffffff1684610c02565b600061271060025483610bf29190610ddc565b610bfc9190610d45565b92915050565b6000828210610c12575082610c50565b6000610c1e8686610dfb565b9050600084610c2d8584610d59565b610c379190610d17565b90506000610c458289610cd8565b9350610c5092505050565b949350505050565b600060208284031215610c69578081fd5b813561070181610e7d565b600060208284031215610c85578081fd5b5035919050565b600080600080600060a08688031215610ca3578081fd5b853594506020860135935060408601359250606086013591506080860135610cca81610e7d565b809150509295509295909350565b6000808212826001600160ff1b0303841381151615610cf957610cf9610e51565b82600160ff1b038412811615610d1157610d11610e51565b50500190565b600082610d2657610d26610e67565b600160ff1b821460001984141615610d4057610d40610e51565b500590565b600082610d5457610d54610e67565b500490565b60006001600160ff1b0381841382841385830485118282161615610d7f57610d7f610e51565b600160ff1b84871286820588128184161615610d9d57610d9d610e51565b858712925087820587128484161615610db857610db8610e51565b87850587128184161615610dce57610dce610e51565b505050929093029392505050565b6000816000190483118215151615610df657610df6610e51565b500290565b600080831283600160ff1b01831281151615610e1957610e19610e51565b836001600160ff1b03018313811615610e3457610e34610e51565b50500390565b600082821015610e4c57610e4c610e51565b500390565b634e487b7160e01b600052601160045260246000fd5b634e487b7160e01b600052601260045260246000fd5b6001600160a01b038116811461075757600080fdfea26469706673582212203ff6c297d88f46ab5c4a8cdc9649a8503a8864a5c20b0654cfc232b1581f414964736f6c63430008030033",
  "immutableReferences": {},
  "source": "// SPDX-License-Identifier: UNLICENSED\npragma solidity ^0.8.0;\n\nimport \"./ClockAuction.sol\";\n\n/// @title Reverse auction modified for siring\n/// @notice We omit a fallback function to prevent accidental sends to this contract.\ncontract SiringClockAuction is ClockAuction {\n\n    // @dev Sanity check that allows us to ensure that we are pointing to the\n    //  right auction in our setSiringAuctionAddress() call.\n    bool public isSiringClockAuction = true;\n\n    // Delegate constructor\n    constructor(address _nftAddr, uint256 _cut)\n        ClockAuction(_nftAddr, _cut) {}\n\n    /// @dev Creates and begins a new auction. Since this function is wrapped,\n    /// require sender to be KittyCore contract.\n    /// @param _tokenId - ID of token to auction, sender must be owner.\n    /// @param _startingPrice - Price of item (in wei) at beginning of auction.\n    /// @param _endingPrice - Price of item (in wei) at end of auction.\n    /// @param _duration - Length of auction (in seconds).\n    /// @param _seller - Seller, if not the message sender\n    function createAuction(\n        uint256 _tokenId,\n        uint256 _startingPrice,\n        uint256 _endingPrice,\n        uint256 _duration,\n        address payable _seller\n    )\n        external\n        override\n    {\n        // Sanity check that no inputs overflow how many bits we've allocated\n        // to store them in the auction struct.\n        require(_startingPrice == uint256(uint128(_startingPrice)));\n        require(_endingPrice == uint256(uint128(_endingPrice)));\n        require(_duration == uint256(uint64(_duration)));\n\n        require(msg.sender == address(nonFungibleContract));\n        _escrow(_seller, _tokenId);\n        Auction memory auction = Auction(\n            _seller,\n            uint128(_startingPrice),\n            uint128(_endingPrice),\n            uint64(_duration),\n            uint64(block.timestamp)\n        );\n        _addAuction(_tokenId, auction);\n    }\n\n    /// @dev Places a bid for siring. Requires the sender\n    /// is the KittyCore contract because all bid methods\n    /// should be wrapped. Also returns the kitty to the\n    /// seller rather than the winner.\n    function bid(uint256 _tokenId)\n        external\n        override\n        payable\n    {\n        require(msg.sender == address(nonFungibleContract));\n        address seller = tokenIdToAuction[_tokenId].seller;\n        // _bid checks that token ID is valid and will throw if bid fails\n        _bid(_tokenId, msg.value);\n        // We transfer the kitty back to the seller, the winner will get\n        // the offspring\n        _transfer(seller, _tokenId);\n    }\n\n}\n\n",
  "sourcePath": "/Users/ivanmontiel/Desktop/workspace/nft-tutorial/nft/src/contracts/SiringClockAuction.sol",
  "compiler": {
    "name": "solc",
    "version": "0.8.3+commit.8d00100c.Emscripten.clang"
  },
  "schemaVersion": "3.3.4",
  "updatedAt": "2021-09-03T01:11:32.397Z",
  "devdoc": {
    "kind": "dev",
    "methods": {
      "bid(uint256)": {
        "details": "Places a bid for siring. Requires the sender is the KittyCore contract because all bid methods should be wrapped. Also returns the kitty to the seller rather than the winner."
      },
      "cancelAuction(uint256)": {
        "details": "Cancels an auction that hasn't been won yet.  Returns the NFT to original owner.",
        "params": {
          "_tokenId": "- ID of token on auction"
        }
      },
      "cancelAuctionWhenPaused(uint256)": {
        "details": "Cancels an auction when the contract is paused.  Only the owner may do this, and NFTs are returned to  the seller. This should only be used in emergencies.",
        "params": {
          "_tokenId": "- ID of the NFT on auction to cancel."
        }
      },
      "createAuction(uint256,uint256,uint256,uint256,address)": {
        "details": "Creates and begins a new auction. Since this function is wrapped, require sender to be KittyCore contract.",
        "params": {
          "_duration": "- Length of auction (in seconds).",
          "_endingPrice": "- Price of item (in wei) at end of auction.",
          "_seller": "- Seller, if not the message sender",
          "_startingPrice": "- Price of item (in wei) at beginning of auction.",
          "_tokenId": "- ID of token to auction, sender must be owner."
        }
      },
      "getAuction(uint256)": {
        "details": "Returns auction info for an NFT on auction.",
        "params": {
          "_tokenId": "- ID of NFT on auction."
        }
      },
      "getCurrentPrice(uint256)": {
        "details": "Returns the current price of an auction.",
        "params": {
          "_tokenId": "- ID of the token price we are checking."
        }
      },
      "pause()": {
        "details": "called by the owner to pause, triggers stopped state"
      },
      "transferOwnership(address)": {
        "details": "Allows the current owner to transfer control of the contract to a newOwner.",
        "params": {
          "newOwner": "The address to transfer ownership to."
        }
      },
      "unpause()": {
        "details": "called by the owner to unpause, returns to normal state"
      },
      "withdrawBalance()": {
        "details": "Remove all Ether from the contract, which is the owner's cuts  as well as any Ether sent directly to the contract address.  Always transfers to the NFT contract, but can be called either by  the owner or the NFT contract."
      }
    },
    "title": "Reverse auction modified for siring",
    "version": 1
  },
  "userdoc": {
    "kind": "user",
    "methods": {
      "cancelAuction(uint256)": {
        "notice": "This is a state-modifying function that can  be called while the contract is paused."
      }
    },
    "notice": "We omit a fallback function to prevent accidental sends to this contract.",
    "version": 1
  }
}